{
  "_format": "hh-sol-artifact-1",
  "contractName": "SimpleSwap",
  "sourceName": "contracts/SimpleSwap.sol",
  "abi": [
    {
      "anonymous": false,
      "inputs": [
        {
          "indexed": true,
          "internalType": "address",
          "name": "tokenA",
          "type": "address"
        },
        {
          "indexed": true,
          "internalType": "address",
          "name": "tokenB",
          "type": "address"
        },
        {
          "indexed": true,
          "internalType": "address",
          "name": "provider",
          "type": "address"
        },
        {
          "indexed": false,
          "internalType": "uint256",
          "name": "amountA",
          "type": "uint256"
        },
        {
          "indexed": false,
          "internalType": "uint256",
          "name": "amountB",
          "type": "uint256"
        },
        {
          "indexed": false,
          "internalType": "uint256",
          "name": "liquidity",
          "type": "uint256"
        }
      ],
      "name": "LiquidityAdded",
      "type": "event"
    },
    {
      "anonymous": false,
      "inputs": [
        {
          "indexed": true,
          "internalType": "address",
          "name": "tokenA",
          "type": "address"
        },
        {
          "indexed": true,
          "internalType": "address",
          "name": "tokenB",
          "type": "address"
        },
        {
          "indexed": true,
          "internalType": "address",
          "name": "provider",
          "type": "address"
        },
        {
          "indexed": false,
          "internalType": "uint256",
          "name": "amountA",
          "type": "uint256"
        },
        {
          "indexed": false,
          "internalType": "uint256",
          "name": "amountB",
          "type": "uint256"
        },
        {
          "indexed": false,
          "internalType": "uint256",
          "name": "liquidity",
          "type": "uint256"
        }
      ],
      "name": "LiquidityRemoved",
      "type": "event"
    },
    {
      "anonymous": false,
      "inputs": [
        {
          "indexed": true,
          "internalType": "address",
          "name": "tokenIn",
          "type": "address"
        },
        {
          "indexed": true,
          "internalType": "address",
          "name": "tokenOut",
          "type": "address"
        },
        {
          "indexed": true,
          "internalType": "address",
          "name": "trader",
          "type": "address"
        },
        {
          "indexed": false,
          "internalType": "uint256",
          "name": "amountIn",
          "type": "uint256"
        },
        {
          "indexed": false,
          "internalType": "uint256",
          "name": "amountOut",
          "type": "uint256"
        }
      ],
      "name": "TokensSwapped",
      "type": "event"
    },
    {
      "inputs": [
        {
          "internalType": "address",
          "name": "tokenA",
          "type": "address"
        },
        {
          "internalType": "address",
          "name": "tokenB",
          "type": "address"
        },
        {
          "internalType": "uint256",
          "name": "amountADesired",
          "type": "uint256"
        },
        {
          "internalType": "uint256",
          "name": "amountBDesired",
          "type": "uint256"
        },
        {
          "internalType": "uint256",
          "name": "amountAMin",
          "type": "uint256"
        },
        {
          "internalType": "uint256",
          "name": "amountBMin",
          "type": "uint256"
        },
        {
          "internalType": "address",
          "name": "to",
          "type": "address"
        },
        {
          "internalType": "uint256",
          "name": "deadline",
          "type": "uint256"
        }
      ],
      "name": "addLiquidity",
      "outputs": [
        {
          "internalType": "uint256",
          "name": "amountA",
          "type": "uint256"
        },
        {
          "internalType": "uint256",
          "name": "amountB",
          "type": "uint256"
        },
        {
          "internalType": "uint256",
          "name": "liquidity",
          "type": "uint256"
        }
      ],
      "stateMutability": "nonpayable",
      "type": "function"
    },
    {
      "inputs": [
        {
          "internalType": "uint256",
          "name": "amountIn",
          "type": "uint256"
        },
        {
          "internalType": "uint256",
          "name": "reserveIn",
          "type": "uint256"
        },
        {
          "internalType": "uint256",
          "name": "reserveOut",
          "type": "uint256"
        }
      ],
      "name": "getAmountOut",
      "outputs": [
        {
          "internalType": "uint256",
          "name": "amountOut",
          "type": "uint256"
        }
      ],
      "stateMutability": "pure",
      "type": "function"
    },
    {
      "inputs": [
        {
          "internalType": "address",
          "name": "tokenA",
          "type": "address"
        },
        {
          "internalType": "address",
          "name": "tokenB",
          "type": "address"
        }
      ],
      "name": "getPrice",
      "outputs": [
        {
          "internalType": "uint256",
          "name": "price",
          "type": "uint256"
        }
      ],
      "stateMutability": "view",
      "type": "function"
    },
    {
      "inputs": [
        {
          "internalType": "address",
          "name": "",
          "type": "address"
        },
        {
          "internalType": "address",
          "name": "",
          "type": "address"
        }
      ],
      "name": "pairs",
      "outputs": [
        {
          "internalType": "uint256",
          "name": "totalSupply",
          "type": "uint256"
        },
        {
          "components": [
            {
              "internalType": "uint128",
              "name": "reserveA",
              "type": "uint128"
            },
            {
              "internalType": "uint128",
              "name": "reserveB",
              "type": "uint128"
            }
          ],
          "internalType": "struct SimpleSwap.Reserves",
          "name": "reserves",
          "type": "tuple"
        }
      ],
      "stateMutability": "view",
      "type": "function"
    },
    {
      "inputs": [
        {
          "internalType": "address",
          "name": "tokenA",
          "type": "address"
        },
        {
          "internalType": "address",
          "name": "tokenB",
          "type": "address"
        },
        {
          "internalType": "uint256",
          "name": "liquidity",
          "type": "uint256"
        },
        {
          "internalType": "uint256",
          "name": "amountAMin",
          "type": "uint256"
        },
        {
          "internalType": "uint256",
          "name": "amountBMin",
          "type": "uint256"
        },
        {
          "internalType": "address",
          "name": "to",
          "type": "address"
        },
        {
          "internalType": "uint256",
          "name": "deadline",
          "type": "uint256"
        }
      ],
      "name": "removeLiquidity",
      "outputs": [
        {
          "internalType": "uint256",
          "name": "amountA",
          "type": "uint256"
        },
        {
          "internalType": "uint256",
          "name": "amountB",
          "type": "uint256"
        }
      ],
      "stateMutability": "nonpayable",
      "type": "function"
    },
    {
      "inputs": [
        {
          "internalType": "uint256",
          "name": "amountIn",
          "type": "uint256"
        },
        {
          "internalType": "uint256",
          "name": "amountOutMin",
          "type": "uint256"
        },
        {
          "internalType": "address[]",
          "name": "path",
          "type": "address[]"
        },
        {
          "internalType": "address",
          "name": "to",
          "type": "address"
        },
        {
          "internalType": "uint256",
          "name": "deadline",
          "type": "uint256"
        }
      ],
      "name": "swapExactTokensForTokens",
      "outputs": [
        {
          "internalType": "uint256[]",
          "name": "amounts",
          "type": "uint256[]"
        }
      ],
      "stateMutability": "nonpayable",
      "type": "function"
    }
  ],
  "bytecode": "0x6080806040523460545760408167bc36ad00d6cd7a8760206024940152602081526059565b6040604080516717c69de68426b70d6020820152602081526059565b600160005560405161235c90816100928239f35b600080fd5b601f909101601f19168101906001600160401b03821190821017607b57604052565b634e487b7160e01b600052604160045260246000fdfe60a0604052600436101561001257600080fd5b60003560e01c8063054d50d414611dd057806338ed1739146114e357806369454b8614611464578063ac41865a14611246578063baa2abde146109d25763e8e337001461005e57600080fd5b346109cd576101003660031901126109cd57610078611df4565b610080611e0a565b90604435906064359060c435936001600160a01b0385168095036109cd576001600160a01b0380916100c6604080516723bc91d41a02013a602082015260208152611e20565b6100e4604080516783afaa55f05c6a4f602082015260208152611e20565b6101026040805167557a8cfb7046c0cc602082015260208152611e20565b6101206040805167b85e52de885e5fa8602082015260208152611e20565b6101286121da565b6101466040805167502e035aaf321de4602082015260208152611e20565b6101646040805167633d4a2a823d8a45602082015260208152611e20565b61018260408051679116c454d16a0a0f602082015260208152611e20565b6101a060408051678372299c806346db602082015260208152611e20565b6101be6040805167c43090ee4bfe3224602082015260208152611e20565b6101dc6040805167e52f9ba555054c55602082015260208152611e20565b6101ea60e4354211156120cb565b6102086040805167914c284b50ed81db602082015260208152611e20565b6102266040805167d78820161ca7a5e4602082015260208152611e20565b6102446040805167f16acd54488f042e602082015260208152611e20565b61026260408051675d4ba97304e4f9eb602082015260208152611e20565b169116938185146109895761028b60408051673f8ee4fa56c1137a602082015260208152611e20565b6102a960408051679a1e85f4e3ea27c4602082015260208152611e20565b6102c7604080516747957f49f18ee842602082015260208152611e20565b6102e560408051671c094f206b8d4a34602082015260208152611e20565b83151580610980575b1561093c5761031160408051672f460c0d127a1d9c602082015260208152611e20565b61032f60408051670279f6dcc17dd5fc602082015260208152611e20565b61034d6040805167ee36442575a0e465602082015260208152611e20565b6040516323b872dd60e01b81523360048201523060248201526044810185905260208160648160008a5af180156109135761091f575b506103a26040805167a47fa3906c48945d602082015260208152611e20565b6103c06040805167192434b4303a282a602082015260208152611e20565b6040516323b872dd60e01b815233600482015230602482015260448101849052916020836064816000855af195861561091357600161079c958795610567996108e6575b5061042360408051675076290dd98e526f602082015260208152611e20565b61044160408051670ff2a353d561c761602082015260208152611e20565b82600052816020526106626106356001600160801b0360206040806000206000908a82528352209461048560408051670b723ff646e7089785820152848152611e20565b6104a16040805167f4b86756da1af3a985820152848152611e20565b6104ad60028701611e58565b906104ca604080516751789f3a79f8738c86820152858152611e20565b6104e66040805167ada87ed5b2fd2bc486820152858152611e20565b838251161580156108aa575b8061086f575b1561084b579d8e5b61051c6040805167859053753f0e12ef87820152868152611e20565b610538604080516798dd592f78f3331a87820152868152611e20565b61055460408051672f3236d6ea06ee6087820152868152611e20565b6084358d1015908161083e575b50612142565b6105836040805167abdcf221a01b4b5b85820152848152611e20565b61059f60408051672614862cf3c28a9a85820152848152611e20565b8a83825116158015610800575b806107c3575b156107a0576105e784919c5b6105da6040805167d136339add1e130188820152878152611e20565b828085511691169061218d565b166fffffffffffffffffffffffffffffffff196002880154161760028701556106226040805167bd67aa57fb87414a85820152848152611e20565b0151166001600160801b038c169061218d565b60028301906001600160801b036fffffffffffffffffffffffffffffffff1983549260801b169116179055565b6106806040805167344e0700ff2ffe78602082015260208152611e20565b61068b868254611eec565b81556106ab60408051677b3b8e1cb2ddcce1602082015260208152611e20565b846000520160205260406000206106c3858254611eec565b90556106e360408051671edcc6e4af8bd490602082015260208152611e20565b6107016040805167a79e56be70343264602082015260208152611e20565b60408051878152602081018990529081018590527f43c967b388d3a4ccad3f7ab80167852e322e5a3fde9893f530252281b2ae8b7090606090a46107596040805167e681476d65d638f3602082015260208152611e20565b61077760408051672353fc82cedd28ec602082015260208152611e20565b61077f6122e3565b604051938493846040919493926060820195825260208201520152565b0390f35b6105e76107bd6107b386938a5490611ed9565b8385511690611ef9565b9c6105be565b50506107f9604080517fbfa2bc9092e4d89c00000000000000000000000000000000000000000000000085820152848152611e20565b8a876105b2565b5050610836604080517fdf3bd8ce40f50aa200000000000000000000000000000000000000000000000085820152848152611e20565b8a60006105ac565b905060a43511158f610561565b5061086861085e8484840151168d611ed9565b8483511690611ef9565b9d8e610500565b506108a4604080517f2668290c5312ccdc00000000000000000000000000000000000000000000000086820152858152611e20565b876104f8565b506108df604080517fc140f012e67899d600000000000000000000000000000000000000000000000086820152858152611e20565b60006104f2565b6109079060203d60201161090c575b6108ff8183611e20565b81019061212a565b610404565b503d6108f5565b6040513d6000823e3d90fd5b6109379060203d60201161090c576108ff8183611e20565b610383565b606460405162461bcd60e51b815260206004820152600b60248201527f696e76616c69645f616d740000000000000000000000000000000000000000006044820152fd5b508215156102ee565b606460405162461bcd60e51b815260206004820152600960248201527f6964656e746963616c00000000000000000000000000000000000000000000006044820152fd5b600080fd5b346109cd5760e03660031901126109cd576109eb611df4565b6109f3611e0a565b9060a435906001600160a01b03821682036109cd57610a266040805167b25d79b6f26f73bb602082015260208152611e20565b610a44604080516783afaa55f05c6a4f602082015260208152611e20565b610a626040805167557a8cfb7046c0cc602082015260208152611e20565b610a806040805167b85e52de885e5fa8602082015260208152611e20565b610a886121da565b610aa66040805167502e035aaf321de4602082015260208152611e20565b610ac4604080516784993e0b80a83e10602082015260208152611e20565b610ae26040805167295b816ef78c48d0602082015260208152611e20565b610b0060408051679f58dc5660b9ab57602082015260208152611e20565b610b1e6040805167b929a804d83fedc2602082015260208152611e20565b610b3c60408051670a3ea398d7924824602082015260208152611e20565b610b4a60c4354211156120cb565b610b686040805167105cd13e26f6af0e602082015260208152611e20565b610b866040805167b7849ea121ea8949602082015260208152611e20565b610ba460408051672c40697afcb06829602082015260208152611e20565b610bc26040805167c06c8758ae0d93d8602082015260208152611e20565b6044351561120257610be86040805167b00c5d426f411734602082015260208152611e20565b610c066040805167e830169071e4aba1602082015260208152611e20565b610c246040805167d411d82a376e53db602082015260208152611e20565b6001600160a01b03811660005260016020526040806000206000906001600160a01b03861682526020522091610c6e6040805167f1eebb0426b59446602082015260208152611e20565b610c8c60408051670ade5442bc3a227f602082015260208152611e20565b610caa60408051672835760e77fca10d602082015260208152611e20565b6001600160a01b0333166000526001830160205260406000206044359054106111be57610ceb60408051676f7edbcb3509ae1f602082015260208152611e20565b610d096040805167ece9325b614fa5c8602082015260208152611e20565b610d276040805167750ec41051cebfc6602082015260208152611e20565b6001610d3560028501611e58565b93610d546040805167377a3650d3fec259602082015260208152611e20565b610d726040805167ccca18f3348ff82f602082015260208152611e20565b610f496001600160801b03610f22610ef5826020610dbd8b610db88954978892610dae604080516711b9a21a50880f4c89820152888152611e20565b5116604435611ed9565b611ef9565b9a610dda60408051673c5f76b55d09c1c885820152848152611e20565b610def86610db8858585015116604435611ed9565b608052610e0e604080516717c37b9711a884a985820152848152611e20565b610e2a60408051679ff138248c7e4a9085820152848152611e20565b610e46604080516789f5d55623a0bfaf85820152848152611e20565b6064358c1015806111b0575b610e5b90612142565b610e776040805167b73a58d095b5ed6d85820152848152611e20565b610e936040805167f7f97522572a66ea85820152848152611e20565b82610ea58d82808551169116906121ad565b166fffffffffffffffffffffffffffffffff1960028a015416176002890155610ee06040805167fb4f4d81d787cc7a85820152848152611e20565b0151166001600160801b0360805116906121ad565b60028501906001600160801b036fffffffffffffffffffffffffffffffff1983549260801b169116179055565b610f406040805167916563991f471866602082015260208152611e20565b604435906121cd565b8155610f696040805167e1a06fd1dcfada32602082015260208152611e20565b6001600160a01b033316600052016020526040600020610f8c60443582546121cd565b9055610fac6040805167f76500020224dd69602082015260208152611e20565b610fca60408051679cf6fb62fe4f1391602082015260208152611e20565b60405163a9059cbb60e01b81526001600160a01b0382166004820152602481018490526020818060448101038160006001600160a01b0388165af180156109135761108f956020926001600160a01b0392611195575b5061103d6040805167a5162c89b7c2299786820152858152611e20565b61105960408051677b0e07e2a51835fb86820152858152611e20565b16916040518096819263a9059cbb60e01b83526080519060048401602090939291936001600160a01b0360408201951681520152565b03816000855af193841561091357604094611178575b506110c38480516715576161349fd017602082015260208152611e20565b6110e0848051676b0d41bf659f1006602082015260208152611e20565b83516080518482526020820152604435604082015233926001600160a01b0316907fd765e08eef31c0983ecca03ecd166297ac485ecd5dd69e291c848f0a020333c190606090a461114482805167e681476d65d638f3602082015260208152611e20565b611161828051672353fc82cedd28ec602082015260208152611e20565b6111696122e3565b81519081526080516020820152f35b6111909060203d60201161090c576108ff8183611e20565b6110a5565b6111ab90843d861161090c576108ff8183611e20565b611020565b506080516084351115610e52565b606460405162461bcd60e51b815260206004820152600a60248201527f696e737566665f62616c000000000000000000000000000000000000000000006044820152fd5b606460405162461bcd60e51b815260206004820152600860248201527f7a65726f5f6c69710000000000000000000000000000000000000000000000006044820152fd5b346109cd5760403660031901126109cd5761125f611df4565b6001600160a01b0361126f611e0a565b9161128e60408051674e9dd48fa333a397602082015260208152611e20565b6112ac60408051670a8f55d47e97e96f602082015260208152611e20565b6112ca60408051671b550df0f1fb3669602082015260208152611e20565b1660005260016020526001600160a01b03604060002091166000526020526112f86002604060002001611e58565b61131660408051679ec6d1c85f1192c9602082015260208152611e20565b6113346040805167375b51fe2a6afa68602082015260208152611e20565b6113526040805167c3bc104516919126602082015260208152611e20565b6001600160801b0381511615158061144e575b1561140a5761138860408051677cbd13c5f9ba451f602082015260208152611e20565b6113a6604080516727b932524d190784602082015260208152611e20565b6001600160801b0381511690670de0b6b3a7640000820291808304670de0b6b3a764000014901517156113f4576020916001600160801b03836113ec9301511690611ef9565b604051908152f35b634e487b7160e01b600052601160045260246000fd5b606460405162461bcd60e51b815260206004820152600960248201527f7a65726f5f7265737600000000000000000000000000000000000000000000006044820152fd5b506001600160801b036020820151161515611365565b346109cd5760403660031901126109cd5761147d611df4565b6001600160a01b0361148d611e0a565b911660005260016020526001600160a01b0360406000209116600052602052606060406000206001600160801b0360206114cb600284549401611e58565b60405193845282815116828501520151166040820152f35b346109cd5760a03660031901126109cd5760443560043567ffffffffffffffff82116109cd57366023830112156109cd5781600401359067ffffffffffffffff82116109cd573660248360051b850101116109cd57606435926001600160a01b03841684036109cd5761156a60408051675a281e90a1a9afca602082015260208152611e20565b611588604080516783afaa55f05c6a4f602082015260208152611e20565b6115a66040805167557a8cfb7046c0cc602082015260208152611e20565b6115c46040805167b85e52de885e5fa8602082015260208152611e20565b6115cc6121da565b6115ea6040805167502e035aaf321de4602082015260208152611e20565b61160860408051670242486d7536d32b602082015260208152611e20565b61162660408051676f835b42bb796ccb602082015260208152611e20565b61164460408051679fd46f3ce2e0d2aa602082015260208152611e20565b611662604080516764b796f9cd13dced602082015260208152611e20565b6116806040805167d51fa784833b6a7c602082015260208152611e20565b61168e6084354211156120cb565b6116ac6040805167bf777c0f8e57ca01602082015260208152611e20565b6116ca6040805167311a23fd959aeb4d602082015260208152611e20565b6116e860408051671030281fdb4d92b7602082015260208152611e20565b611706604080516752a19aa7996d6bdf602082015260208152611e20565b60028303611d8c5761172c6040805167f00dc0b605febcc8602082015260208152611e20565b61174a604080516779230cc442c27854602082015260208152611e20565b611768604080516795db51ad79747099602082015260208152611e20565b61178660408051676263f6da351e7f20602082015260208152611e20565b611791821515611e8e565b6117af6040805167cb8bd4b79814bc49602082015260208152611e20565b6117cd60408051673434009662866f4b602082015260208152611e20565b6117eb604080516788219d4357b94a35602082015260208152611e20565b8215611d3c576117fd60248201612116565b9261181c60408051674617de4ce0b79a3f602082015260208152611e20565b61183a6040805167caab59f1c6e24307602082015260208152611e20565b60011015611d3c5761185660446001600160a01b039201612116565b9261187560408051672d4aeeb636faf5f8602082015260208152611e20565b61189360408051678c90fec96bf16366602082015260208152611e20565b169283600052600160205260406000206001600160a01b038416600052602052600260406000206118d86040805167ca6eab8c8c6df147602082015260208152611e20565b6118f66040805167b95291f5532962c1602082015260208152611e20565b019261190184611e58565b936119206040805167d54600ba499d0ad7602082015260208152611e20565b61193e6040805167a12411e9e4564f67602082015260208152611e20565b6040516323b872dd60e01b81523360048201523060248201526044810185905260208160648160008b5af1801561091357611d6f575b5060405160208101674807015ac0c6d70a905260208152604061199691611e20565b604051602081016710d3d5705e7b4d1890526020815260406119b791611e20565b84516001600160801b0316602086019081516001600160801b03166119dc9187611f19565b9560405160208101675888b8064b1d15e090526020815260406119fe91611e20565b6040516020810167f576b63b5552636e9052602081526040611a1f91611e20565b6040516020810167e4d1b061e7984f2f9052602081526040611a4091611e20565b611a4e602435881015612142565b60405160208101678c723bf6712488759052602081526040611a6f91611e20565b6040516020810167b69433d5d0a3ee259052602081526040611a9091611e20565b516001600160801b03166001600160801b038616611aad9161218d565b6001600160801b031682546fffffffffffffffffffffffffffffffff1916178255604051602081016727195b78cb6199c19052602081526040611aef91611e20565b516001600160801b03166001600160801b038616611b0c916121ad565b81546001600160801b031660809190911b6fffffffffffffffffffffffffffffffff191617905560405160208101679603e90096c706a49052602081526040611b5491611e20565b604051602081016799974626953099b09052602081526040611b7591611e20565b60405163a9059cbb60e01b81526001600160a01b0392831660048201526024810185905291169081816044815a602094600091f1801561091357611d52575b50611bd360408051672a14a6daa340fa56602082015260208152611e20565b60405193611be2606086611e20565b6002855260208501936040368637611c0e6040805167178b6831d6b87af7602082015260208152611e20565b855115611d3c57838552611c3660408051678c949ad74467c93f602082015260208152611e20565b855160011015611d3c578060408796970152611c666040805167c8d293ea701c6cbf602082015260208152611e20565b611c8460408051677fd9c0064763f058602082015260208152611e20565b60405193845260208401527fad56699d0f375866eb895ed27203058a36a713382aaded78eb6b67da266d433260403394a4611cd36040805167e681476d65d638f3602082015260208152611e20565b611cf160408051672353fc82cedd28ec602082015260208152611e20565b611cf96122e3565b6040519182916020830190602084525180915260408301919060005b818110611d23575050500390f35b8251845285945060209384019390920191600101611d15565b634e487b7160e01b600052603260045260246000fd5b611d6a9060203d60201161090c576108ff8183611e20565b611bb4565b611d879060203d60201161090c576108ff8183611e20565b611974565b606460405162461bcd60e51b815260206004820152600c60248201527f696e76616c69645f7061746800000000000000000000000000000000000000006044820152fd5b346109cd5760603660031901126109cd5760206113ec604435602435600435611f19565b600435906001600160a01b03821682036109cd57565b602435906001600160a01b03821682036109cd57565b90601f8019910116810190811067ffffffffffffffff821117611e4257604052565b634e487b7160e01b600052604160045260246000fd5b906040516040810181811067ffffffffffffffff821117611e425760405291546001600160801b038116835260801c6020830152565b15611e9557565b606460405162461bcd60e51b815260206004820152600a60248201527f7a65726f5f696e707574000000000000000000000000000000000000000000006044820152fd5b818102929181159184041417156113f457565b919082018092116113f457565b8115611f03570490565b634e487b7160e01b600052601260045260246000fd5b91611f3860408051673f1643a17e972209602082015260208152611e20565b611f5660408051671fad8b62bac15b7f602082015260208152611e20565b611f746040805167efb66768cc34f5f7602082015260208152611e20565b611f926040805167a5804c8cefe9cd96602082015260208152611e20565b611f9d831515611e8e565b611fbb6040805167b903d7d141483927602082015260208152611e20565b611fd860408051665d082b0dab3473602082015260208152611e20565b611ff660408051674bfe47ead1ac1e4c602082015260208152611e20565b612014604080516739b283281a91d2c4602082015260208152611e20565b811515806120c2575b1561207e5761207b9261206f6120759261204b6040805167801b7095f9935698602082015260208152611e20565b61206960408051673de013647af12f6a602082015260208152611e20565b82611ed9565b92611eec565b90611ef9565b90565b606460405162461bcd60e51b815260206004820152600860248201527f6261645f726573760000000000000000000000000000000000000000000000006044820152fd5b5080151561201d565b156120d257565b606460405162461bcd60e51b815260206004820152600760248201527f65787069726564000000000000000000000000000000000000000000000000006044820152fd5b356001600160a01b03811681036109cd5790565b908160209103126109cd575180151581036109cd5790565b1561214957565b606460405162461bcd60e51b815260206004820152600860248201527f736c6970706167650000000000000000000000000000000000000000000000006044820152fd5b906001600160801b03809116911601906001600160801b0382116113f457565b906001600160801b03809116911603906001600160801b0382116113f457565b919082039182116113f457565b6121f86040805167fa21c05df241ebf9602082015260208152611e20565b612216604080516713ec7a0a0eeb211d602082015260208152611e20565b61223460408051675b57bc21b08fc165602082015260208152611e20565b6122526040805167c61306ebb15246a4602082015260208152611e20565b60026000541461229f5761227a6040805167cb4fa8c0f1374899602082015260208152611e20565b61229860408051676bb191d015d91c70602082015260208152611e20565b6002600055565b606460405162461bcd60e51b815260206004820152601f60248201527f5265656e7472616e637947756172643a207265656e7472616e742063616c6c006044820152fd5b6123016040805167906f9f1ddf8ae111602082015260208152611e20565b61231f60408051671e9d5376e72f6ef8602082015260208152611e20565b600160005556fea26469706673582212208a76935f8f7d82151539d104d6d40193563b2912ea7afceae7da0026b420527264736f6c634300081c0033",
  "linkReferences": {},
  "deployedLinkReferences": {}
}