{"contracts/SimpleSwap.sol":{"SimpleSwap":{"abi":[{"anonymous":false,"inputs":[{"indexed":true,"internalType":"address","name":"tokenA","type":"address"},{"indexed":true,"internalType":"address","name":"tokenB","type":"address"},{"indexed":true,"internalType":"address","name":"provider","type":"address"},{"indexed":false,"internalType":"uint256","name":"amountA","type":"uint256"},{"indexed":false,"internalType":"uint256","name":"amountB","type":"uint256"},{"indexed":false,"internalType":"uint256","name":"liquidity","type":"uint256"}],"name":"LiquidityAdded","type":"event"},{"anonymous":false,"inputs":[{"indexed":true,"internalType":"address","name":"tokenA","type":"address"},{"indexed":true,"internalType":"address","name":"tokenB","type":"address"},{"indexed":true,"internalType":"address","name":"provider","type":"address"},{"indexed":false,"internalType":"uint256","name":"amountA","type":"uint256"},{"indexed":false,"internalType":"uint256","name":"amountB","type":"uint256"},{"indexed":false,"internalType":"uint256","name":"liquidity","type":"uint256"}],"name":"LiquidityRemoved","type":"event"},{"anonymous":false,"inputs":[{"indexed":true,"internalType":"address","name":"tokenIn","type":"address"},{"indexed":true,"internalType":"address","name":"tokenOut","type":"address"},{"indexed":true,"internalType":"address","name":"trader","type":"address"},{"indexed":false,"internalType":"uint256","name":"amountIn","type":"uint256"},{"indexed":false,"internalType":"uint256","name":"amountOut","type":"uint256"}],"name":"TokensSwapped","type":"event"},{"inputs":[{"internalType":"address","name":"tokenA","type":"address"},{"internalType":"address","name":"tokenB","type":"address"},{"internalType":"uint256","name":"amountADesired","type":"uint256"},{"internalType":"uint256","name":"amountBDesired","type":"uint256"},{"internalType":"uint256","name":"amountAMin","type":"uint256"},{"internalType":"uint256","name":"amountBMin","type":"uint256"},{"internalType":"address","name":"to","type":"address"},{"internalType":"uint256","name":"deadline","type":"uint256"}],"name":"addLiquidity","outputs":[{"internalType":"uint256","name":"amountA","type":"uint256"},{"internalType":"uint256","name":"amountB","type":"uint256"},{"internalType":"uint256","name":"liquidity","type":"uint256"}],"stateMutability":"nonpayable","type":"function"},{"inputs":[{"internalType":"uint256","name":"amountIn","type":"uint256"},{"internalType":"uint256","name":"reserveIn","type":"uint256"},{"internalType":"uint256","name":"reserveOut","type":"uint256"}],"name":"getAmountOut","outputs":[{"internalType":"uint256","name":"amountOut","type":"uint256"}],"stateMutability":"pure","type":"function"},{"inputs":[{"internalType":"address","name":"tokenA","type":"address"},{"internalType":"address","name":"tokenB","type":"address"}],"name":"getPrice","outputs":[{"internalType":"uint256","name":"price","type":"uint256"}],"stateMutability":"view","type":"function"},{"inputs":[{"internalType":"address","name":"","type":"address"},{"internalType":"address","name":"","type":"address"}],"name":"pairs","outputs":[{"internalType":"uint256","name":"totalSupply","type":"uint256"},{"components":[{"internalType":"uint128","name":"reserveA","type":"uint128"},{"internalType":"uint128","name":"reserveB","type":"uint128"}],"internalType":"struct SimpleSwap.Reserves","name":"reserves","type":"tuple"}],"stateMutability":"view","type":"function"},{"inputs":[{"internalType":"address","name":"tokenA","type":"address"},{"internalType":"address","name":"tokenB","type":"address"},{"internalType":"uint256","name":"liquidity","type":"uint256"},{"internalType":"uint256","name":"amountAMin","type":"uint256"},{"internalType":"uint256","name":"amountBMin","type":"uint256"},{"internalType":"address","name":"to","type":"address"},{"internalType":"uint256","name":"deadline","type":"uint256"}],"name":"removeLiquidity","outputs":[{"internalType":"uint256","name":"amountA","type":"uint256"},{"internalType":"uint256","name":"amountB","type":"uint256"}],"stateMutability":"nonpayable","type":"function"},{"inputs":[{"internalType":"uint256","name":"amountIn","type":"uint256"},{"internalType":"uint256","name":"amountOutMin","type":"uint256"},{"internalType":"address[]","name":"path","type":"address[]"},{"internalType":"address","name":"to","type":"address"},{"internalType":"uint256","name":"deadline","type":"uint256"}],"name":"swapExactTokensForTokens","outputs":[{"internalType":"uint256[]","name":"amounts","type":"uint256[]"}],"stateMutability":"nonpayable","type":"function"}],"evm":{"bytecode":{"linkReferences":{},"object":"6080806040523460545760408167bc36ad00d6cd7a8760206024940152602081526059565b6040604080516717c69de68426b70d6020820152602081526059565b600160005560405161235c90816100928239f35b600080fd5b601f909101601f19168101906001600160401b03821190821017607b57604052565b634e487b7160e01b600052604160045260246000fdfe60a0604052600436101561001257600080fd5b60003560e01c8063054d50d414611dd057806338ed1739146114e357806369454b8614611464578063ac41865a14611246578063baa2abde146109d25763e8e337001461005e57600080fd5b346109cd576101003660031901126109cd57610078611df4565b610080611e0a565b90604435906064359060c435936001600160a01b0385168095036109cd576001600160a01b0380916100c6604080516723bc91d41a02013a602082015260208152611e20565b6100e4604080516783afaa55f05c6a4f602082015260208152611e20565b6101026040805167557a8cfb7046c0cc602082015260208152611e20565b6101206040805167b85e52de885e5fa8602082015260208152611e20565b6101286121da565b6101466040805167502e035aaf321de4602082015260208152611e20565b6101646040805167633d4a2a823d8a45602082015260208152611e20565b61018260408051679116c454d16a0a0f602082015260208152611e20565b6101a060408051678372299c806346db602082015260208152611e20565b6101be6040805167c43090ee4bfe3224602082015260208152611e20565b6101dc6040805167e52f9ba555054c55602082015260208152611e20565b6101ea60e4354211156120cb565b6102086040805167914c284b50ed81db602082015260208152611e20565b6102266040805167d78820161ca7a5e4602082015260208152611e20565b6102446040805167f16acd54488f042e602082015260208152611e20565b61026260408051675d4ba97304e4f9eb602082015260208152611e20565b169116938185146109895761028b60408051673f8ee4fa56c1137a602082015260208152611e20565b6102a960408051679a1e85f4e3ea27c4602082015260208152611e20565b6102c7604080516747957f49f18ee842602082015260208152611e20565b6102e560408051671c094f206b8d4a34602082015260208152611e20565b83151580610980575b1561093c5761031160408051672f460c0d127a1d9c602082015260208152611e20565b61032f60408051670279f6dcc17dd5fc602082015260208152611e20565b61034d6040805167ee36442575a0e465602082015260208152611e20565b6040516323b872dd60e01b81523360048201523060248201526044810185905260208160648160008a5af180156109135761091f575b506103a26040805167a47fa3906c48945d602082015260208152611e20565b6103c06040805167192434b4303a282a602082015260208152611e20565b6040516323b872dd60e01b815233600482015230602482015260448101849052916020836064816000855af195861561091357600161079c958795610567996108e6575b5061042360408051675076290dd98e526f602082015260208152611e20565b61044160408051670ff2a353d561c761602082015260208152611e20565b82600052816020526106626106356001600160801b0360206040806000206000908a82528352209461048560408051670b723ff646e7089785820152848152611e20565b6104a16040805167f4b86756da1af3a985820152848152611e20565b6104ad60028701611e58565b906104ca604080516751789f3a79f8738c86820152858152611e20565b6104e66040805167ada87ed5b2fd2bc486820152858152611e20565b838251161580156108aa575b8061086f575b1561084b579d8e5b61051c6040805167859053753f0e12ef87820152868152611e20565b610538604080516798dd592f78f3331a87820152868152611e20565b61055460408051672f3236d6ea06ee6087820152868152611e20565b6084358d1015908161083e575b50612142565b6105836040805167abdcf221a01b4b5b85820152848152611e20565b61059f60408051672614862cf3c28a9a85820152848152611e20565b8a83825116158015610800575b806107c3575b156107a0576105e784919c5b6105da6040805167d136339add1e130188820152878152611e20565b828085511691169061218d565b166fffffffffffffffffffffffffffffffff196002880154161760028701556106226040805167bd67aa57fb87414a85820152848152611e20565b0151166001600160801b038c169061218d565b60028301906001600160801b036fffffffffffffffffffffffffffffffff1983549260801b169116179055565b6106806040805167344e0700ff2ffe78602082015260208152611e20565b61068b868254611eec565b81556106ab60408051677b3b8e1cb2ddcce1602082015260208152611e20565b846000520160205260406000206106c3858254611eec565b90556106e360408051671edcc6e4af8bd490602082015260208152611e20565b6107016040805167a79e56be70343264602082015260208152611e20565b60408051878152602081018990529081018590527f43c967b388d3a4ccad3f7ab80167852e322e5a3fde9893f530252281b2ae8b7090606090a46107596040805167e681476d65d638f3602082015260208152611e20565b61077760408051672353fc82cedd28ec602082015260208152611e20565b61077f6122e3565b604051938493846040919493926060820195825260208201520152565b0390f35b6105e76107bd6107b386938a5490611ed9565b8385511690611ef9565b9c6105be565b50506107f9604080517fbfa2bc9092e4d89c00000000000000000000000000000000000000000000000085820152848152611e20565b8a876105b2565b5050610836604080517fdf3bd8ce40f50aa200000000000000000000000000000000000000000000000085820152848152611e20565b8a60006105ac565b905060a43511158f610561565b5061086861085e8484840151168d611ed9565b8483511690611ef9565b9d8e610500565b506108a4604080517f2668290c5312ccdc00000000000000000000000000000000000000000000000086820152858152611e20565b876104f8565b506108df604080517fc140f012e67899d600000000000000000000000000000000000000000000000086820152858152611e20565b60006104f2565b6109079060203d60201161090c575b6108ff8183611e20565b81019061212a565b610404565b503d6108f5565b6040513d6000823e3d90fd5b6109379060203d60201161090c576108ff8183611e20565b610383565b606460405162461bcd60e51b815260206004820152600b60248201527f696e76616c69645f616d740000000000000000000000000000000000000000006044820152fd5b508215156102ee565b606460405162461bcd60e51b815260206004820152600960248201527f6964656e746963616c00000000000000000000000000000000000000000000006044820152fd5b600080fd5b346109cd5760e03660031901126109cd576109eb611df4565b6109f3611e0a565b9060a435906001600160a01b03821682036109cd57610a266040805167b25d79b6f26f73bb602082015260208152611e20565b610a44604080516783afaa55f05c6a4f602082015260208152611e20565b610a626040805167557a8cfb7046c0cc602082015260208152611e20565b610a806040805167b85e52de885e5fa8602082015260208152611e20565b610a886121da565b610aa66040805167502e035aaf321de4602082015260208152611e20565b610ac4604080516784993e0b80a83e10602082015260208152611e20565b610ae26040805167295b816ef78c48d0602082015260208152611e20565b610b0060408051679f58dc5660b9ab57602082015260208152611e20565b610b1e6040805167b929a804d83fedc2602082015260208152611e20565b610b3c60408051670a3ea398d7924824602082015260208152611e20565b610b4a60c4354211156120cb565b610b686040805167105cd13e26f6af0e602082015260208152611e20565b610b866040805167b7849ea121ea8949602082015260208152611e20565b610ba460408051672c40697afcb06829602082015260208152611e20565b610bc26040805167c06c8758ae0d93d8602082015260208152611e20565b6044351561120257610be86040805167b00c5d426f411734602082015260208152611e20565b610c066040805167e830169071e4aba1602082015260208152611e20565b610c246040805167d411d82a376e53db602082015260208152611e20565b6001600160a01b03811660005260016020526040806000206000906001600160a01b03861682526020522091610c6e6040805167f1eebb0426b59446602082015260208152611e20565b610c8c60408051670ade5442bc3a227f602082015260208152611e20565b610caa60408051672835760e77fca10d602082015260208152611e20565b6001600160a01b0333166000526001830160205260406000206044359054106111be57610ceb60408051676f7edbcb3509ae1f602082015260208152611e20565b610d096040805167ece9325b614fa5c8602082015260208152611e20565b610d276040805167750ec41051cebfc6602082015260208152611e20565b6001610d3560028501611e58565b93610d546040805167377a3650d3fec259602082015260208152611e20565b610d726040805167ccca18f3348ff82f602082015260208152611e20565b610f496001600160801b03610f22610ef5826020610dbd8b610db88954978892610dae604080516711b9a21a50880f4c89820152888152611e20565b5116604435611ed9565b611ef9565b9a610dda60408051673c5f76b55d09c1c885820152848152611e20565b610def86610db8858585015116604435611ed9565b608052610e0e604080516717c37b9711a884a985820152848152611e20565b610e2a60408051679ff138248c7e4a9085820152848152611e20565b610e46604080516789f5d55623a0bfaf85820152848152611e20565b6064358c1015806111b0575b610e5b90612142565b610e776040805167b73a58d095b5ed6d85820152848152611e20565b610e936040805167f7f97522572a66ea85820152848152611e20565b82610ea58d82808551169116906121ad565b166fffffffffffffffffffffffffffffffff1960028a015416176002890155610ee06040805167fb4f4d81d787cc7a85820152848152611e20565b0151166001600160801b0360805116906121ad565b60028501906001600160801b036fffffffffffffffffffffffffffffffff1983549260801b169116179055565b610f406040805167916563991f471866602082015260208152611e20565b604435906121cd565b8155610f696040805167e1a06fd1dcfada32602082015260208152611e20565b6001600160a01b033316600052016020526040600020610f8c60443582546121cd565b9055610fac6040805167f76500020224dd69602082015260208152611e20565b610fca60408051679cf6fb62fe4f1391602082015260208152611e20565b60405163a9059cbb60e01b81526001600160a01b0382166004820152602481018490526020818060448101038160006001600160a01b0388165af180156109135761108f956020926001600160a01b0392611195575b5061103d6040805167a5162c89b7c2299786820152858152611e20565b61105960408051677b0e07e2a51835fb86820152858152611e20565b16916040518096819263a9059cbb60e01b83526080519060048401602090939291936001600160a01b0360408201951681520152565b03816000855af193841561091357604094611178575b506110c38480516715576161349fd017602082015260208152611e20565b6110e0848051676b0d41bf659f1006602082015260208152611e20565b83516080518482526020820152604435604082015233926001600160a01b0316907fd765e08eef31c0983ecca03ecd166297ac485ecd5dd69e291c848f0a020333c190606090a461114482805167e681476d65d638f3602082015260208152611e20565b611161828051672353fc82cedd28ec602082015260208152611e20565b6111696122e3565b81519081526080516020820152f35b6111909060203d60201161090c576108ff8183611e20565b6110a5565b6111ab90843d861161090c576108ff8183611e20565b611020565b506080516084351115610e52565b606460405162461bcd60e51b815260206004820152600a60248201527f696e737566665f62616c000000000000000000000000000000000000000000006044820152fd5b606460405162461bcd60e51b815260206004820152600860248201527f7a65726f5f6c69710000000000000000000000000000000000000000000000006044820152fd5b346109cd5760403660031901126109cd5761125f611df4565b6001600160a01b0361126f611e0a565b9161128e60408051674e9dd48fa333a397602082015260208152611e20565b6112ac60408051670a8f55d47e97e96f602082015260208152611e20565b6112ca60408051671b550df0f1fb3669602082015260208152611e20565b1660005260016020526001600160a01b03604060002091166000526020526112f86002604060002001611e58565b61131660408051679ec6d1c85f1192c9602082015260208152611e20565b6113346040805167375b51fe2a6afa68602082015260208152611e20565b6113526040805167c3bc104516919126602082015260208152611e20565b6001600160801b0381511615158061144e575b1561140a5761138860408051677cbd13c5f9ba451f602082015260208152611e20565b6113a6604080516727b932524d190784602082015260208152611e20565b6001600160801b0381511690670de0b6b3a7640000820291808304670de0b6b3a764000014901517156113f4576020916001600160801b03836113ec9301511690611ef9565b604051908152f35b634e487b7160e01b600052601160045260246000fd5b606460405162461bcd60e51b815260206004820152600960248201527f7a65726f5f7265737600000000000000000000000000000000000000000000006044820152fd5b506001600160801b036020820151161515611365565b346109cd5760403660031901126109cd5761147d611df4565b6001600160a01b0361148d611e0a565b911660005260016020526001600160a01b0360406000209116600052602052606060406000206001600160801b0360206114cb600284549401611e58565b60405193845282815116828501520151166040820152f35b346109cd5760a03660031901126109cd5760443560043567ffffffffffffffff82116109cd57366023830112156109cd5781600401359067ffffffffffffffff82116109cd573660248360051b850101116109cd57606435926001600160a01b03841684036109cd5761156a60408051675a281e90a1a9afca602082015260208152611e20565b611588604080516783afaa55f05c6a4f602082015260208152611e20565b6115a66040805167557a8cfb7046c0cc602082015260208152611e20565b6115c46040805167b85e52de885e5fa8602082015260208152611e20565b6115cc6121da565b6115ea6040805167502e035aaf321de4602082015260208152611e20565b61160860408051670242486d7536d32b602082015260208152611e20565b61162660408051676f835b42bb796ccb602082015260208152611e20565b61164460408051679fd46f3ce2e0d2aa602082015260208152611e20565b611662604080516764b796f9cd13dced602082015260208152611e20565b6116806040805167d51fa784833b6a7c602082015260208152611e20565b61168e6084354211156120cb565b6116ac6040805167bf777c0f8e57ca01602082015260208152611e20565b6116ca6040805167311a23fd959aeb4d602082015260208152611e20565b6116e860408051671030281fdb4d92b7602082015260208152611e20565b611706604080516752a19aa7996d6bdf602082015260208152611e20565b60028303611d8c5761172c6040805167f00dc0b605febcc8602082015260208152611e20565b61174a604080516779230cc442c27854602082015260208152611e20565b611768604080516795db51ad79747099602082015260208152611e20565b61178660408051676263f6da351e7f20602082015260208152611e20565b611791821515611e8e565b6117af6040805167cb8bd4b79814bc49602082015260208152611e20565b6117cd60408051673434009662866f4b602082015260208152611e20565b6117eb604080516788219d4357b94a35602082015260208152611e20565b8215611d3c576117fd60248201612116565b9261181c60408051674617de4ce0b79a3f602082015260208152611e20565b61183a6040805167caab59f1c6e24307602082015260208152611e20565b60011015611d3c5761185660446001600160a01b039201612116565b9261187560408051672d4aeeb636faf5f8602082015260208152611e20565b61189360408051678c90fec96bf16366602082015260208152611e20565b169283600052600160205260406000206001600160a01b038416600052602052600260406000206118d86040805167ca6eab8c8c6df147602082015260208152611e20565b6118f66040805167b95291f5532962c1602082015260208152611e20565b019261190184611e58565b936119206040805167d54600ba499d0ad7602082015260208152611e20565b61193e6040805167a12411e9e4564f67602082015260208152611e20565b6040516323b872dd60e01b81523360048201523060248201526044810185905260208160648160008b5af1801561091357611d6f575b5060405160208101674807015ac0c6d70a905260208152604061199691611e20565b604051602081016710d3d5705e7b4d1890526020815260406119b791611e20565b84516001600160801b0316602086019081516001600160801b03166119dc9187611f19565b9560405160208101675888b8064b1d15e090526020815260406119fe91611e20565b6040516020810167f576b63b5552636e9052602081526040611a1f91611e20565b6040516020810167e4d1b061e7984f2f9052602081526040611a4091611e20565b611a4e602435881015612142565b60405160208101678c723bf6712488759052602081526040611a6f91611e20565b6040516020810167b69433d5d0a3ee259052602081526040611a9091611e20565b516001600160801b03166001600160801b038616611aad9161218d565b6001600160801b031682546fffffffffffffffffffffffffffffffff1916178255604051602081016727195b78cb6199c19052602081526040611aef91611e20565b516001600160801b03166001600160801b038616611b0c916121ad565b81546001600160801b031660809190911b6fffffffffffffffffffffffffffffffff191617905560405160208101679603e90096c706a49052602081526040611b5491611e20565b604051602081016799974626953099b09052602081526040611b7591611e20565b60405163a9059cbb60e01b81526001600160a01b0392831660048201526024810185905291169081816044815a602094600091f1801561091357611d52575b50611bd360408051672a14a6daa340fa56602082015260208152611e20565b60405193611be2606086611e20565b6002855260208501936040368637611c0e6040805167178b6831d6b87af7602082015260208152611e20565b855115611d3c57838552611c3660408051678c949ad74467c93f602082015260208152611e20565b855160011015611d3c578060408796970152611c666040805167c8d293ea701c6cbf602082015260208152611e20565b611c8460408051677fd9c0064763f058602082015260208152611e20565b60405193845260208401527fad56699d0f375866eb895ed27203058a36a713382aaded78eb6b67da266d433260403394a4611cd36040805167e681476d65d638f3602082015260208152611e20565b611cf160408051672353fc82cedd28ec602082015260208152611e20565b611cf96122e3565b6040519182916020830190602084525180915260408301919060005b818110611d23575050500390f35b8251845285945060209384019390920191600101611d15565b634e487b7160e01b600052603260045260246000fd5b611d6a9060203d60201161090c576108ff8183611e20565b611bb4565b611d879060203d60201161090c576108ff8183611e20565b611974565b606460405162461bcd60e51b815260206004820152600c60248201527f696e76616c69645f7061746800000000000000000000000000000000000000006044820152fd5b346109cd5760603660031901126109cd5760206113ec604435602435600435611f19565b600435906001600160a01b03821682036109cd57565b602435906001600160a01b03821682036109cd57565b90601f8019910116810190811067ffffffffffffffff821117611e4257604052565b634e487b7160e01b600052604160045260246000fd5b906040516040810181811067ffffffffffffffff821117611e425760405291546001600160801b038116835260801c6020830152565b15611e9557565b606460405162461bcd60e51b815260206004820152600a60248201527f7a65726f5f696e707574000000000000000000000000000000000000000000006044820152fd5b818102929181159184041417156113f457565b919082018092116113f457565b8115611f03570490565b634e487b7160e01b600052601260045260246000fd5b91611f3860408051673f1643a17e972209602082015260208152611e20565b611f5660408051671fad8b62bac15b7f602082015260208152611e20565b611f746040805167efb66768cc34f5f7602082015260208152611e20565b611f926040805167a5804c8cefe9cd96602082015260208152611e20565b611f9d831515611e8e565b611fbb6040805167b903d7d141483927602082015260208152611e20565b611fd860408051665d082b0dab3473602082015260208152611e20565b611ff660408051674bfe47ead1ac1e4c602082015260208152611e20565b612014604080516739b283281a91d2c4602082015260208152611e20565b811515806120c2575b1561207e5761207b9261206f6120759261204b6040805167801b7095f9935698602082015260208152611e20565b61206960408051673de013647af12f6a602082015260208152611e20565b82611ed9565b92611eec565b90611ef9565b90565b606460405162461bcd60e51b815260206004820152600860248201527f6261645f726573760000000000000000000000000000000000000000000000006044820152fd5b5080151561201d565b156120d257565b606460405162461bcd60e51b815260206004820152600760248201527f65787069726564000000000000000000000000000000000000000000000000006044820152fd5b356001600160a01b03811681036109cd5790565b908160209103126109cd575180151581036109cd5790565b1561214957565b606460405162461bcd60e51b815260206004820152600860248201527f736c6970706167650000000000000000000000000000000000000000000000006044820152fd5b906001600160801b03809116911601906001600160801b0382116113f457565b906001600160801b03809116911603906001600160801b0382116113f457565b919082039182116113f457565b6121f86040805167fa21c05df241ebf9602082015260208152611e20565b612216604080516713ec7a0a0eeb211d602082015260208152611e20565b61223460408051675b57bc21b08fc165602082015260208152611e20565b6122526040805167c61306ebb15246a4602082015260208152611e20565b60026000541461229f5761227a6040805167cb4fa8c0f1374899602082015260208152611e20565b61229860408051676bb191d015d91c70602082015260208152611e20565b6002600055565b606460405162461bcd60e51b815260206004820152601f60248201527f5265656e7472616e637947756172643a207265656e7472616e742063616c6c006044820152fd5b6123016040805167906f9f1ddf8ae111602082015260208152611e20565b61231f60408051671e9d5376e72f6ef8602082015260208152611e20565b600160005556fea26469706673582212208a76935f8f7d82151539d104d6d40193563b2912ea7afceae7da0026b420527264736f6c634300081c0033","opcodes":"PUSH1 0x80 DUP1 PUSH1 0x40 MSTORE CALLVALUE PUSH1 0x54 JUMPI PUSH1 0x40 DUP2 PUSH8 0xBC36AD00D6CD7A87 PUSH1 0x20 PUSH1 0x24 SWAP5 ADD MSTORE PUSH1 0x20 DUP2 MSTORE PUSH1 0x59 JUMP JUMPDEST PUSH1 0x40 PUSH1 0x40 DUP1 MLOAD PUSH8 0x17C69DE68426B70D PUSH1 0x20 DUP3 ADD MSTORE PUSH1 0x20 DUP2 MSTORE PUSH1 0x59 JUMP JUMPDEST PUSH1 0x1 PUSH1 0x0 SSTORE PUSH1 0x40 MLOAD PUSH2 0x235C SWAP1 DUP2 PUSH2 0x92 DUP3 CODECOPY RETURN JUMPDEST PUSH1 0x0 DUP1 REVERT JUMPDEST PUSH1 0x1F SWAP1 SWAP2 ADD PUSH1 0x1F NOT AND DUP2 ADD SWAP1 PUSH1 0x1 PUSH1 0x1 PUSH1 0x40 SHL SUB DUP3 GT SWAP1 DUP3 LT OR PUSH1 0x7B JUMPI PUSH1 0x40 MSTORE JUMP JUMPDEST PUSH4 0x4E487B71 PUSH1 0xE0 SHL PUSH1 0x0 MSTORE PUSH1 0x41 PUSH1 0x4 MSTORE PUSH1 0x24 PUSH1 0x0 REVERT INVALID PUSH1 0xA0 PUSH1 0x40 MSTORE PUSH1 0x4 CALLDATASIZE LT ISZERO PUSH2 0x12 JUMPI PUSH1 0x0 DUP1 REVERT JUMPDEST PUSH1 0x0 CALLDATALOAD PUSH1 0xE0 SHR DUP1 PUSH4 0x54D50D4 EQ PUSH2 0x1DD0 JUMPI DUP1 PUSH4 0x38ED1739 EQ PUSH2 0x14E3 JUMPI DUP1 PUSH4 0x69454B86 EQ PUSH2 0x1464 JUMPI DUP1 PUSH4 0xAC41865A EQ PUSH2 0x1246 JUMPI DUP1 PUSH4 0xBAA2ABDE EQ PUSH2 0x9D2 JUMPI PUSH4 0xE8E33700 EQ PUSH2 0x5E JUMPI PUSH1 0x0 DUP1 REVERT JUMPDEST CALLVALUE PUSH2 0x9CD JUMPI PUSH2 0x100 CALLDATASIZE PUSH1 0x3 NOT ADD SLT PUSH2 0x9CD JUMPI PUSH2 0x78 PUSH2 0x1DF4 JUMP JUMPDEST PUSH2 0x80 PUSH2 0x1E0A JUMP JUMPDEST SWAP1 PUSH1 0x44 CALLDATALOAD SWAP1 PUSH1 0x64 CALLDATALOAD SWAP1 PUSH1 0xC4 CALLDATALOAD SWAP4 PUSH1 0x1 PUSH1 0x1 PUSH1 0xA0 SHL SUB DUP6 AND DUP1 SWAP6 SUB PUSH2 0x9CD JUMPI PUSH1 0x1 PUSH1 0x1 PUSH1 0xA0 SHL SUB DUP1 SWAP2 PUSH2 0xC6 PUSH1 0x40 DUP1 MLOAD PUSH8 0x23BC91D41A02013A PUSH1 0x20 DUP3 ADD MSTORE PUSH1 0x20 DUP2 MSTORE PUSH2 0x1E20 JUMP JUMPDEST PUSH2 0xE4 PUSH1 0x40 DUP1 MLOAD PUSH8 0x83AFAA55F05C6A4F PUSH1 0x20 DUP3 ADD MSTORE PUSH1 0x20 DUP2 MSTORE PUSH2 0x1E20 JUMP JUMPDEST PUSH2 0x102 PUSH1 0x40 DUP1 MLOAD PUSH8 0x557A8CFB7046C0CC PUSH1 0x20 DUP3 ADD MSTORE PUSH1 0x20 DUP2 MSTORE PUSH2 0x1E20 JUMP JUMPDEST PUSH2 0x120 PUSH1 0x40 DUP1 MLOAD PUSH8 0xB85E52DE885E5FA8 PUSH1 0x20 DUP3 ADD MSTORE PUSH1 0x20 DUP2 MSTORE PUSH2 0x1E20 JUMP JUMPDEST PUSH2 0x128 PUSH2 0x21DA JUMP JUMPDEST PUSH2 0x146 PUSH1 0x40 DUP1 MLOAD PUSH8 0x502E035AAF321DE4 PUSH1 0x20 DUP3 ADD MSTORE PUSH1 0x20 DUP2 MSTORE PUSH2 0x1E20 JUMP JUMPDEST PUSH2 0x164 PUSH1 0x40 DUP1 MLOAD PUSH8 0x633D4A2A823D8A45 PUSH1 0x20 DUP3 ADD MSTORE PUSH1 0x20 DUP2 MSTORE PUSH2 0x1E20 JUMP JUMPDEST PUSH2 0x182 PUSH1 0x40 DUP1 MLOAD PUSH8 0x9116C454D16A0A0F PUSH1 0x20 DUP3 ADD MSTORE PUSH1 0x20 DUP2 MSTORE PUSH2 0x1E20 JUMP JUMPDEST PUSH2 0x1A0 PUSH1 0x40 DUP1 MLOAD PUSH8 0x8372299C806346DB PUSH1 0x20 DUP3 ADD MSTORE PUSH1 0x20 DUP2 MSTORE PUSH2 0x1E20 JUMP JUMPDEST PUSH2 0x1BE PUSH1 0x40 DUP1 MLOAD PUSH8 0xC43090EE4BFE3224 PUSH1 0x20 DUP3 ADD MSTORE PUSH1 0x20 DUP2 MSTORE PUSH2 0x1E20 JUMP JUMPDEST PUSH2 0x1DC PUSH1 0x40 DUP1 MLOAD PUSH8 0xE52F9BA555054C55 PUSH1 0x20 DUP3 ADD MSTORE PUSH1 0x20 DUP2 MSTORE PUSH2 0x1E20 JUMP JUMPDEST PUSH2 0x1EA PUSH1 0xE4 CALLDATALOAD TIMESTAMP GT ISZERO PUSH2 0x20CB JUMP JUMPDEST PUSH2 0x208 PUSH1 0x40 DUP1 MLOAD PUSH8 0x914C284B50ED81DB PUSH1 0x20 DUP3 ADD MSTORE PUSH1 0x20 DUP2 MSTORE PUSH2 0x1E20 JUMP JUMPDEST PUSH2 0x226 PUSH1 0x40 DUP1 MLOAD PUSH8 0xD78820161CA7A5E4 PUSH1 0x20 DUP3 ADD MSTORE PUSH1 0x20 DUP2 MSTORE PUSH2 0x1E20 JUMP JUMPDEST PUSH2 0x244 PUSH1 0x40 DUP1 MLOAD PUSH8 0xF16ACD54488F042E PUSH1 0x20 DUP3 ADD MSTORE PUSH1 0x20 DUP2 MSTORE PUSH2 0x1E20 JUMP JUMPDEST PUSH2 0x262 PUSH1 0x40 DUP1 MLOAD PUSH8 0x5D4BA97304E4F9EB PUSH1 0x20 DUP3 ADD MSTORE PUSH1 0x20 DUP2 MSTORE PUSH2 0x1E20 JUMP JUMPDEST AND SWAP2 AND SWAP4 DUP2 DUP6 EQ PUSH2 0x989 JUMPI PUSH2 0x28B PUSH1 0x40 DUP1 MLOAD PUSH8 0x3F8EE4FA56C1137A PUSH1 0x20 DUP3 ADD MSTORE PUSH1 0x20 DUP2 MSTORE PUSH2 0x1E20 JUMP JUMPDEST PUSH2 0x2A9 PUSH1 0x40 DUP1 MLOAD PUSH8 0x9A1E85F4E3EA27C4 PUSH1 0x20 DUP3 ADD MSTORE PUSH1 0x20 DUP2 MSTORE PUSH2 0x1E20 JUMP JUMPDEST PUSH2 0x2C7 PUSH1 0x40 DUP1 MLOAD PUSH8 0x47957F49F18EE842 PUSH1 0x20 DUP3 ADD MSTORE PUSH1 0x20 DUP2 MSTORE PUSH2 0x1E20 JUMP JUMPDEST PUSH2 0x2E5 PUSH1 0x40 DUP1 MLOAD PUSH8 0x1C094F206B8D4A34 PUSH1 0x20 DUP3 ADD MSTORE PUSH1 0x20 DUP2 MSTORE PUSH2 0x1E20 JUMP JUMPDEST DUP4 ISZERO ISZERO DUP1 PUSH2 0x980 JUMPI JUMPDEST ISZERO PUSH2 0x93C JUMPI PUSH2 0x311 PUSH1 0x40 DUP1 MLOAD PUSH8 0x2F460C0D127A1D9C PUSH1 0x20 DUP3 ADD MSTORE PUSH1 0x20 DUP2 MSTORE PUSH2 0x1E20 JUMP JUMPDEST PUSH2 0x32F PUSH1 0x40 DUP1 MLOAD PUSH8 0x279F6DCC17DD5FC PUSH1 0x20 DUP3 ADD MSTORE PUSH1 0x20 DUP2 MSTORE PUSH2 0x1E20 JUMP JUMPDEST PUSH2 0x34D PUSH1 0x40 DUP1 MLOAD PUSH8 0xEE36442575A0E465 PUSH1 0x20 DUP3 ADD MSTORE PUSH1 0x20 DUP2 MSTORE PUSH2 0x1E20 JUMP JUMPDEST PUSH1 0x40 MLOAD PUSH4 0x23B872DD PUSH1 0xE0 SHL DUP2 MSTORE CALLER PUSH1 0x4 DUP3 ADD MSTORE ADDRESS PUSH1 0x24 DUP3 ADD MSTORE PUSH1 0x44 DUP2 ADD DUP6 SWAP1 MSTORE PUSH1 0x20 DUP2 PUSH1 0x64 DUP2 PUSH1 0x0 DUP11 GAS CALL DUP1 ISZERO PUSH2 0x913 JUMPI PUSH2 0x91F JUMPI JUMPDEST POP PUSH2 0x3A2 PUSH1 0x40 DUP1 MLOAD PUSH8 0xA47FA3906C48945D PUSH1 0x20 DUP3 ADD MSTORE PUSH1 0x20 DUP2 MSTORE PUSH2 0x1E20 JUMP JUMPDEST PUSH2 0x3C0 PUSH1 0x40 DUP1 MLOAD PUSH8 0x192434B4303A282A PUSH1 0x20 DUP3 ADD MSTORE PUSH1 0x20 DUP2 MSTORE PUSH2 0x1E20 JUMP JUMPDEST PUSH1 0x40 MLOAD PUSH4 0x23B872DD PUSH1 0xE0 SHL DUP2 MSTORE CALLER PUSH1 0x4 DUP3 ADD MSTORE ADDRESS PUSH1 0x24 DUP3 ADD MSTORE PUSH1 0x44 DUP2 ADD DUP5 SWAP1 MSTORE SWAP2 PUSH1 0x20 DUP4 PUSH1 0x64 DUP2 PUSH1 0x0 DUP6 GAS CALL SWAP6 DUP7 ISZERO PUSH2 0x913 JUMPI PUSH1 0x1 PUSH2 0x79C SWAP6 DUP8 SWAP6 PUSH2 0x567 SWAP10 PUSH2 0x8E6 JUMPI JUMPDEST POP PUSH2 0x423 PUSH1 0x40 DUP1 MLOAD PUSH8 0x5076290DD98E526F PUSH1 0x20 DUP3 ADD MSTORE PUSH1 0x20 DUP2 MSTORE PUSH2 0x1E20 JUMP JUMPDEST PUSH2 0x441 PUSH1 0x40 DUP1 MLOAD PUSH8 0xFF2A353D561C761 PUSH1 0x20 DUP3 ADD MSTORE PUSH1 0x20 DUP2 MSTORE PUSH2 0x1E20 JUMP JUMPDEST DUP3 PUSH1 0x0 MSTORE DUP2 PUSH1 0x20 MSTORE PUSH2 0x662 PUSH2 0x635 PUSH1 0x1 PUSH1 0x1 PUSH1 0x80 SHL SUB PUSH1 0x20 PUSH1 0x40 DUP1 PUSH1 0x0 KECCAK256 PUSH1 0x0 SWAP1 DUP11 DUP3 MSTORE DUP4 MSTORE KECCAK256 SWAP5 PUSH2 0x485 PUSH1 0x40 DUP1 MLOAD PUSH8 0xB723FF646E70897 DUP6 DUP3 ADD MSTORE DUP5 DUP2 MSTORE PUSH2 0x1E20 JUMP JUMPDEST PUSH2 0x4A1 PUSH1 0x40 DUP1 MLOAD PUSH8 0xF4B86756DA1AF3A9 DUP6 DUP3 ADD MSTORE DUP5 DUP2 MSTORE PUSH2 0x1E20 JUMP JUMPDEST PUSH2 0x4AD PUSH1 0x2 DUP8 ADD PUSH2 0x1E58 JUMP JUMPDEST SWAP1 PUSH2 0x4CA PUSH1 0x40 DUP1 MLOAD PUSH8 0x51789F3A79F8738C DUP7 DUP3 ADD MSTORE DUP6 DUP2 MSTORE PUSH2 0x1E20 JUMP JUMPDEST PUSH2 0x4E6 PUSH1 0x40 DUP1 MLOAD PUSH8 0xADA87ED5B2FD2BC4 DUP7 DUP3 ADD MSTORE DUP6 DUP2 MSTORE PUSH2 0x1E20 JUMP JUMPDEST DUP4 DUP3 MLOAD AND ISZERO DUP1 ISZERO PUSH2 0x8AA JUMPI JUMPDEST DUP1 PUSH2 0x86F JUMPI JUMPDEST ISZERO PUSH2 0x84B JUMPI SWAP14 DUP15 JUMPDEST PUSH2 0x51C PUSH1 0x40 DUP1 MLOAD PUSH8 0x859053753F0E12EF DUP8 DUP3 ADD MSTORE DUP7 DUP2 MSTORE PUSH2 0x1E20 JUMP JUMPDEST PUSH2 0x538 PUSH1 0x40 DUP1 MLOAD PUSH8 0x98DD592F78F3331A DUP8 DUP3 ADD MSTORE DUP7 DUP2 MSTORE PUSH2 0x1E20 JUMP JUMPDEST PUSH2 0x554 PUSH1 0x40 DUP1 MLOAD PUSH8 0x2F3236D6EA06EE60 DUP8 DUP3 ADD MSTORE DUP7 DUP2 MSTORE PUSH2 0x1E20 JUMP JUMPDEST PUSH1 0x84 CALLDATALOAD DUP14 LT ISZERO SWAP1 DUP2 PUSH2 0x83E JUMPI JUMPDEST POP PUSH2 0x2142 JUMP JUMPDEST PUSH2 0x583 PUSH1 0x40 DUP1 MLOAD PUSH8 0xABDCF221A01B4B5B DUP6 DUP3 ADD MSTORE DUP5 DUP2 MSTORE PUSH2 0x1E20 JUMP JUMPDEST PUSH2 0x59F PUSH1 0x40 DUP1 MLOAD PUSH8 0x2614862CF3C28A9A DUP6 DUP3 ADD MSTORE DUP5 DUP2 MSTORE PUSH2 0x1E20 JUMP JUMPDEST DUP11 DUP4 DUP3 MLOAD AND ISZERO DUP1 ISZERO PUSH2 0x800 JUMPI JUMPDEST DUP1 PUSH2 0x7C3 JUMPI JUMPDEST ISZERO PUSH2 0x7A0 JUMPI PUSH2 0x5E7 DUP5 SWAP2 SWAP13 JUMPDEST PUSH2 0x5DA PUSH1 0x40 DUP1 MLOAD PUSH8 0xD136339ADD1E1301 DUP9 DUP3 ADD MSTORE DUP8 DUP2 MSTORE PUSH2 0x1E20 JUMP JUMPDEST DUP3 DUP1 DUP6 MLOAD AND SWAP2 AND SWAP1 PUSH2 0x218D JUMP JUMPDEST AND PUSH16 0xFFFFFFFFFFFFFFFFFFFFFFFFFFFFFFFF NOT PUSH1 0x2 DUP9 ADD SLOAD AND OR PUSH1 0x2 DUP8 ADD SSTORE PUSH2 0x622 PUSH1 0x40 DUP1 MLOAD PUSH8 0xBD67AA57FB87414A DUP6 DUP3 ADD MSTORE DUP5 DUP2 MSTORE PUSH2 0x1E20 JUMP JUMPDEST ADD MLOAD AND PUSH1 0x1 PUSH1 0x1 PUSH1 0x80 SHL SUB DUP13 AND SWAP1 PUSH2 0x218D JUMP JUMPDEST PUSH1 0x2 DUP4 ADD SWAP1 PUSH1 0x1 PUSH1 0x1 PUSH1 0x80 SHL SUB PUSH16 0xFFFFFFFFFFFFFFFFFFFFFFFFFFFFFFFF NOT DUP4 SLOAD SWAP3 PUSH1 0x80 SHL AND SWAP2 AND OR SWAP1 SSTORE JUMP JUMPDEST PUSH2 0x680 PUSH1 0x40 DUP1 MLOAD PUSH8 0x344E0700FF2FFE78 PUSH1 0x20 DUP3 ADD MSTORE PUSH1 0x20 DUP2 MSTORE PUSH2 0x1E20 JUMP JUMPDEST PUSH2 0x68B DUP7 DUP3 SLOAD PUSH2 0x1EEC JUMP JUMPDEST DUP2 SSTORE PUSH2 0x6AB PUSH1 0x40 DUP1 MLOAD PUSH8 0x7B3B8E1CB2DDCCE1 PUSH1 0x20 DUP3 ADD MSTORE PUSH1 0x20 DUP2 MSTORE PUSH2 0x1E20 JUMP JUMPDEST DUP5 PUSH1 0x0 MSTORE ADD PUSH1 0x20 MSTORE PUSH1 0x40 PUSH1 0x0 KECCAK256 PUSH2 0x6C3 DUP6 DUP3 SLOAD PUSH2 0x1EEC JUMP JUMPDEST SWAP1 SSTORE PUSH2 0x6E3 PUSH1 0x40 DUP1 MLOAD PUSH8 0x1EDCC6E4AF8BD490 PUSH1 0x20 DUP3 ADD MSTORE PUSH1 0x20 DUP2 MSTORE PUSH2 0x1E20 JUMP JUMPDEST PUSH2 0x701 PUSH1 0x40 DUP1 MLOAD PUSH8 0xA79E56BE70343264 PUSH1 0x20 DUP3 ADD MSTORE PUSH1 0x20 DUP2 MSTORE PUSH2 0x1E20 JUMP JUMPDEST PUSH1 0x40 DUP1 MLOAD DUP8 DUP2 MSTORE PUSH1 0x20 DUP2 ADD DUP10 SWAP1 MSTORE SWAP1 DUP2 ADD DUP6 SWAP1 MSTORE PUSH32 0x43C967B388D3A4CCAD3F7AB80167852E322E5A3FDE9893F530252281B2AE8B70 SWAP1 PUSH1 0x60 SWAP1 LOG4 PUSH2 0x759 PUSH1 0x40 DUP1 MLOAD PUSH8 0xE681476D65D638F3 PUSH1 0x20 DUP3 ADD MSTORE PUSH1 0x20 DUP2 MSTORE PUSH2 0x1E20 JUMP JUMPDEST PUSH2 0x777 PUSH1 0x40 DUP1 MLOAD PUSH8 0x2353FC82CEDD28EC PUSH1 0x20 DUP3 ADD MSTORE PUSH1 0x20 DUP2 MSTORE PUSH2 0x1E20 JUMP JUMPDEST PUSH2 0x77F PUSH2 0x22E3 JUMP JUMPDEST PUSH1 0x40 MLOAD SWAP4 DUP5 SWAP4 DUP5 PUSH1 0x40 SWAP2 SWAP5 SWAP4 SWAP3 PUSH1 0x60 DUP3 ADD SWAP6 DUP3 MSTORE PUSH1 0x20 DUP3 ADD MSTORE ADD MSTORE JUMP JUMPDEST SUB SWAP1 RETURN JUMPDEST PUSH2 0x5E7 PUSH2 0x7BD PUSH2 0x7B3 DUP7 SWAP4 DUP11 SLOAD SWAP1 PUSH2 0x1ED9 JUMP JUMPDEST DUP4 DUP6 MLOAD AND SWAP1 PUSH2 0x1EF9 JUMP JUMPDEST SWAP13 PUSH2 0x5BE JUMP JUMPDEST POP POP PUSH2 0x7F9 PUSH1 0x40 DUP1 MLOAD PUSH32 0xBFA2BC9092E4D89C000000000000000000000000000000000000000000000000 DUP6 DUP3 ADD MSTORE DUP5 DUP2 MSTORE PUSH2 0x1E20 JUMP JUMPDEST DUP11 DUP8 PUSH2 0x5B2 JUMP JUMPDEST POP POP PUSH2 0x836 PUSH1 0x40 DUP1 MLOAD PUSH32 0xDF3BD8CE40F50AA2000000000000000000000000000000000000000000000000 DUP6 DUP3 ADD MSTORE DUP5 DUP2 MSTORE PUSH2 0x1E20 JUMP JUMPDEST DUP11 PUSH1 0x0 PUSH2 0x5AC JUMP JUMPDEST SWAP1 POP PUSH1 0xA4 CALLDATALOAD GT ISZERO DUP16 PUSH2 0x561 JUMP JUMPDEST POP PUSH2 0x868 PUSH2 0x85E DUP5 DUP5 DUP5 ADD MLOAD AND DUP14 PUSH2 0x1ED9 JUMP JUMPDEST DUP5 DUP4 MLOAD AND SWAP1 PUSH2 0x1EF9 JUMP JUMPDEST SWAP14 DUP15 PUSH2 0x500 JUMP JUMPDEST POP PUSH2 0x8A4 PUSH1 0x40 DUP1 MLOAD PUSH32 0x2668290C5312CCDC000000000000000000000000000000000000000000000000 DUP7 DUP3 ADD MSTORE DUP6 DUP2 MSTORE PUSH2 0x1E20 JUMP JUMPDEST DUP8 PUSH2 0x4F8 JUMP JUMPDEST POP PUSH2 0x8DF PUSH1 0x40 DUP1 MLOAD PUSH32 0xC140F012E67899D6000000000000000000000000000000000000000000000000 DUP7 DUP3 ADD MSTORE DUP6 DUP2 MSTORE PUSH2 0x1E20 JUMP JUMPDEST PUSH1 0x0 PUSH2 0x4F2 JUMP JUMPDEST PUSH2 0x907 SWAP1 PUSH1 0x20 RETURNDATASIZE PUSH1 0x20 GT PUSH2 0x90C JUMPI JUMPDEST PUSH2 0x8FF DUP2 DUP4 PUSH2 0x1E20 JUMP JUMPDEST DUP2 ADD SWAP1 PUSH2 0x212A JUMP JUMPDEST PUSH2 0x404 JUMP JUMPDEST POP RETURNDATASIZE PUSH2 0x8F5 JUMP JUMPDEST PUSH1 0x40 MLOAD RETURNDATASIZE PUSH1 0x0 DUP3 RETURNDATACOPY RETURNDATASIZE SWAP1 REVERT JUMPDEST PUSH2 0x937 SWAP1 PUSH1 0x20 RETURNDATASIZE PUSH1 0x20 GT PUSH2 0x90C JUMPI PUSH2 0x8FF DUP2 DUP4 PUSH2 0x1E20 JUMP JUMPDEST PUSH2 0x383 JUMP JUMPDEST PUSH1 0x64 PUSH1 0x40 MLOAD PUSH3 0x461BCD PUSH1 0xE5 SHL DUP2 MSTORE PUSH1 0x20 PUSH1 0x4 DUP3 ADD MSTORE PUSH1 0xB PUSH1 0x24 DUP3 ADD MSTORE PUSH32 0x696E76616C69645F616D74000000000000000000000000000000000000000000 PUSH1 0x44 DUP3 ADD MSTORE REVERT JUMPDEST POP DUP3 ISZERO ISZERO PUSH2 0x2EE JUMP JUMPDEST PUSH1 0x64 PUSH1 0x40 MLOAD PUSH3 0x461BCD PUSH1 0xE5 SHL DUP2 MSTORE PUSH1 0x20 PUSH1 0x4 DUP3 ADD MSTORE PUSH1 0x9 PUSH1 0x24 DUP3 ADD MSTORE PUSH32 0x6964656E746963616C0000000000000000000000000000000000000000000000 PUSH1 0x44 DUP3 ADD MSTORE REVERT JUMPDEST PUSH1 0x0 DUP1 REVERT JUMPDEST CALLVALUE PUSH2 0x9CD JUMPI PUSH1 0xE0 CALLDATASIZE PUSH1 0x3 NOT ADD SLT PUSH2 0x9CD JUMPI PUSH2 0x9EB PUSH2 0x1DF4 JUMP JUMPDEST PUSH2 0x9F3 PUSH2 0x1E0A JUMP JUMPDEST SWAP1 PUSH1 0xA4 CALLDATALOAD SWAP1 PUSH1 0x1 PUSH1 0x1 PUSH1 0xA0 SHL SUB DUP3 AND DUP3 SUB PUSH2 0x9CD JUMPI PUSH2 0xA26 PUSH1 0x40 DUP1 MLOAD PUSH8 0xB25D79B6F26F73BB PUSH1 0x20 DUP3 ADD MSTORE PUSH1 0x20 DUP2 MSTORE PUSH2 0x1E20 JUMP JUMPDEST PUSH2 0xA44 PUSH1 0x40 DUP1 MLOAD PUSH8 0x83AFAA55F05C6A4F PUSH1 0x20 DUP3 ADD MSTORE PUSH1 0x20 DUP2 MSTORE PUSH2 0x1E20 JUMP JUMPDEST PUSH2 0xA62 PUSH1 0x40 DUP1 MLOAD PUSH8 0x557A8CFB7046C0CC PUSH1 0x20 DUP3 ADD MSTORE PUSH1 0x20 DUP2 MSTORE PUSH2 0x1E20 JUMP JUMPDEST PUSH2 0xA80 PUSH1 0x40 DUP1 MLOAD PUSH8 0xB85E52DE885E5FA8 PUSH1 0x20 DUP3 ADD MSTORE PUSH1 0x20 DUP2 MSTORE PUSH2 0x1E20 JUMP JUMPDEST PUSH2 0xA88 PUSH2 0x21DA JUMP JUMPDEST PUSH2 0xAA6 PUSH1 0x40 DUP1 MLOAD PUSH8 0x502E035AAF321DE4 PUSH1 0x20 DUP3 ADD MSTORE PUSH1 0x20 DUP2 MSTORE PUSH2 0x1E20 JUMP JUMPDEST PUSH2 0xAC4 PUSH1 0x40 DUP1 MLOAD PUSH8 0x84993E0B80A83E10 PUSH1 0x20 DUP3 ADD MSTORE PUSH1 0x20 DUP2 MSTORE PUSH2 0x1E20 JUMP JUMPDEST PUSH2 0xAE2 PUSH1 0x40 DUP1 MLOAD PUSH8 0x295B816EF78C48D0 PUSH1 0x20 DUP3 ADD MSTORE PUSH1 0x20 DUP2 MSTORE PUSH2 0x1E20 JUMP JUMPDEST PUSH2 0xB00 PUSH1 0x40 DUP1 MLOAD PUSH8 0x9F58DC5660B9AB57 PUSH1 0x20 DUP3 ADD MSTORE PUSH1 0x20 DUP2 MSTORE PUSH2 0x1E20 JUMP JUMPDEST PUSH2 0xB1E PUSH1 0x40 DUP1 MLOAD PUSH8 0xB929A804D83FEDC2 PUSH1 0x20 DUP3 ADD MSTORE PUSH1 0x20 DUP2 MSTORE PUSH2 0x1E20 JUMP JUMPDEST PUSH2 0xB3C PUSH1 0x40 DUP1 MLOAD PUSH8 0xA3EA398D7924824 PUSH1 0x20 DUP3 ADD MSTORE PUSH1 0x20 DUP2 MSTORE PUSH2 0x1E20 JUMP JUMPDEST PUSH2 0xB4A PUSH1 0xC4 CALLDATALOAD TIMESTAMP GT ISZERO PUSH2 0x20CB JUMP JUMPDEST PUSH2 0xB68 PUSH1 0x40 DUP1 MLOAD PUSH8 0x105CD13E26F6AF0E PUSH1 0x20 DUP3 ADD MSTORE PUSH1 0x20 DUP2 MSTORE PUSH2 0x1E20 JUMP JUMPDEST PUSH2 0xB86 PUSH1 0x40 DUP1 MLOAD PUSH8 0xB7849EA121EA8949 PUSH1 0x20 DUP3 ADD MSTORE PUSH1 0x20 DUP2 MSTORE PUSH2 0x1E20 JUMP JUMPDEST PUSH2 0xBA4 PUSH1 0x40 DUP1 MLOAD PUSH8 0x2C40697AFCB06829 PUSH1 0x20 DUP3 ADD MSTORE PUSH1 0x20 DUP2 MSTORE PUSH2 0x1E20 JUMP JUMPDEST PUSH2 0xBC2 PUSH1 0x40 DUP1 MLOAD PUSH8 0xC06C8758AE0D93D8 PUSH1 0x20 DUP3 ADD MSTORE PUSH1 0x20 DUP2 MSTORE PUSH2 0x1E20 JUMP JUMPDEST PUSH1 0x44 CALLDATALOAD ISZERO PUSH2 0x1202 JUMPI PUSH2 0xBE8 PUSH1 0x40 DUP1 MLOAD PUSH8 0xB00C5D426F411734 PUSH1 0x20 DUP3 ADD MSTORE PUSH1 0x20 DUP2 MSTORE PUSH2 0x1E20 JUMP JUMPDEST PUSH2 0xC06 PUSH1 0x40 DUP1 MLOAD PUSH8 0xE830169071E4ABA1 PUSH1 0x20 DUP3 ADD MSTORE PUSH1 0x20 DUP2 MSTORE PUSH2 0x1E20 JUMP JUMPDEST PUSH2 0xC24 PUSH1 0x40 DUP1 MLOAD PUSH8 0xD411D82A376E53DB PUSH1 0x20 DUP3 ADD MSTORE PUSH1 0x20 DUP2 MSTORE PUSH2 0x1E20 JUMP JUMPDEST PUSH1 0x1 PUSH1 0x1 PUSH1 0xA0 SHL SUB DUP2 AND PUSH1 0x0 MSTORE PUSH1 0x1 PUSH1 0x20 MSTORE PUSH1 0x40 DUP1 PUSH1 0x0 KECCAK256 PUSH1 0x0 SWAP1 PUSH1 0x1 PUSH1 0x1 PUSH1 0xA0 SHL SUB DUP7 AND DUP3 MSTORE PUSH1 0x20 MSTORE KECCAK256 SWAP2 PUSH2 0xC6E PUSH1 0x40 DUP1 MLOAD PUSH8 0xF1EEBB0426B59446 PUSH1 0x20 DUP3 ADD MSTORE PUSH1 0x20 DUP2 MSTORE PUSH2 0x1E20 JUMP JUMPDEST PUSH2 0xC8C PUSH1 0x40 DUP1 MLOAD PUSH8 0xADE5442BC3A227F PUSH1 0x20 DUP3 ADD MSTORE PUSH1 0x20 DUP2 MSTORE PUSH2 0x1E20 JUMP JUMPDEST PUSH2 0xCAA PUSH1 0x40 DUP1 MLOAD PUSH8 0x2835760E77FCA10D PUSH1 0x20 DUP3 ADD MSTORE PUSH1 0x20 DUP2 MSTORE PUSH2 0x1E20 JUMP JUMPDEST PUSH1 0x1 PUSH1 0x1 PUSH1 0xA0 SHL SUB CALLER AND PUSH1 0x0 MSTORE PUSH1 0x1 DUP4 ADD PUSH1 0x20 MSTORE PUSH1 0x40 PUSH1 0x0 KECCAK256 PUSH1 0x44 CALLDATALOAD SWAP1 SLOAD LT PUSH2 0x11BE JUMPI PUSH2 0xCEB PUSH1 0x40 DUP1 MLOAD PUSH8 0x6F7EDBCB3509AE1F PUSH1 0x20 DUP3 ADD MSTORE PUSH1 0x20 DUP2 MSTORE PUSH2 0x1E20 JUMP JUMPDEST PUSH2 0xD09 PUSH1 0x40 DUP1 MLOAD PUSH8 0xECE9325B614FA5C8 PUSH1 0x20 DUP3 ADD MSTORE PUSH1 0x20 DUP2 MSTORE PUSH2 0x1E20 JUMP JUMPDEST PUSH2 0xD27 PUSH1 0x40 DUP1 MLOAD PUSH8 0x750EC41051CEBFC6 PUSH1 0x20 DUP3 ADD MSTORE PUSH1 0x20 DUP2 MSTORE PUSH2 0x1E20 JUMP JUMPDEST PUSH1 0x1 PUSH2 0xD35 PUSH1 0x2 DUP6 ADD PUSH2 0x1E58 JUMP JUMPDEST SWAP4 PUSH2 0xD54 PUSH1 0x40 DUP1 MLOAD PUSH8 0x377A3650D3FEC259 PUSH1 0x20 DUP3 ADD MSTORE PUSH1 0x20 DUP2 MSTORE PUSH2 0x1E20 JUMP JUMPDEST PUSH2 0xD72 PUSH1 0x40 DUP1 MLOAD PUSH8 0xCCCA18F3348FF82F PUSH1 0x20 DUP3 ADD MSTORE PUSH1 0x20 DUP2 MSTORE PUSH2 0x1E20 JUMP JUMPDEST PUSH2 0xF49 PUSH1 0x1 PUSH1 0x1 PUSH1 0x80 SHL SUB PUSH2 0xF22 PUSH2 0xEF5 DUP3 PUSH1 0x20 PUSH2 0xDBD DUP12 PUSH2 0xDB8 DUP10 SLOAD SWAP8 DUP9 SWAP3 PUSH2 0xDAE PUSH1 0x40 DUP1 MLOAD PUSH8 0x11B9A21A50880F4C DUP10 DUP3 ADD MSTORE DUP9 DUP2 MSTORE PUSH2 0x1E20 JUMP JUMPDEST MLOAD AND PUSH1 0x44 CALLDATALOAD PUSH2 0x1ED9 JUMP JUMPDEST PUSH2 0x1EF9 JUMP JUMPDEST SWAP11 PUSH2 0xDDA PUSH1 0x40 DUP1 MLOAD PUSH8 0x3C5F76B55D09C1C8 DUP6 DUP3 ADD MSTORE DUP5 DUP2 MSTORE PUSH2 0x1E20 JUMP JUMPDEST PUSH2 0xDEF DUP7 PUSH2 0xDB8 DUP6 DUP6 DUP6 ADD MLOAD AND PUSH1 0x44 CALLDATALOAD PUSH2 0x1ED9 JUMP JUMPDEST PUSH1 0x80 MSTORE PUSH2 0xE0E PUSH1 0x40 DUP1 MLOAD PUSH8 0x17C37B9711A884A9 DUP6 DUP3 ADD MSTORE DUP5 DUP2 MSTORE PUSH2 0x1E20 JUMP JUMPDEST PUSH2 0xE2A PUSH1 0x40 DUP1 MLOAD PUSH8 0x9FF138248C7E4A90 DUP6 DUP3 ADD MSTORE DUP5 DUP2 MSTORE PUSH2 0x1E20 JUMP JUMPDEST PUSH2 0xE46 PUSH1 0x40 DUP1 MLOAD PUSH8 0x89F5D55623A0BFAF DUP6 DUP3 ADD MSTORE DUP5 DUP2 MSTORE PUSH2 0x1E20 JUMP JUMPDEST PUSH1 0x64 CALLDATALOAD DUP13 LT ISZERO DUP1 PUSH2 0x11B0 JUMPI JUMPDEST PUSH2 0xE5B SWAP1 PUSH2 0x2142 JUMP JUMPDEST PUSH2 0xE77 PUSH1 0x40 DUP1 MLOAD PUSH8 0xB73A58D095B5ED6D DUP6 DUP3 ADD MSTORE DUP5 DUP2 MSTORE PUSH2 0x1E20 JUMP JUMPDEST PUSH2 0xE93 PUSH1 0x40 DUP1 MLOAD PUSH8 0xF7F97522572A66EA DUP6 DUP3 ADD MSTORE DUP5 DUP2 MSTORE PUSH2 0x1E20 JUMP JUMPDEST DUP3 PUSH2 0xEA5 DUP14 DUP3 DUP1 DUP6 MLOAD AND SWAP2 AND SWAP1 PUSH2 0x21AD JUMP JUMPDEST AND PUSH16 0xFFFFFFFFFFFFFFFFFFFFFFFFFFFFFFFF NOT PUSH1 0x2 DUP11 ADD SLOAD AND OR PUSH1 0x2 DUP10 ADD SSTORE PUSH2 0xEE0 PUSH1 0x40 DUP1 MLOAD PUSH8 0xFB4F4D81D787CC7A DUP6 DUP3 ADD MSTORE DUP5 DUP2 MSTORE PUSH2 0x1E20 JUMP JUMPDEST ADD MLOAD AND PUSH1 0x1 PUSH1 0x1 PUSH1 0x80 SHL SUB PUSH1 0x80 MLOAD AND SWAP1 PUSH2 0x21AD JUMP JUMPDEST PUSH1 0x2 DUP6 ADD SWAP1 PUSH1 0x1 PUSH1 0x1 PUSH1 0x80 SHL SUB PUSH16 0xFFFFFFFFFFFFFFFFFFFFFFFFFFFFFFFF NOT DUP4 SLOAD SWAP3 PUSH1 0x80 SHL AND SWAP2 AND OR SWAP1 SSTORE JUMP JUMPDEST PUSH2 0xF40 PUSH1 0x40 DUP1 MLOAD PUSH8 0x916563991F471866 PUSH1 0x20 DUP3 ADD MSTORE PUSH1 0x20 DUP2 MSTORE PUSH2 0x1E20 JUMP JUMPDEST PUSH1 0x44 CALLDATALOAD SWAP1 PUSH2 0x21CD JUMP JUMPDEST DUP2 SSTORE PUSH2 0xF69 PUSH1 0x40 DUP1 MLOAD PUSH8 0xE1A06FD1DCFADA32 PUSH1 0x20 DUP3 ADD MSTORE PUSH1 0x20 DUP2 MSTORE PUSH2 0x1E20 JUMP JUMPDEST PUSH1 0x1 PUSH1 0x1 PUSH1 0xA0 SHL SUB CALLER AND PUSH1 0x0 MSTORE ADD PUSH1 0x20 MSTORE PUSH1 0x40 PUSH1 0x0 KECCAK256 PUSH2 0xF8C PUSH1 0x44 CALLDATALOAD DUP3 SLOAD PUSH2 0x21CD JUMP JUMPDEST SWAP1 SSTORE PUSH2 0xFAC PUSH1 0x40 DUP1 MLOAD PUSH8 0xF76500020224DD69 PUSH1 0x20 DUP3 ADD MSTORE PUSH1 0x20 DUP2 MSTORE PUSH2 0x1E20 JUMP JUMPDEST PUSH2 0xFCA PUSH1 0x40 DUP1 MLOAD PUSH8 0x9CF6FB62FE4F1391 PUSH1 0x20 DUP3 ADD MSTORE PUSH1 0x20 DUP2 MSTORE PUSH2 0x1E20 JUMP JUMPDEST PUSH1 0x40 MLOAD PUSH4 0xA9059CBB PUSH1 0xE0 SHL DUP2 MSTORE PUSH1 0x1 PUSH1 0x1 PUSH1 0xA0 SHL SUB DUP3 AND PUSH1 0x4 DUP3 ADD MSTORE PUSH1 0x24 DUP2 ADD DUP5 SWAP1 MSTORE PUSH1 0x20 DUP2 DUP1 PUSH1 0x44 DUP2 ADD SUB DUP2 PUSH1 0x0 PUSH1 0x1 PUSH1 0x1 PUSH1 0xA0 SHL SUB DUP9 AND GAS CALL DUP1 ISZERO PUSH2 0x913 JUMPI PUSH2 0x108F SWAP6 PUSH1 0x20 SWAP3 PUSH1 0x1 PUSH1 0x1 PUSH1 0xA0 SHL SUB SWAP3 PUSH2 0x1195 JUMPI JUMPDEST POP PUSH2 0x103D PUSH1 0x40 DUP1 MLOAD PUSH8 0xA5162C89B7C22997 DUP7 DUP3 ADD MSTORE DUP6 DUP2 MSTORE PUSH2 0x1E20 JUMP JUMPDEST PUSH2 0x1059 PUSH1 0x40 DUP1 MLOAD PUSH8 0x7B0E07E2A51835FB DUP7 DUP3 ADD MSTORE DUP6 DUP2 MSTORE PUSH2 0x1E20 JUMP JUMPDEST AND SWAP2 PUSH1 0x40 MLOAD DUP1 SWAP7 DUP2 SWAP3 PUSH4 0xA9059CBB PUSH1 0xE0 SHL DUP4 MSTORE PUSH1 0x80 MLOAD SWAP1 PUSH1 0x4 DUP5 ADD PUSH1 0x20 SWAP1 SWAP4 SWAP3 SWAP2 SWAP4 PUSH1 0x1 PUSH1 0x1 PUSH1 0xA0 SHL SUB PUSH1 0x40 DUP3 ADD SWAP6 AND DUP2 MSTORE ADD MSTORE JUMP JUMPDEST SUB DUP2 PUSH1 0x0 DUP6 GAS CALL SWAP4 DUP5 ISZERO PUSH2 0x913 JUMPI PUSH1 0x40 SWAP5 PUSH2 0x1178 JUMPI JUMPDEST POP PUSH2 0x10C3 DUP5 DUP1 MLOAD PUSH8 0x15576161349FD017 PUSH1 0x20 DUP3 ADD MSTORE PUSH1 0x20 DUP2 MSTORE PUSH2 0x1E20 JUMP JUMPDEST PUSH2 0x10E0 DUP5 DUP1 MLOAD PUSH8 0x6B0D41BF659F1006 PUSH1 0x20 DUP3 ADD MSTORE PUSH1 0x20 DUP2 MSTORE PUSH2 0x1E20 JUMP JUMPDEST DUP4 MLOAD PUSH1 0x80 MLOAD DUP5 DUP3 MSTORE PUSH1 0x20 DUP3 ADD MSTORE PUSH1 0x44 CALLDATALOAD PUSH1 0x40 DUP3 ADD MSTORE CALLER SWAP3 PUSH1 0x1 PUSH1 0x1 PUSH1 0xA0 SHL SUB AND SWAP1 PUSH32 0xD765E08EEF31C0983ECCA03ECD166297AC485ECD5DD69E291C848F0A020333C1 SWAP1 PUSH1 0x60 SWAP1 LOG4 PUSH2 0x1144 DUP3 DUP1 MLOAD PUSH8 0xE681476D65D638F3 PUSH1 0x20 DUP3 ADD MSTORE PUSH1 0x20 DUP2 MSTORE PUSH2 0x1E20 JUMP JUMPDEST PUSH2 0x1161 DUP3 DUP1 MLOAD PUSH8 0x2353FC82CEDD28EC PUSH1 0x20 DUP3 ADD MSTORE PUSH1 0x20 DUP2 MSTORE PUSH2 0x1E20 JUMP JUMPDEST PUSH2 0x1169 PUSH2 0x22E3 JUMP JUMPDEST DUP2 MLOAD SWAP1 DUP2 MSTORE PUSH1 0x80 MLOAD PUSH1 0x20 DUP3 ADD MSTORE RETURN JUMPDEST PUSH2 0x1190 SWAP1 PUSH1 0x20 RETURNDATASIZE PUSH1 0x20 GT PUSH2 0x90C JUMPI PUSH2 0x8FF DUP2 DUP4 PUSH2 0x1E20 JUMP JUMPDEST PUSH2 0x10A5 JUMP JUMPDEST PUSH2 0x11AB SWAP1 DUP5 RETURNDATASIZE DUP7 GT PUSH2 0x90C JUMPI PUSH2 0x8FF DUP2 DUP4 PUSH2 0x1E20 JUMP JUMPDEST PUSH2 0x1020 JUMP JUMPDEST POP PUSH1 0x80 MLOAD PUSH1 0x84 CALLDATALOAD GT ISZERO PUSH2 0xE52 JUMP JUMPDEST PUSH1 0x64 PUSH1 0x40 MLOAD PUSH3 0x461BCD PUSH1 0xE5 SHL DUP2 MSTORE PUSH1 0x20 PUSH1 0x4 DUP3 ADD MSTORE PUSH1 0xA PUSH1 0x24 DUP3 ADD MSTORE PUSH32 0x696E737566665F62616C00000000000000000000000000000000000000000000 PUSH1 0x44 DUP3 ADD MSTORE REVERT JUMPDEST PUSH1 0x64 PUSH1 0x40 MLOAD PUSH3 0x461BCD PUSH1 0xE5 SHL DUP2 MSTORE PUSH1 0x20 PUSH1 0x4 DUP3 ADD MSTORE PUSH1 0x8 PUSH1 0x24 DUP3 ADD MSTORE PUSH32 0x7A65726F5F6C6971000000000000000000000000000000000000000000000000 PUSH1 0x44 DUP3 ADD MSTORE REVERT JUMPDEST CALLVALUE PUSH2 0x9CD JUMPI PUSH1 0x40 CALLDATASIZE PUSH1 0x3 NOT ADD SLT PUSH2 0x9CD JUMPI PUSH2 0x125F PUSH2 0x1DF4 JUMP JUMPDEST PUSH1 0x1 PUSH1 0x1 PUSH1 0xA0 SHL SUB PUSH2 0x126F PUSH2 0x1E0A JUMP JUMPDEST SWAP2 PUSH2 0x128E PUSH1 0x40 DUP1 MLOAD PUSH8 0x4E9DD48FA333A397 PUSH1 0x20 DUP3 ADD MSTORE PUSH1 0x20 DUP2 MSTORE PUSH2 0x1E20 JUMP JUMPDEST PUSH2 0x12AC PUSH1 0x40 DUP1 MLOAD PUSH8 0xA8F55D47E97E96F PUSH1 0x20 DUP3 ADD MSTORE PUSH1 0x20 DUP2 MSTORE PUSH2 0x1E20 JUMP JUMPDEST PUSH2 0x12CA PUSH1 0x40 DUP1 MLOAD PUSH8 0x1B550DF0F1FB3669 PUSH1 0x20 DUP3 ADD MSTORE PUSH1 0x20 DUP2 MSTORE PUSH2 0x1E20 JUMP JUMPDEST AND PUSH1 0x0 MSTORE PUSH1 0x1 PUSH1 0x20 MSTORE PUSH1 0x1 PUSH1 0x1 PUSH1 0xA0 SHL SUB PUSH1 0x40 PUSH1 0x0 KECCAK256 SWAP2 AND PUSH1 0x0 MSTORE PUSH1 0x20 MSTORE PUSH2 0x12F8 PUSH1 0x2 PUSH1 0x40 PUSH1 0x0 KECCAK256 ADD PUSH2 0x1E58 JUMP JUMPDEST PUSH2 0x1316 PUSH1 0x40 DUP1 MLOAD PUSH8 0x9EC6D1C85F1192C9 PUSH1 0x20 DUP3 ADD MSTORE PUSH1 0x20 DUP2 MSTORE PUSH2 0x1E20 JUMP JUMPDEST PUSH2 0x1334 PUSH1 0x40 DUP1 MLOAD PUSH8 0x375B51FE2A6AFA68 PUSH1 0x20 DUP3 ADD MSTORE PUSH1 0x20 DUP2 MSTORE PUSH2 0x1E20 JUMP JUMPDEST PUSH2 0x1352 PUSH1 0x40 DUP1 MLOAD PUSH8 0xC3BC104516919126 PUSH1 0x20 DUP3 ADD MSTORE PUSH1 0x20 DUP2 MSTORE PUSH2 0x1E20 JUMP JUMPDEST PUSH1 0x1 PUSH1 0x1 PUSH1 0x80 SHL SUB DUP2 MLOAD AND ISZERO ISZERO DUP1 PUSH2 0x144E JUMPI JUMPDEST ISZERO PUSH2 0x140A JUMPI PUSH2 0x1388 PUSH1 0x40 DUP1 MLOAD PUSH8 0x7CBD13C5F9BA451F PUSH1 0x20 DUP3 ADD MSTORE PUSH1 0x20 DUP2 MSTORE PUSH2 0x1E20 JUMP JUMPDEST PUSH2 0x13A6 PUSH1 0x40 DUP1 MLOAD PUSH8 0x27B932524D190784 PUSH1 0x20 DUP3 ADD MSTORE PUSH1 0x20 DUP2 MSTORE PUSH2 0x1E20 JUMP JUMPDEST PUSH1 0x1 PUSH1 0x1 PUSH1 0x80 SHL SUB DUP2 MLOAD AND SWAP1 PUSH8 0xDE0B6B3A7640000 DUP3 MUL SWAP2 DUP1 DUP4 DIV PUSH8 0xDE0B6B3A7640000 EQ SWAP1 ISZERO OR ISZERO PUSH2 0x13F4 JUMPI PUSH1 0x20 SWAP2 PUSH1 0x1 PUSH1 0x1 PUSH1 0x80 SHL SUB DUP4 PUSH2 0x13EC SWAP4 ADD MLOAD AND SWAP1 PUSH2 0x1EF9 JUMP JUMPDEST PUSH1 0x40 MLOAD SWAP1 DUP2 MSTORE RETURN JUMPDEST PUSH4 0x4E487B71 PUSH1 0xE0 SHL PUSH1 0x0 MSTORE PUSH1 0x11 PUSH1 0x4 MSTORE PUSH1 0x24 PUSH1 0x0 REVERT JUMPDEST PUSH1 0x64 PUSH1 0x40 MLOAD PUSH3 0x461BCD PUSH1 0xE5 SHL DUP2 MSTORE PUSH1 0x20 PUSH1 0x4 DUP3 ADD MSTORE PUSH1 0x9 PUSH1 0x24 DUP3 ADD MSTORE PUSH32 0x7A65726F5F726573760000000000000000000000000000000000000000000000 PUSH1 0x44 DUP3 ADD MSTORE REVERT JUMPDEST POP PUSH1 0x1 PUSH1 0x1 PUSH1 0x80 SHL SUB PUSH1 0x20 DUP3 ADD MLOAD AND ISZERO ISZERO PUSH2 0x1365 JUMP JUMPDEST CALLVALUE PUSH2 0x9CD JUMPI PUSH1 0x40 CALLDATASIZE PUSH1 0x3 NOT ADD SLT PUSH2 0x9CD JUMPI PUSH2 0x147D PUSH2 0x1DF4 JUMP JUMPDEST PUSH1 0x1 PUSH1 0x1 PUSH1 0xA0 SHL SUB PUSH2 0x148D PUSH2 0x1E0A JUMP JUMPDEST SWAP2 AND PUSH1 0x0 MSTORE PUSH1 0x1 PUSH1 0x20 MSTORE PUSH1 0x1 PUSH1 0x1 PUSH1 0xA0 SHL SUB PUSH1 0x40 PUSH1 0x0 KECCAK256 SWAP2 AND PUSH1 0x0 MSTORE PUSH1 0x20 MSTORE PUSH1 0x60 PUSH1 0x40 PUSH1 0x0 KECCAK256 PUSH1 0x1 PUSH1 0x1 PUSH1 0x80 SHL SUB PUSH1 0x20 PUSH2 0x14CB PUSH1 0x2 DUP5 SLOAD SWAP5 ADD PUSH2 0x1E58 JUMP JUMPDEST PUSH1 0x40 MLOAD SWAP4 DUP5 MSTORE DUP3 DUP2 MLOAD AND DUP3 DUP6 ADD MSTORE ADD MLOAD AND PUSH1 0x40 DUP3 ADD MSTORE RETURN JUMPDEST CALLVALUE PUSH2 0x9CD JUMPI PUSH1 0xA0 CALLDATASIZE PUSH1 0x3 NOT ADD SLT PUSH2 0x9CD JUMPI PUSH1 0x44 CALLDATALOAD PUSH1 0x4 CALLDATALOAD PUSH8 0xFFFFFFFFFFFFFFFF DUP3 GT PUSH2 0x9CD JUMPI CALLDATASIZE PUSH1 0x23 DUP4 ADD SLT ISZERO PUSH2 0x9CD JUMPI DUP2 PUSH1 0x4 ADD CALLDATALOAD SWAP1 PUSH8 0xFFFFFFFFFFFFFFFF DUP3 GT PUSH2 0x9CD JUMPI CALLDATASIZE PUSH1 0x24 DUP4 PUSH1 0x5 SHL DUP6 ADD ADD GT PUSH2 0x9CD JUMPI PUSH1 0x64 CALLDATALOAD SWAP3 PUSH1 0x1 PUSH1 0x1 PUSH1 0xA0 SHL SUB DUP5 AND DUP5 SUB PUSH2 0x9CD JUMPI PUSH2 0x156A PUSH1 0x40 DUP1 MLOAD PUSH8 0x5A281E90A1A9AFCA PUSH1 0x20 DUP3 ADD MSTORE PUSH1 0x20 DUP2 MSTORE PUSH2 0x1E20 JUMP JUMPDEST PUSH2 0x1588 PUSH1 0x40 DUP1 MLOAD PUSH8 0x83AFAA55F05C6A4F PUSH1 0x20 DUP3 ADD MSTORE PUSH1 0x20 DUP2 MSTORE PUSH2 0x1E20 JUMP JUMPDEST PUSH2 0x15A6 PUSH1 0x40 DUP1 MLOAD PUSH8 0x557A8CFB7046C0CC PUSH1 0x20 DUP3 ADD MSTORE PUSH1 0x20 DUP2 MSTORE PUSH2 0x1E20 JUMP JUMPDEST PUSH2 0x15C4 PUSH1 0x40 DUP1 MLOAD PUSH8 0xB85E52DE885E5FA8 PUSH1 0x20 DUP3 ADD MSTORE PUSH1 0x20 DUP2 MSTORE PUSH2 0x1E20 JUMP JUMPDEST PUSH2 0x15CC PUSH2 0x21DA JUMP JUMPDEST PUSH2 0x15EA PUSH1 0x40 DUP1 MLOAD PUSH8 0x502E035AAF321DE4 PUSH1 0x20 DUP3 ADD MSTORE PUSH1 0x20 DUP2 MSTORE PUSH2 0x1E20 JUMP JUMPDEST PUSH2 0x1608 PUSH1 0x40 DUP1 MLOAD PUSH8 0x242486D7536D32B PUSH1 0x20 DUP3 ADD MSTORE PUSH1 0x20 DUP2 MSTORE PUSH2 0x1E20 JUMP JUMPDEST PUSH2 0x1626 PUSH1 0x40 DUP1 MLOAD PUSH8 0x6F835B42BB796CCB PUSH1 0x20 DUP3 ADD MSTORE PUSH1 0x20 DUP2 MSTORE PUSH2 0x1E20 JUMP JUMPDEST PUSH2 0x1644 PUSH1 0x40 DUP1 MLOAD PUSH8 0x9FD46F3CE2E0D2AA PUSH1 0x20 DUP3 ADD MSTORE PUSH1 0x20 DUP2 MSTORE PUSH2 0x1E20 JUMP JUMPDEST PUSH2 0x1662 PUSH1 0x40 DUP1 MLOAD PUSH8 0x64B796F9CD13DCED PUSH1 0x20 DUP3 ADD MSTORE PUSH1 0x20 DUP2 MSTORE PUSH2 0x1E20 JUMP JUMPDEST PUSH2 0x1680 PUSH1 0x40 DUP1 MLOAD PUSH8 0xD51FA784833B6A7C PUSH1 0x20 DUP3 ADD MSTORE PUSH1 0x20 DUP2 MSTORE PUSH2 0x1E20 JUMP JUMPDEST PUSH2 0x168E PUSH1 0x84 CALLDATALOAD TIMESTAMP GT ISZERO PUSH2 0x20CB JUMP JUMPDEST PUSH2 0x16AC PUSH1 0x40 DUP1 MLOAD PUSH8 0xBF777C0F8E57CA01 PUSH1 0x20 DUP3 ADD MSTORE PUSH1 0x20 DUP2 MSTORE PUSH2 0x1E20 JUMP JUMPDEST PUSH2 0x16CA PUSH1 0x40 DUP1 MLOAD PUSH8 0x311A23FD959AEB4D PUSH1 0x20 DUP3 ADD MSTORE PUSH1 0x20 DUP2 MSTORE PUSH2 0x1E20 JUMP JUMPDEST PUSH2 0x16E8 PUSH1 0x40 DUP1 MLOAD PUSH8 0x1030281FDB4D92B7 PUSH1 0x20 DUP3 ADD MSTORE PUSH1 0x20 DUP2 MSTORE PUSH2 0x1E20 JUMP JUMPDEST PUSH2 0x1706 PUSH1 0x40 DUP1 MLOAD PUSH8 0x52A19AA7996D6BDF PUSH1 0x20 DUP3 ADD MSTORE PUSH1 0x20 DUP2 MSTORE PUSH2 0x1E20 JUMP JUMPDEST PUSH1 0x2 DUP4 SUB PUSH2 0x1D8C JUMPI PUSH2 0x172C PUSH1 0x40 DUP1 MLOAD PUSH8 0xF00DC0B605FEBCC8 PUSH1 0x20 DUP3 ADD MSTORE PUSH1 0x20 DUP2 MSTORE PUSH2 0x1E20 JUMP JUMPDEST PUSH2 0x174A PUSH1 0x40 DUP1 MLOAD PUSH8 0x79230CC442C27854 PUSH1 0x20 DUP3 ADD MSTORE PUSH1 0x20 DUP2 MSTORE PUSH2 0x1E20 JUMP JUMPDEST PUSH2 0x1768 PUSH1 0x40 DUP1 MLOAD PUSH8 0x95DB51AD79747099 PUSH1 0x20 DUP3 ADD MSTORE PUSH1 0x20 DUP2 MSTORE PUSH2 0x1E20 JUMP JUMPDEST PUSH2 0x1786 PUSH1 0x40 DUP1 MLOAD PUSH8 0x6263F6DA351E7F20 PUSH1 0x20 DUP3 ADD MSTORE PUSH1 0x20 DUP2 MSTORE PUSH2 0x1E20 JUMP JUMPDEST PUSH2 0x1791 DUP3 ISZERO ISZERO PUSH2 0x1E8E JUMP JUMPDEST PUSH2 0x17AF PUSH1 0x40 DUP1 MLOAD PUSH8 0xCB8BD4B79814BC49 PUSH1 0x20 DUP3 ADD MSTORE PUSH1 0x20 DUP2 MSTORE PUSH2 0x1E20 JUMP JUMPDEST PUSH2 0x17CD PUSH1 0x40 DUP1 MLOAD PUSH8 0x3434009662866F4B PUSH1 0x20 DUP3 ADD MSTORE PUSH1 0x20 DUP2 MSTORE PUSH2 0x1E20 JUMP JUMPDEST PUSH2 0x17EB PUSH1 0x40 DUP1 MLOAD PUSH8 0x88219D4357B94A35 PUSH1 0x20 DUP3 ADD MSTORE PUSH1 0x20 DUP2 MSTORE PUSH2 0x1E20 JUMP JUMPDEST DUP3 ISZERO PUSH2 0x1D3C JUMPI PUSH2 0x17FD PUSH1 0x24 DUP3 ADD PUSH2 0x2116 JUMP JUMPDEST SWAP3 PUSH2 0x181C PUSH1 0x40 DUP1 MLOAD PUSH8 0x4617DE4CE0B79A3F PUSH1 0x20 DUP3 ADD MSTORE PUSH1 0x20 DUP2 MSTORE PUSH2 0x1E20 JUMP JUMPDEST PUSH2 0x183A PUSH1 0x40 DUP1 MLOAD PUSH8 0xCAAB59F1C6E24307 PUSH1 0x20 DUP3 ADD MSTORE PUSH1 0x20 DUP2 MSTORE PUSH2 0x1E20 JUMP JUMPDEST PUSH1 0x1 LT ISZERO PUSH2 0x1D3C JUMPI PUSH2 0x1856 PUSH1 0x44 PUSH1 0x1 PUSH1 0x1 PUSH1 0xA0 SHL SUB SWAP3 ADD PUSH2 0x2116 JUMP JUMPDEST SWAP3 PUSH2 0x1875 PUSH1 0x40 DUP1 MLOAD PUSH8 0x2D4AEEB636FAF5F8 PUSH1 0x20 DUP3 ADD MSTORE PUSH1 0x20 DUP2 MSTORE PUSH2 0x1E20 JUMP JUMPDEST PUSH2 0x1893 PUSH1 0x40 DUP1 MLOAD PUSH8 0x8C90FEC96BF16366 PUSH1 0x20 DUP3 ADD MSTORE PUSH1 0x20 DUP2 MSTORE PUSH2 0x1E20 JUMP JUMPDEST AND SWAP3 DUP4 PUSH1 0x0 MSTORE PUSH1 0x1 PUSH1 0x20 MSTORE PUSH1 0x40 PUSH1 0x0 KECCAK256 PUSH1 0x1 PUSH1 0x1 PUSH1 0xA0 SHL SUB DUP5 AND PUSH1 0x0 MSTORE PUSH1 0x20 MSTORE PUSH1 0x2 PUSH1 0x40 PUSH1 0x0 KECCAK256 PUSH2 0x18D8 PUSH1 0x40 DUP1 MLOAD PUSH8 0xCA6EAB8C8C6DF147 PUSH1 0x20 DUP3 ADD MSTORE PUSH1 0x20 DUP2 MSTORE PUSH2 0x1E20 JUMP JUMPDEST PUSH2 0x18F6 PUSH1 0x40 DUP1 MLOAD PUSH8 0xB95291F5532962C1 PUSH1 0x20 DUP3 ADD MSTORE PUSH1 0x20 DUP2 MSTORE PUSH2 0x1E20 JUMP JUMPDEST ADD SWAP3 PUSH2 0x1901 DUP5 PUSH2 0x1E58 JUMP JUMPDEST SWAP4 PUSH2 0x1920 PUSH1 0x40 DUP1 MLOAD PUSH8 0xD54600BA499D0AD7 PUSH1 0x20 DUP3 ADD MSTORE PUSH1 0x20 DUP2 MSTORE PUSH2 0x1E20 JUMP JUMPDEST PUSH2 0x193E PUSH1 0x40 DUP1 MLOAD PUSH8 0xA12411E9E4564F67 PUSH1 0x20 DUP3 ADD MSTORE PUSH1 0x20 DUP2 MSTORE PUSH2 0x1E20 JUMP JUMPDEST PUSH1 0x40 MLOAD PUSH4 0x23B872DD PUSH1 0xE0 SHL DUP2 MSTORE CALLER PUSH1 0x4 DUP3 ADD MSTORE ADDRESS PUSH1 0x24 DUP3 ADD MSTORE PUSH1 0x44 DUP2 ADD DUP6 SWAP1 MSTORE PUSH1 0x20 DUP2 PUSH1 0x64 DUP2 PUSH1 0x0 DUP12 GAS CALL DUP1 ISZERO PUSH2 0x913 JUMPI PUSH2 0x1D6F JUMPI JUMPDEST POP PUSH1 0x40 MLOAD PUSH1 0x20 DUP2 ADD PUSH8 0x4807015AC0C6D70A SWAP1 MSTORE PUSH1 0x20 DUP2 MSTORE PUSH1 0x40 PUSH2 0x1996 SWAP2 PUSH2 0x1E20 JUMP JUMPDEST PUSH1 0x40 MLOAD PUSH1 0x20 DUP2 ADD PUSH8 0x10D3D5705E7B4D18 SWAP1 MSTORE PUSH1 0x20 DUP2 MSTORE PUSH1 0x40 PUSH2 0x19B7 SWAP2 PUSH2 0x1E20 JUMP JUMPDEST DUP5 MLOAD PUSH1 0x1 PUSH1 0x1 PUSH1 0x80 SHL SUB AND PUSH1 0x20 DUP7 ADD SWAP1 DUP2 MLOAD PUSH1 0x1 PUSH1 0x1 PUSH1 0x80 SHL SUB AND PUSH2 0x19DC SWAP2 DUP8 PUSH2 0x1F19 JUMP JUMPDEST SWAP6 PUSH1 0x40 MLOAD PUSH1 0x20 DUP2 ADD PUSH8 0x5888B8064B1D15E0 SWAP1 MSTORE PUSH1 0x20 DUP2 MSTORE PUSH1 0x40 PUSH2 0x19FE SWAP2 PUSH2 0x1E20 JUMP JUMPDEST PUSH1 0x40 MLOAD PUSH1 0x20 DUP2 ADD PUSH8 0xF576B63B5552636E SWAP1 MSTORE PUSH1 0x20 DUP2 MSTORE PUSH1 0x40 PUSH2 0x1A1F SWAP2 PUSH2 0x1E20 JUMP JUMPDEST PUSH1 0x40 MLOAD PUSH1 0x20 DUP2 ADD PUSH8 0xE4D1B061E7984F2F SWAP1 MSTORE PUSH1 0x20 DUP2 MSTORE PUSH1 0x40 PUSH2 0x1A40 SWAP2 PUSH2 0x1E20 JUMP JUMPDEST PUSH2 0x1A4E PUSH1 0x24 CALLDATALOAD DUP9 LT ISZERO PUSH2 0x2142 JUMP JUMPDEST PUSH1 0x40 MLOAD PUSH1 0x20 DUP2 ADD PUSH8 0x8C723BF671248875 SWAP1 MSTORE PUSH1 0x20 DUP2 MSTORE PUSH1 0x40 PUSH2 0x1A6F SWAP2 PUSH2 0x1E20 JUMP JUMPDEST PUSH1 0x40 MLOAD PUSH1 0x20 DUP2 ADD PUSH8 0xB69433D5D0A3EE25 SWAP1 MSTORE PUSH1 0x20 DUP2 MSTORE PUSH1 0x40 PUSH2 0x1A90 SWAP2 PUSH2 0x1E20 JUMP JUMPDEST MLOAD PUSH1 0x1 PUSH1 0x1 PUSH1 0x80 SHL SUB AND PUSH1 0x1 PUSH1 0x1 PUSH1 0x80 SHL SUB DUP7 AND PUSH2 0x1AAD SWAP2 PUSH2 0x218D JUMP JUMPDEST PUSH1 0x1 PUSH1 0x1 PUSH1 0x80 SHL SUB AND DUP3 SLOAD PUSH16 0xFFFFFFFFFFFFFFFFFFFFFFFFFFFFFFFF NOT AND OR DUP3 SSTORE PUSH1 0x40 MLOAD PUSH1 0x20 DUP2 ADD PUSH8 0x27195B78CB6199C1 SWAP1 MSTORE PUSH1 0x20 DUP2 MSTORE PUSH1 0x40 PUSH2 0x1AEF SWAP2 PUSH2 0x1E20 JUMP JUMPDEST MLOAD PUSH1 0x1 PUSH1 0x1 PUSH1 0x80 SHL SUB AND PUSH1 0x1 PUSH1 0x1 PUSH1 0x80 SHL SUB DUP7 AND PUSH2 0x1B0C SWAP2 PUSH2 0x21AD JUMP JUMPDEST DUP2 SLOAD PUSH1 0x1 PUSH1 0x1 PUSH1 0x80 SHL SUB AND PUSH1 0x80 SWAP2 SWAP1 SWAP2 SHL PUSH16 0xFFFFFFFFFFFFFFFFFFFFFFFFFFFFFFFF NOT AND OR SWAP1 SSTORE PUSH1 0x40 MLOAD PUSH1 0x20 DUP2 ADD PUSH8 0x9603E90096C706A4 SWAP1 MSTORE PUSH1 0x20 DUP2 MSTORE PUSH1 0x40 PUSH2 0x1B54 SWAP2 PUSH2 0x1E20 JUMP JUMPDEST PUSH1 0x40 MLOAD PUSH1 0x20 DUP2 ADD PUSH8 0x99974626953099B0 SWAP1 MSTORE PUSH1 0x20 DUP2 MSTORE PUSH1 0x40 PUSH2 0x1B75 SWAP2 PUSH2 0x1E20 JUMP JUMPDEST PUSH1 0x40 MLOAD PUSH4 0xA9059CBB PUSH1 0xE0 SHL DUP2 MSTORE PUSH1 0x1 PUSH1 0x1 PUSH1 0xA0 SHL SUB SWAP3 DUP4 AND PUSH1 0x4 DUP3 ADD MSTORE PUSH1 0x24 DUP2 ADD DUP6 SWAP1 MSTORE SWAP2 AND SWAP1 DUP2 DUP2 PUSH1 0x44 DUP2 GAS PUSH1 0x20 SWAP5 PUSH1 0x0 SWAP2 CALL DUP1 ISZERO PUSH2 0x913 JUMPI PUSH2 0x1D52 JUMPI JUMPDEST POP PUSH2 0x1BD3 PUSH1 0x40 DUP1 MLOAD PUSH8 0x2A14A6DAA340FA56 PUSH1 0x20 DUP3 ADD MSTORE PUSH1 0x20 DUP2 MSTORE PUSH2 0x1E20 JUMP JUMPDEST PUSH1 0x40 MLOAD SWAP4 PUSH2 0x1BE2 PUSH1 0x60 DUP7 PUSH2 0x1E20 JUMP JUMPDEST PUSH1 0x2 DUP6 MSTORE PUSH1 0x20 DUP6 ADD SWAP4 PUSH1 0x40 CALLDATASIZE DUP7 CALLDATACOPY PUSH2 0x1C0E PUSH1 0x40 DUP1 MLOAD PUSH8 0x178B6831D6B87AF7 PUSH1 0x20 DUP3 ADD MSTORE PUSH1 0x20 DUP2 MSTORE PUSH2 0x1E20 JUMP JUMPDEST DUP6 MLOAD ISZERO PUSH2 0x1D3C JUMPI DUP4 DUP6 MSTORE PUSH2 0x1C36 PUSH1 0x40 DUP1 MLOAD PUSH8 0x8C949AD74467C93F PUSH1 0x20 DUP3 ADD MSTORE PUSH1 0x20 DUP2 MSTORE PUSH2 0x1E20 JUMP JUMPDEST DUP6 MLOAD PUSH1 0x1 LT ISZERO PUSH2 0x1D3C JUMPI DUP1 PUSH1 0x40 DUP8 SWAP7 SWAP8 ADD MSTORE PUSH2 0x1C66 PUSH1 0x40 DUP1 MLOAD PUSH8 0xC8D293EA701C6CBF PUSH1 0x20 DUP3 ADD MSTORE PUSH1 0x20 DUP2 MSTORE PUSH2 0x1E20 JUMP JUMPDEST PUSH2 0x1C84 PUSH1 0x40 DUP1 MLOAD PUSH8 0x7FD9C0064763F058 PUSH1 0x20 DUP3 ADD MSTORE PUSH1 0x20 DUP2 MSTORE PUSH2 0x1E20 JUMP JUMPDEST PUSH1 0x40 MLOAD SWAP4 DUP5 MSTORE PUSH1 0x20 DUP5 ADD MSTORE PUSH32 0xAD56699D0F375866EB895ED27203058A36A713382AADED78EB6B67DA266D4332 PUSH1 0x40 CALLER SWAP5 LOG4 PUSH2 0x1CD3 PUSH1 0x40 DUP1 MLOAD PUSH8 0xE681476D65D638F3 PUSH1 0x20 DUP3 ADD MSTORE PUSH1 0x20 DUP2 MSTORE PUSH2 0x1E20 JUMP JUMPDEST PUSH2 0x1CF1 PUSH1 0x40 DUP1 MLOAD PUSH8 0x2353FC82CEDD28EC PUSH1 0x20 DUP3 ADD MSTORE PUSH1 0x20 DUP2 MSTORE PUSH2 0x1E20 JUMP JUMPDEST PUSH2 0x1CF9 PUSH2 0x22E3 JUMP JUMPDEST PUSH1 0x40 MLOAD SWAP2 DUP3 SWAP2 PUSH1 0x20 DUP4 ADD SWAP1 PUSH1 0x20 DUP5 MSTORE MLOAD DUP1 SWAP2 MSTORE PUSH1 0x40 DUP4 ADD SWAP2 SWAP1 PUSH1 0x0 JUMPDEST DUP2 DUP2 LT PUSH2 0x1D23 JUMPI POP POP POP SUB SWAP1 RETURN JUMPDEST DUP3 MLOAD DUP5 MSTORE DUP6 SWAP5 POP PUSH1 0x20 SWAP4 DUP5 ADD SWAP4 SWAP1 SWAP3 ADD SWAP2 PUSH1 0x1 ADD PUSH2 0x1D15 JUMP JUMPDEST PUSH4 0x4E487B71 PUSH1 0xE0 SHL PUSH1 0x0 MSTORE PUSH1 0x32 PUSH1 0x4 MSTORE PUSH1 0x24 PUSH1 0x0 REVERT JUMPDEST PUSH2 0x1D6A SWAP1 PUSH1 0x20 RETURNDATASIZE PUSH1 0x20 GT PUSH2 0x90C JUMPI PUSH2 0x8FF DUP2 DUP4 PUSH2 0x1E20 JUMP JUMPDEST PUSH2 0x1BB4 JUMP JUMPDEST PUSH2 0x1D87 SWAP1 PUSH1 0x20 RETURNDATASIZE PUSH1 0x20 GT PUSH2 0x90C JUMPI PUSH2 0x8FF DUP2 DUP4 PUSH2 0x1E20 JUMP JUMPDEST PUSH2 0x1974 JUMP JUMPDEST PUSH1 0x64 PUSH1 0x40 MLOAD PUSH3 0x461BCD PUSH1 0xE5 SHL DUP2 MSTORE PUSH1 0x20 PUSH1 0x4 DUP3 ADD MSTORE PUSH1 0xC PUSH1 0x24 DUP3 ADD MSTORE PUSH32 0x696E76616C69645F706174680000000000000000000000000000000000000000 PUSH1 0x44 DUP3 ADD MSTORE REVERT JUMPDEST CALLVALUE PUSH2 0x9CD JUMPI PUSH1 0x60 CALLDATASIZE PUSH1 0x3 NOT ADD SLT PUSH2 0x9CD JUMPI PUSH1 0x20 PUSH2 0x13EC PUSH1 0x44 CALLDATALOAD PUSH1 0x24 CALLDATALOAD PUSH1 0x4 CALLDATALOAD PUSH2 0x1F19 JUMP JUMPDEST PUSH1 0x4 CALLDATALOAD SWAP1 PUSH1 0x1 PUSH1 0x1 PUSH1 0xA0 SHL SUB DUP3 AND DUP3 SUB PUSH2 0x9CD JUMPI JUMP JUMPDEST PUSH1 0x24 CALLDATALOAD SWAP1 PUSH1 0x1 PUSH1 0x1 PUSH1 0xA0 SHL SUB DUP3 AND DUP3 SUB PUSH2 0x9CD JUMPI JUMP JUMPDEST SWAP1 PUSH1 0x1F DUP1 NOT SWAP2 ADD AND DUP2 ADD SWAP1 DUP2 LT PUSH8 0xFFFFFFFFFFFFFFFF DUP3 GT OR PUSH2 0x1E42 JUMPI PUSH1 0x40 MSTORE JUMP JUMPDEST PUSH4 0x4E487B71 PUSH1 0xE0 SHL PUSH1 0x0 MSTORE PUSH1 0x41 PUSH1 0x4 MSTORE PUSH1 0x24 PUSH1 0x0 REVERT JUMPDEST SWAP1 PUSH1 0x40 MLOAD PUSH1 0x40 DUP2 ADD DUP2 DUP2 LT PUSH8 0xFFFFFFFFFFFFFFFF DUP3 GT OR PUSH2 0x1E42 JUMPI PUSH1 0x40 MSTORE SWAP2 SLOAD PUSH1 0x1 PUSH1 0x1 PUSH1 0x80 SHL SUB DUP2 AND DUP4 MSTORE PUSH1 0x80 SHR PUSH1 0x20 DUP4 ADD MSTORE JUMP JUMPDEST ISZERO PUSH2 0x1E95 JUMPI JUMP JUMPDEST PUSH1 0x64 PUSH1 0x40 MLOAD PUSH3 0x461BCD PUSH1 0xE5 SHL DUP2 MSTORE PUSH1 0x20 PUSH1 0x4 DUP3 ADD MSTORE PUSH1 0xA PUSH1 0x24 DUP3 ADD MSTORE PUSH32 0x7A65726F5F696E70757400000000000000000000000000000000000000000000 PUSH1 0x44 DUP3 ADD MSTORE REVERT JUMPDEST DUP2 DUP2 MUL SWAP3 SWAP2 DUP2 ISZERO SWAP2 DUP5 DIV EQ OR ISZERO PUSH2 0x13F4 JUMPI JUMP JUMPDEST SWAP2 SWAP1 DUP3 ADD DUP1 SWAP3 GT PUSH2 0x13F4 JUMPI JUMP JUMPDEST DUP2 ISZERO PUSH2 0x1F03 JUMPI DIV SWAP1 JUMP JUMPDEST PUSH4 0x4E487B71 PUSH1 0xE0 SHL PUSH1 0x0 MSTORE PUSH1 0x12 PUSH1 0x4 MSTORE PUSH1 0x24 PUSH1 0x0 REVERT JUMPDEST SWAP2 PUSH2 0x1F38 PUSH1 0x40 DUP1 MLOAD PUSH8 0x3F1643A17E972209 PUSH1 0x20 DUP3 ADD MSTORE PUSH1 0x20 DUP2 MSTORE PUSH2 0x1E20 JUMP JUMPDEST PUSH2 0x1F56 PUSH1 0x40 DUP1 MLOAD PUSH8 0x1FAD8B62BAC15B7F PUSH1 0x20 DUP3 ADD MSTORE PUSH1 0x20 DUP2 MSTORE PUSH2 0x1E20 JUMP JUMPDEST PUSH2 0x1F74 PUSH1 0x40 DUP1 MLOAD PUSH8 0xEFB66768CC34F5F7 PUSH1 0x20 DUP3 ADD MSTORE PUSH1 0x20 DUP2 MSTORE PUSH2 0x1E20 JUMP JUMPDEST PUSH2 0x1F92 PUSH1 0x40 DUP1 MLOAD PUSH8 0xA5804C8CEFE9CD96 PUSH1 0x20 DUP3 ADD MSTORE PUSH1 0x20 DUP2 MSTORE PUSH2 0x1E20 JUMP JUMPDEST PUSH2 0x1F9D DUP4 ISZERO ISZERO PUSH2 0x1E8E JUMP JUMPDEST PUSH2 0x1FBB PUSH1 0x40 DUP1 MLOAD PUSH8 0xB903D7D141483927 PUSH1 0x20 DUP3 ADD MSTORE PUSH1 0x20 DUP2 MSTORE PUSH2 0x1E20 JUMP JUMPDEST PUSH2 0x1FD8 PUSH1 0x40 DUP1 MLOAD PUSH7 0x5D082B0DAB3473 PUSH1 0x20 DUP3 ADD MSTORE PUSH1 0x20 DUP2 MSTORE PUSH2 0x1E20 JUMP JUMPDEST PUSH2 0x1FF6 PUSH1 0x40 DUP1 MLOAD PUSH8 0x4BFE47EAD1AC1E4C PUSH1 0x20 DUP3 ADD MSTORE PUSH1 0x20 DUP2 MSTORE PUSH2 0x1E20 JUMP JUMPDEST PUSH2 0x2014 PUSH1 0x40 DUP1 MLOAD PUSH8 0x39B283281A91D2C4 PUSH1 0x20 DUP3 ADD MSTORE PUSH1 0x20 DUP2 MSTORE PUSH2 0x1E20 JUMP JUMPDEST DUP2 ISZERO ISZERO DUP1 PUSH2 0x20C2 JUMPI JUMPDEST ISZERO PUSH2 0x207E JUMPI PUSH2 0x207B SWAP3 PUSH2 0x206F PUSH2 0x2075 SWAP3 PUSH2 0x204B PUSH1 0x40 DUP1 MLOAD PUSH8 0x801B7095F9935698 PUSH1 0x20 DUP3 ADD MSTORE PUSH1 0x20 DUP2 MSTORE PUSH2 0x1E20 JUMP JUMPDEST PUSH2 0x2069 PUSH1 0x40 DUP1 MLOAD PUSH8 0x3DE013647AF12F6A PUSH1 0x20 DUP3 ADD MSTORE PUSH1 0x20 DUP2 MSTORE PUSH2 0x1E20 JUMP JUMPDEST DUP3 PUSH2 0x1ED9 JUMP JUMPDEST SWAP3 PUSH2 0x1EEC JUMP JUMPDEST SWAP1 PUSH2 0x1EF9 JUMP JUMPDEST SWAP1 JUMP JUMPDEST PUSH1 0x64 PUSH1 0x40 MLOAD PUSH3 0x461BCD PUSH1 0xE5 SHL DUP2 MSTORE PUSH1 0x20 PUSH1 0x4 DUP3 ADD MSTORE PUSH1 0x8 PUSH1 0x24 DUP3 ADD MSTORE PUSH32 0x6261645F72657376000000000000000000000000000000000000000000000000 PUSH1 0x44 DUP3 ADD MSTORE REVERT JUMPDEST POP DUP1 ISZERO ISZERO PUSH2 0x201D JUMP JUMPDEST ISZERO PUSH2 0x20D2 JUMPI JUMP JUMPDEST PUSH1 0x64 PUSH1 0x40 MLOAD PUSH3 0x461BCD PUSH1 0xE5 SHL DUP2 MSTORE PUSH1 0x20 PUSH1 0x4 DUP3 ADD MSTORE PUSH1 0x7 PUSH1 0x24 DUP3 ADD MSTORE PUSH32 0x6578706972656400000000000000000000000000000000000000000000000000 PUSH1 0x44 DUP3 ADD MSTORE REVERT JUMPDEST CALLDATALOAD PUSH1 0x1 PUSH1 0x1 PUSH1 0xA0 SHL SUB DUP2 AND DUP2 SUB PUSH2 0x9CD JUMPI SWAP1 JUMP JUMPDEST SWAP1 DUP2 PUSH1 0x20 SWAP2 SUB SLT PUSH2 0x9CD JUMPI MLOAD DUP1 ISZERO ISZERO DUP2 SUB PUSH2 0x9CD JUMPI SWAP1 JUMP JUMPDEST ISZERO PUSH2 0x2149 JUMPI JUMP JUMPDEST PUSH1 0x64 PUSH1 0x40 MLOAD PUSH3 0x461BCD PUSH1 0xE5 SHL DUP2 MSTORE PUSH1 0x20 PUSH1 0x4 DUP3 ADD MSTORE PUSH1 0x8 PUSH1 0x24 DUP3 ADD MSTORE PUSH32 0x736C697070616765000000000000000000000000000000000000000000000000 PUSH1 0x44 DUP3 ADD MSTORE REVERT JUMPDEST SWAP1 PUSH1 0x1 PUSH1 0x1 PUSH1 0x80 SHL SUB DUP1 SWAP2 AND SWAP2 AND ADD SWAP1 PUSH1 0x1 PUSH1 0x1 PUSH1 0x80 SHL SUB DUP3 GT PUSH2 0x13F4 JUMPI JUMP JUMPDEST SWAP1 PUSH1 0x1 PUSH1 0x1 PUSH1 0x80 SHL SUB DUP1 SWAP2 AND SWAP2 AND SUB SWAP1 PUSH1 0x1 PUSH1 0x1 PUSH1 0x80 SHL SUB DUP3 GT PUSH2 0x13F4 JUMPI JUMP JUMPDEST SWAP2 SWAP1 DUP3 SUB SWAP2 DUP3 GT PUSH2 0x13F4 JUMPI JUMP JUMPDEST PUSH2 0x21F8 PUSH1 0x40 DUP1 MLOAD PUSH8 0xFA21C05DF241EBF9 PUSH1 0x20 DUP3 ADD MSTORE PUSH1 0x20 DUP2 MSTORE PUSH2 0x1E20 JUMP JUMPDEST PUSH2 0x2216 PUSH1 0x40 DUP1 MLOAD PUSH8 0x13EC7A0A0EEB211D PUSH1 0x20 DUP3 ADD MSTORE PUSH1 0x20 DUP2 MSTORE PUSH2 0x1E20 JUMP JUMPDEST PUSH2 0x2234 PUSH1 0x40 DUP1 MLOAD PUSH8 0x5B57BC21B08FC165 PUSH1 0x20 DUP3 ADD MSTORE PUSH1 0x20 DUP2 MSTORE PUSH2 0x1E20 JUMP JUMPDEST PUSH2 0x2252 PUSH1 0x40 DUP1 MLOAD PUSH8 0xC61306EBB15246A4 PUSH1 0x20 DUP3 ADD MSTORE PUSH1 0x20 DUP2 MSTORE PUSH2 0x1E20 JUMP JUMPDEST PUSH1 0x2 PUSH1 0x0 SLOAD EQ PUSH2 0x229F JUMPI PUSH2 0x227A PUSH1 0x40 DUP1 MLOAD PUSH8 0xCB4FA8C0F1374899 PUSH1 0x20 DUP3 ADD MSTORE PUSH1 0x20 DUP2 MSTORE PUSH2 0x1E20 JUMP JUMPDEST PUSH2 0x2298 PUSH1 0x40 DUP1 MLOAD PUSH8 0x6BB191D015D91C70 PUSH1 0x20 DUP3 ADD MSTORE PUSH1 0x20 DUP2 MSTORE PUSH2 0x1E20 JUMP JUMPDEST PUSH1 0x2 PUSH1 0x0 SSTORE JUMP JUMPDEST PUSH1 0x64 PUSH1 0x40 MLOAD PUSH3 0x461BCD PUSH1 0xE5 SHL DUP2 MSTORE PUSH1 0x20 PUSH1 0x4 DUP3 ADD MSTORE PUSH1 0x1F PUSH1 0x24 DUP3 ADD MSTORE PUSH32 0x5265656E7472616E637947756172643A207265656E7472616E742063616C6C00 PUSH1 0x44 DUP3 ADD MSTORE REVERT JUMPDEST PUSH2 0x2301 PUSH1 0x40 DUP1 MLOAD PUSH8 0x906F9F1DDF8AE111 PUSH1 0x20 DUP3 ADD MSTORE PUSH1 0x20 DUP2 MSTORE PUSH2 0x1E20 JUMP JUMPDEST PUSH2 0x231F PUSH1 0x40 DUP1 MLOAD PUSH8 0x1E9D5376E72F6EF8 PUSH1 0x20 DUP3 ADD MSTORE PUSH1 0x20 DUP2 MSTORE PUSH2 0x1E20 JUMP JUMPDEST PUSH1 0x1 PUSH1 0x0 SSTORE JUMP INVALID LOG2 PUSH5 0x6970667358 0x22 SLT KECCAK256 DUP11 PUSH23 0x935F8F7D82151539D104D6D40193563B2912EA7AFCEAE7 0xDA STOP 0x26 0xB4 KECCAK256 MSTORE PUSH19 0x64736F6C634300081C00330000000000000000 "},"methodIdentifiers":{"addLiquidity(address,address,uint256,uint256,uint256,uint256,address,uint256)":"e8e33700","getAmountOut(uint256,uint256,uint256)":"054d50d4","getPrice(address,address)":"ac41865a","pairs(address,address)":"69454b86","removeLiquidity(address,address,uint256,uint256,uint256,address,uint256)":"baa2abde","swapExactTokensForTokens(uint256,uint256,address[],address,uint256)":"38ed1739"}}}}}