{"contracts/SimpleSwap.sol":{"SimpleSwap":{"abi":[{"inputs":[],"name":"ReentrancyGuardReentrantCall","type":"error"},{"anonymous":false,"inputs":[{"indexed":true,"internalType":"address","name":"tokenA","type":"address"},{"indexed":true,"internalType":"address","name":"tokenB","type":"address"},{"indexed":true,"internalType":"address","name":"provider","type":"address"},{"indexed":false,"internalType":"uint256","name":"amountA","type":"uint256"},{"indexed":false,"internalType":"uint256","name":"amountB","type":"uint256"},{"indexed":false,"internalType":"uint256","name":"liquidity","type":"uint256"}],"name":"LiquidityAdded","type":"event"},{"anonymous":false,"inputs":[{"indexed":true,"internalType":"address","name":"tokenA","type":"address"},{"indexed":true,"internalType":"address","name":"tokenB","type":"address"},{"indexed":true,"internalType":"address","name":"provider","type":"address"},{"indexed":false,"internalType":"uint256","name":"amountA","type":"uint256"},{"indexed":false,"internalType":"uint256","name":"amountB","type":"uint256"},{"indexed":false,"internalType":"uint256","name":"liquidity","type":"uint256"}],"name":"LiquidityRemoved","type":"event"},{"anonymous":false,"inputs":[{"indexed":true,"internalType":"address","name":"tokenIn","type":"address"},{"indexed":true,"internalType":"address","name":"tokenOut","type":"address"},{"indexed":true,"internalType":"address","name":"trader","type":"address"},{"indexed":false,"internalType":"uint256","name":"amountIn","type":"uint256"},{"indexed":false,"internalType":"uint256","name":"amountOut","type":"uint256"}],"name":"TokensSwapped","type":"event"},{"inputs":[{"internalType":"address","name":"tokenA","type":"address"},{"internalType":"address","name":"tokenB","type":"address"},{"internalType":"uint256","name":"amountADesired","type":"uint256"},{"internalType":"uint256","name":"amountBDesired","type":"uint256"},{"internalType":"uint256","name":"amountAMin","type":"uint256"},{"internalType":"uint256","name":"amountBMin","type":"uint256"},{"internalType":"address","name":"to","type":"address"},{"internalType":"uint256","name":"deadline","type":"uint256"}],"name":"addLiquidity","outputs":[{"internalType":"uint256","name":"amountA","type":"uint256"},{"internalType":"uint256","name":"amountB","type":"uint256"},{"internalType":"uint256","name":"liquidity","type":"uint256"}],"stateMutability":"nonpayable","type":"function"},{"inputs":[{"internalType":"uint256","name":"amountIn","type":"uint256"},{"internalType":"uint256","name":"reserveIn","type":"uint256"},{"internalType":"uint256","name":"reserveOut","type":"uint256"}],"name":"getAmountOut","outputs":[{"internalType":"uint256","name":"amountOut","type":"uint256"}],"stateMutability":"pure","type":"function"},{"inputs":[{"internalType":"address","name":"tokenA","type":"address"},{"internalType":"address","name":"tokenB","type":"address"}],"name":"getPrice","outputs":[{"internalType":"uint256","name":"price","type":"uint256"}],"stateMutability":"view","type":"function"},{"inputs":[{"internalType":"address","name":"","type":"address"},{"internalType":"address","name":"","type":"address"}],"name":"pairs","outputs":[{"internalType":"uint256","name":"totalSupply","type":"uint256"},{"components":[{"internalType":"uint128","name":"reserveA","type":"uint128"},{"internalType":"uint128","name":"reserveB","type":"uint128"}],"internalType":"struct SimpleSwap.Reserves","name":"reserves","type":"tuple"}],"stateMutability":"view","type":"function"},{"inputs":[{"internalType":"address","name":"tokenA","type":"address"},{"internalType":"address","name":"tokenB","type":"address"},{"internalType":"uint256","name":"liquidity","type":"uint256"},{"internalType":"uint256","name":"amountAMin","type":"uint256"},{"internalType":"uint256","name":"amountBMin","type":"uint256"},{"internalType":"address","name":"to","type":"address"},{"internalType":"uint256","name":"deadline","type":"uint256"}],"name":"removeLiquidity","outputs":[{"internalType":"uint256","name":"amountA","type":"uint256"},{"internalType":"uint256","name":"amountB","type":"uint256"}],"stateMutability":"nonpayable","type":"function"},{"inputs":[{"internalType":"uint256","name":"amountIn","type":"uint256"},{"internalType":"uint256","name":"amountOutMin","type":"uint256"},{"internalType":"address[]","name":"path","type":"address[]"},{"internalType":"address","name":"to","type":"address"},{"internalType":"uint256","name":"deadline","type":"uint256"}],"name":"swapExactTokensForTokens","outputs":[{"internalType":"uint256[]","name":"amounts","type":"uint256[]"}],"stateMutability":"nonpayable","type":"function"}],"evm":{"bytecode":{"linkReferences":{},"object":"60808060405234601a576001600055611f9f90816100208239f35b600080fdfe6080604052600436101561001257600080fd5b60003560e01c8063054d50d414611b2457806338ed17391461139957806369454b861461131a578063ac41865a146110fc578063baa2abde146109615763e8e337001461005e57600080fd5b3461095c5761010036600319011261095c57610078611b48565b610080611b5e565b906044359060643560c435936001600160a01b03851680950361095c576001600160a01b0380916100c560408051679df1bf80c8356423602082015260208152611b74565b6100cd611f2e565b6100eb604080516779cce485cc687ca9602082015260208152611b74565b61010960408051679116c454d16a0a0f602082015260208152611b74565b61012760408051678372299c806346db602082015260208152611b74565b6101456040805167c43090ee4bfe3224602082015260208152611b74565b6101636040805167e52f9ba555054c55602082015260208152611b74565b61017160e435421115611e1f565b61018f6040805167914c284b50ed81db602082015260208152611b74565b6101ad6040805167d78820161ca7a5e4602082015260208152611b74565b6101cb6040805167f16acd54488f042e602082015260208152611b74565b6101e960408051675d4ba97304e4f9eb602082015260208152611b74565b169216938285146109185761021260408051673f8ee4fa56c1137a602082015260208152611b74565b61023060408051679a1e85f4e3ea27c4602082015260208152611b74565b61024e604080516747957f49f18ee842602082015260208152611b74565b61026c60408051671c094f206b8d4a34602082015260208152611b74565b8315158061090f575b156108cb5761029860408051672f460c0d127a1d9c602082015260208152611b74565b6102b660408051670279f6dcc17dd5fc602082015260208152611b74565b6102d46040805167ee36442575a0e465602082015260208152611b74565b6040516323b872dd60e01b81523360048201523060248201526044810185905260208160648160008a5af180156108a2576108ae575b506103296040805167a47fa3906c48945d602082015260208152611b74565b6103476040805167192434b4303a282a602082015260208152611b74565b6040516323b872dd60e01b815233600482015230602482015260448101839052926020846064816000855af19384156108a25761073294610875575b506103a260408051675076290dd98e526f602082015260208152611b74565b6103c060408051670ff2a353d561c761602082015260208152611b74565b85600052600160205260408060002060009083825260205220956103f860408051670b723ff646e70897602082015260208152611b74565b6104166040805167f4b86756da1af3a9602082015260208152611b74565b60016002880154976001600160801b03891695610447604080516751789f3a79f8738c602082015260208152611b74565b6104656040805167ada87ed5b2fd2bc4602082015260208152611b74565b6104836040805167c140f012e67899d6602082015260208152611b74565b6104a160408051672668290c5312ccdc602082015260208152611b74565b86159087829b83159384610837575b806107fa575b156107e2575050995b6104dd60408051672f3236d6ea06ee60602082015260208152611b74565b6104fb6040805167abdcf221a01b4b5b602082015260208152611b74565b61051960408051672614862cf3c28a9a602082015260208152611b74565b6084358a1015806107d6575b61052e90611e96565b61054c6040805167df3bd8ce40f50aa2602082015260208152611b74565b61056a6040805167bfa2bc9092e4d89c602082015260208152611b74565b90610798575b8061075b575b15610736576001600160801b036105b089975b6105a76040805167344e0700ff2ffe78602082015260208152611b74565b828b1690611ee1565b166fffffffffffffffffffffffffffffffff196002830154161760028201556105ed60408051677b3b8e1cb2ddcce1602082015260208152611b74565b61063761060a6001600160801b038b16600284015460801c611ee1565b60028301906001600160801b036fffffffffffffffffffffffffffffffff1983549260801b169116179055565b61065560408051671edcc6e4af8bd490602082015260208152611b74565b610660868254611c40565b81556106806040805167a79e56be70343264602082015260208152611b74565b84600052016020526040600020610698858254611c40565b90556106b86040805167534ef0e6ef3be2da602082015260208152611b74565b6106d66040805167247ae026384d72ee602082015260208152611b74565b60408051878152602081018990529081018590527f43c967b388d3a4ccad3f7ab80167852e322e5a3fde9893f530252281b2ae8b7090606090a46001600055604051938493846040919493926060820195825260208201520152565b0390f35b6001600160801b036105b06107558861075085548d611c2d565b611c4d565b97610589565b50610792604080517fbd67aa57fb87414a000000000000000000000000000000000000000000000000602082015260208152611b74565b81610576565b506107cf604080517fd136339add1e1301000000000000000000000000000000000000000000000000602082015260208152611b74565b6000610570565b5060a4358b1015610525565b6107f492506107509060801c8c611c2d565b996104bf565b50610831604080517f98dd592f78f3331a000000000000000000000000000000000000000000000000602082015260208152611b74565b856104b6565b5061086e604080517f859053753f0e12ef000000000000000000000000000000000000000000000000602082015260208152611b74565b60006104b0565b6108969060203d60201161089b575b61088e8183611b74565b810190611e7e565b610383565b503d610884565b6040513d6000823e3d90fd5b6108c69060203d60201161089b5761088e8183611b74565b61030a565b606460405162461bcd60e51b815260206004820152600b60248201527f696e76616c69645f616d740000000000000000000000000000000000000000006044820152fd5b50811515610275565b606460405162461bcd60e51b815260206004820152600960248201527f6964656e746963616c00000000000000000000000000000000000000000000006044820152fd5b600080fd5b3461095c5760e036600319011261095c5761097a611b48565b610982611b5e565b9060443560a435916001600160a01b038316830361095c576109b86040805167eae36f4ab6cd2e47602082015260208152611b74565b6109c0611f2e565b6109de604080516793e8000034806279602082015260208152611b74565b6109fc6040805167b929a804d83fedc2602082015260208152611b74565b610a1a60408051670a3ea398d7924824602082015260208152611b74565b610a386040805167105cd13e26f6af0e602082015260208152611b74565b610a566040805167b7849ea121ea8949602082015260208152611b74565b610a6460c435421115611e1f565b610a8260408051672c40697afcb06829602082015260208152611b74565b610aa06040805167c06c8758ae0d93d8602082015260208152611b74565b610abe6040805167b00c5d426f411734602082015260208152611b74565b610adc6040805167e830169071e4aba1602082015260208152611b74565b81156110b8576001600160a01b0390610b096040805167d411d82a376e53db602082015260208152611b74565b610b276040805167f1eebb0426b59446602082015260208152611b74565b610b4560408051670ade5442bc3a227f602082015260208152611b74565b16908160005260016020526040806000206000906001600160a01b03871682526020522092610b8860408051672835760e77fca10d602082015260208152611b74565b610ba660408051676f7edbcb3509ae1f602082015260208152611b74565b610bc46040805167ece9325b614fa5c8602082015260208152611b74565b60018401926001600160a01b03331660005283602052826040600020541061107457610c046040805167750ec41051cebfc6602082015260208152611b74565b610c226040805167377a3650d3fec259602082015260208152611b74565b610c406040805167ccca18f3348ff82f602082015260208152611b74565b6002850193845495610e2a6001600160801b03881696610c74604080516711b9a21a50880f4c602082015260208152611b74565b610c9260408051673c5f76b55d09c1c8602082015260208152611b74565b610cb0604080516717c37b9711a884a9602082015260208152611b74565b6001600160801b03610db4610cff610cc88b8b611c2d565b610750610cd788548093611c4d565b9d610cf660408051679ff138248c7e4a90602082015260208152611b74565b60801c8c611c2d565b99610d1e604080516789f5d55623a0bfaf602082015260208152611b74565b610d3c6040805167b73a58d095b5ed6d602082015260208152611b74565b610d5a6040805167f7f97522572a66ea602082015260208152611b74565b6064358c101580611068575b610d6f90611e96565b610d8d6040805167fb4f4d81d787cc7a602082015260208152611b74565b610dab6040805167916563991f471866602082015260208152611b74565b828c1690611f01565b166fffffffffffffffffffffffffffffffff19825416178155610deb6040805167e1a06fd1dcfada32602082015260208152611b74565b610e026001600160801b038916825460801c611f01565b6001600160801b036fffffffffffffffffffffffffffffffff1983549260801b169116179055565b610e486040805167f76500020224dd69602082015260208152611b74565b610e53858254611f21565b9055610e7360408051679cf6fb62fe4f1391602082015260208152611b74565b6001600160a01b0333166000526020526040600020610e93848254611f21565b9055610eb36040805167a5162c89b7c22997602082015260208152611b74565b610ed160408051677b0e07e2a51835fb602082015260208152611b74565b60405163a9059cbb60e01b81526001600160a01b038316600482015260248101869052956020876044816000865af19687156108a2576001600160a01b036020928792610f899a61104d575b50610f3a604080516715576161349fd01787820152868152611b74565b610f5660408051676b0d41bf659f100687820152868152611b74565b1693604051988992839263a9059cbb60e01b845260048401602090939291936001600160a01b0360408201951681520152565b03816000865af19586156108a257604096611030575b50610fbd86805167dd37cc846275ccad602082015260208152611b74565b610fda868051678c58c51c51c690a2602082015260208152611b74565b7fd765e08eef31c0983ecca03ecd166297ac485ecd5dd69e291c848f0a020333c186518061101c3396888a846040919493926060820195825260208201520152565b0390a4600160005582519182526020820152f35b6110489060203d60201161089b5761088e8183611b74565b610f9f565b61106390853d871161089b5761088e8183611b74565b610f1d565b506084358b1015610d66565b606460405162461bcd60e51b815260206004820152600a60248201527f696e737566665f62616c000000000000000000000000000000000000000000006044820152fd5b606460405162461bcd60e51b815260206004820152600860248201527f7a65726f5f6c69710000000000000000000000000000000000000000000000006044820152fd5b3461095c57604036600319011261095c57611115611b48565b6001600160a01b03611125611b5e565b9161114460408051674e9dd48fa333a397602082015260208152611b74565b61116260408051670a8f55d47e97e96f602082015260208152611b74565b61118060408051671b550df0f1fb3669602082015260208152611b74565b1660005260016020526001600160a01b03604060002091166000526020526111ae6002604060002001611bac565b6111cc60408051679ec6d1c85f1192c9602082015260208152611b74565b6111ea6040805167375b51fe2a6afa68602082015260208152611b74565b6112086040805167c3bc104516919126602082015260208152611b74565b6001600160801b03815116151580611304575b156112c05761123e60408051677cbd13c5f9ba451f602082015260208152611b74565b61125c604080516727b932524d190784602082015260208152611b74565b6001600160801b0381511690670de0b6b3a7640000820291808304670de0b6b3a764000014901517156112aa576020916001600160801b03836112a29301511690611c4d565b604051908152f35b634e487b7160e01b600052601160045260246000fd5b606460405162461bcd60e51b815260206004820152600960248201527f7a65726f5f7265737600000000000000000000000000000000000000000000006044820152fd5b506001600160801b03602082015116151561121b565b3461095c57604036600319011261095c57611333611b48565b6001600160a01b03611343611b5e565b911660005260016020526001600160a01b0360406000209116600052602052606060406000206001600160801b036020611381600284549401611bac565b60405193845282815116828501520151166040820152f35b3461095c5760a036600319011261095c5760443560043567ffffffffffffffff821161095c573660238301121561095c5781600401359067ffffffffffffffff821161095c573660248360051b8501011161095c57606435926001600160a01b038416840361095c5761142060408051678e3c19fda5c76d78602082015260208152611b74565b611428611f2e565b61144660408051671693201f0b93e7df602082015260208152611b74565b611464604080516764b796f9cd13dced602082015260208152611b74565b6114826040805167d51fa784833b6a7c602082015260208152611b74565b6114a06040805167bf777c0f8e57ca01602082015260208152611b74565b6114be6040805167311a23fd959aeb4d602082015260208152611b74565b6114cc608435421115611e1f565b6114ea60408051671030281fdb4d92b7602082015260208152611b74565b611508604080516752a19aa7996d6bdf602082015260208152611b74565b6115266040805167f00dc0b605febcc8602082015260208152611b74565b611544604080516779230cc442c27854602082015260208152611b74565b60028303611ae05761156a604080516795db51ad79747099602082015260208152611b74565b61158860408051676263f6da351e7f20602082015260208152611b74565b6115a66040805167cb8bd4b79814bc49602082015260208152611b74565b6115c460408051673434009662866f4b602082015260208152611b74565b6115cf821515611be2565b6115ed604080516788219d4357b94a35602082015260208152611b74565b61160b60408051674617de4ce0b79a3f602082015260208152611b74565b6116296040805167caab59f1c6e24307602082015260208152611b74565b8215611a925761163b60248201611e6a565b9261165a60408051672d4aeeb636faf5f8602082015260208152611b74565b61167860408051678c90fec96bf16366602082015260208152611b74565b60011015611a925761169460446001600160a01b039201611e6a565b926116b36040805167ca6eab8c8c6df147602082015260208152611b74565b6116d16040805167b95291f5532962c1602082015260208152611b74565b169283600052600160205260406000206001600160a01b0384166000526020526040600020926117156040805167d54600ba499d0ad7602082015260208152611b74565b6117336040805167a12411e9e4564f67602082015260208152611b74565b6040516323b872dd60e01b8152336004820152306024820152604481018490529360208560648160008a5af19182156108a2576001600160a01b0360026020936118809861193796611ac5575b5061179d60408051674807015ac0c6d70a88820152878152611b74565b6117b9604080516710d3d5705e7b4d1888820152878152611b74565b01916118cc8354936001600160801b036117da8187169660801c878c611c6d565b9a8b966117f960408051675888b8064b1d15e08c8201528b8152611b74565b6118156040805167f576b63b5552636e8c8201528b8152611b74565b6118316040805167e4d1b061e7984f2f8c8201528b8152611b74565b61183f602435891015611e96565b61185b60408051678c723bf6712488758c8201528b8152611b74565b6118776040805167b69433d5d0a3ee258c8201528b8152611b74565b828c1690611ee1565b166fffffffffffffffffffffffffffffffff198254161781556118b5604080516727195b78cb6199c189820152888152611b74565b610e026001600160801b038616825460801c611f01565b6118e860408051679603e90096c706a487820152868152611b74565b611904604080516799974626953099b087820152868152611b74565b1693604051938492839263a9059cbb60e01b845260048401602090939291936001600160a01b0360408201951681520152565b03816000865af180156108a257611aa8575b5061196860408051672a14a6daa340fa56602082015260208152611b74565b60405193611977606086611b74565b60028552602085019360403686376119a36040805167178b6831d6b87af7602082015260208152611b74565b855115611a92578385526119cb60408051678c949ad74467c93f602082015260208152611b74565b855160011015611a925780604087969701526119fb6040805167c8d293ea701c6cbf602082015260208152611b74565b611a1960408051677fd9c0064763f058602082015260208152611b74565b60405193845260208401527fad56699d0f375866eb895ed27203058a36a713382aaded78eb6b67da266d433260403394a460016000556040519182916020830190602084525180915260408301919060005b818110611a79575050500390f35b8251845285945060209384019390920191600101611a6b565b634e487b7160e01b600052603260045260246000fd5b611ac09060203d60201161089b5761088e8183611b74565b611949565b611adb90863d881161089b5761088e8183611b74565b611780565b606460405162461bcd60e51b815260206004820152600c60248201527f696e76616c69645f7061746800000000000000000000000000000000000000006044820152fd5b3461095c57606036600319011261095c5760206112a2604435602435600435611c6d565b600435906001600160a01b038216820361095c57565b602435906001600160a01b038216820361095c57565b90601f8019910116810190811067ffffffffffffffff821117611b9657604052565b634e487b7160e01b600052604160045260246000fd5b906040516040810181811067ffffffffffffffff821117611b965760405291546001600160801b038116835260801c6020830152565b15611be957565b606460405162461bcd60e51b815260206004820152600a60248201527f7a65726f5f696e707574000000000000000000000000000000000000000000006044820152fd5b818102929181159184041417156112aa57565b919082018092116112aa57565b8115611c57570490565b634e487b7160e01b600052601260045260246000fd5b91611c8c60408051673f1643a17e972209602082015260208152611b74565b611caa60408051671fad8b62bac15b7f602082015260208152611b74565b611cc86040805167efb66768cc34f5f7602082015260208152611b74565b611ce66040805167a5804c8cefe9cd96602082015260208152611b74565b611cf1831515611be2565b611d0f6040805167b903d7d141483927602082015260208152611b74565b611d2c60408051665d082b0dab3473602082015260208152611b74565b611d4a60408051674bfe47ead1ac1e4c602082015260208152611b74565b611d68604080516739b283281a91d2c4602082015260208152611b74565b81151580611e16575b15611dd257611dcf92611dc3611dc992611d9f6040805167801b7095f9935698602082015260208152611b74565b611dbd60408051673de013647af12f6a602082015260208152611b74565b82611c2d565b92611c40565b90611c4d565b90565b606460405162461bcd60e51b815260206004820152600860248201527f6261645f726573760000000000000000000000000000000000000000000000006044820152fd5b50801515611d71565b15611e2657565b606460405162461bcd60e51b815260206004820152600760248201527f65787069726564000000000000000000000000000000000000000000000000006044820152fd5b356001600160a01b038116810361095c5790565b9081602091031261095c5751801515810361095c5790565b15611e9d57565b606460405162461bcd60e51b815260206004820152600860248201527f736c6970706167650000000000000000000000000000000000000000000000006044820152fd5b906001600160801b03809116911601906001600160801b0382116112aa57565b906001600160801b03809116911603906001600160801b0382116112aa57565b919082039182116112aa57565b600260005414611f3f576002600055565b7f3ee5aeb50000000000000000000000000000000000000000000000000000000060005260046000fdfea26469706673582212204d6ac2ec13503ceedb9609591c265147adae52b885896c5b8472ca00f2c1101464736f6c634300081c0033","opcodes":"PUSH1 0x80 DUP1 PUSH1 0x40 MSTORE CALLVALUE PUSH1 0x1A JUMPI PUSH1 0x1 PUSH1 0x0 SSTORE PUSH2 0x1F9F SWAP1 DUP2 PUSH2 0x20 DUP3 CODECOPY RETURN JUMPDEST PUSH1 0x0 DUP1 REVERT INVALID PUSH1 0x80 PUSH1 0x40 MSTORE PUSH1 0x4 CALLDATASIZE LT ISZERO PUSH2 0x12 JUMPI PUSH1 0x0 DUP1 REVERT JUMPDEST PUSH1 0x0 CALLDATALOAD PUSH1 0xE0 SHR DUP1 PUSH4 0x54D50D4 EQ PUSH2 0x1B24 JUMPI DUP1 PUSH4 0x38ED1739 EQ PUSH2 0x1399 JUMPI DUP1 PUSH4 0x69454B86 EQ PUSH2 0x131A JUMPI DUP1 PUSH4 0xAC41865A EQ PUSH2 0x10FC JUMPI DUP1 PUSH4 0xBAA2ABDE EQ PUSH2 0x961 JUMPI PUSH4 0xE8E33700 EQ PUSH2 0x5E JUMPI PUSH1 0x0 DUP1 REVERT JUMPDEST CALLVALUE PUSH2 0x95C JUMPI PUSH2 0x100 CALLDATASIZE PUSH1 0x3 NOT ADD SLT PUSH2 0x95C JUMPI PUSH2 0x78 PUSH2 0x1B48 JUMP JUMPDEST PUSH2 0x80 PUSH2 0x1B5E JUMP JUMPDEST SWAP1 PUSH1 0x44 CALLDATALOAD SWAP1 PUSH1 0x64 CALLDATALOAD PUSH1 0xC4 CALLDATALOAD SWAP4 PUSH1 0x1 PUSH1 0x1 PUSH1 0xA0 SHL SUB DUP6 AND DUP1 SWAP6 SUB PUSH2 0x95C JUMPI PUSH1 0x1 PUSH1 0x1 PUSH1 0xA0 SHL SUB DUP1 SWAP2 PUSH2 0xC5 PUSH1 0x40 DUP1 MLOAD PUSH8 0x9DF1BF80C8356423 PUSH1 0x20 DUP3 ADD MSTORE PUSH1 0x20 DUP2 MSTORE PUSH2 0x1B74 JUMP JUMPDEST PUSH2 0xCD PUSH2 0x1F2E JUMP JUMPDEST PUSH2 0xEB PUSH1 0x40 DUP1 MLOAD PUSH8 0x79CCE485CC687CA9 PUSH1 0x20 DUP3 ADD MSTORE PUSH1 0x20 DUP2 MSTORE PUSH2 0x1B74 JUMP JUMPDEST PUSH2 0x109 PUSH1 0x40 DUP1 MLOAD PUSH8 0x9116C454D16A0A0F PUSH1 0x20 DUP3 ADD MSTORE PUSH1 0x20 DUP2 MSTORE PUSH2 0x1B74 JUMP JUMPDEST PUSH2 0x127 PUSH1 0x40 DUP1 MLOAD PUSH8 0x8372299C806346DB PUSH1 0x20 DUP3 ADD MSTORE PUSH1 0x20 DUP2 MSTORE PUSH2 0x1B74 JUMP JUMPDEST PUSH2 0x145 PUSH1 0x40 DUP1 MLOAD PUSH8 0xC43090EE4BFE3224 PUSH1 0x20 DUP3 ADD MSTORE PUSH1 0x20 DUP2 MSTORE PUSH2 0x1B74 JUMP JUMPDEST PUSH2 0x163 PUSH1 0x40 DUP1 MLOAD PUSH8 0xE52F9BA555054C55 PUSH1 0x20 DUP3 ADD MSTORE PUSH1 0x20 DUP2 MSTORE PUSH2 0x1B74 JUMP JUMPDEST PUSH2 0x171 PUSH1 0xE4 CALLDATALOAD TIMESTAMP GT ISZERO PUSH2 0x1E1F JUMP JUMPDEST PUSH2 0x18F PUSH1 0x40 DUP1 MLOAD PUSH8 0x914C284B50ED81DB PUSH1 0x20 DUP3 ADD MSTORE PUSH1 0x20 DUP2 MSTORE PUSH2 0x1B74 JUMP JUMPDEST PUSH2 0x1AD PUSH1 0x40 DUP1 MLOAD PUSH8 0xD78820161CA7A5E4 PUSH1 0x20 DUP3 ADD MSTORE PUSH1 0x20 DUP2 MSTORE PUSH2 0x1B74 JUMP JUMPDEST PUSH2 0x1CB PUSH1 0x40 DUP1 MLOAD PUSH8 0xF16ACD54488F042E PUSH1 0x20 DUP3 ADD MSTORE PUSH1 0x20 DUP2 MSTORE PUSH2 0x1B74 JUMP JUMPDEST PUSH2 0x1E9 PUSH1 0x40 DUP1 MLOAD PUSH8 0x5D4BA97304E4F9EB PUSH1 0x20 DUP3 ADD MSTORE PUSH1 0x20 DUP2 MSTORE PUSH2 0x1B74 JUMP JUMPDEST AND SWAP3 AND SWAP4 DUP3 DUP6 EQ PUSH2 0x918 JUMPI PUSH2 0x212 PUSH1 0x40 DUP1 MLOAD PUSH8 0x3F8EE4FA56C1137A PUSH1 0x20 DUP3 ADD MSTORE PUSH1 0x20 DUP2 MSTORE PUSH2 0x1B74 JUMP JUMPDEST PUSH2 0x230 PUSH1 0x40 DUP1 MLOAD PUSH8 0x9A1E85F4E3EA27C4 PUSH1 0x20 DUP3 ADD MSTORE PUSH1 0x20 DUP2 MSTORE PUSH2 0x1B74 JUMP JUMPDEST PUSH2 0x24E PUSH1 0x40 DUP1 MLOAD PUSH8 0x47957F49F18EE842 PUSH1 0x20 DUP3 ADD MSTORE PUSH1 0x20 DUP2 MSTORE PUSH2 0x1B74 JUMP JUMPDEST PUSH2 0x26C PUSH1 0x40 DUP1 MLOAD PUSH8 0x1C094F206B8D4A34 PUSH1 0x20 DUP3 ADD MSTORE PUSH1 0x20 DUP2 MSTORE PUSH2 0x1B74 JUMP JUMPDEST DUP4 ISZERO ISZERO DUP1 PUSH2 0x90F JUMPI JUMPDEST ISZERO PUSH2 0x8CB JUMPI PUSH2 0x298 PUSH1 0x40 DUP1 MLOAD PUSH8 0x2F460C0D127A1D9C PUSH1 0x20 DUP3 ADD MSTORE PUSH1 0x20 DUP2 MSTORE PUSH2 0x1B74 JUMP JUMPDEST PUSH2 0x2B6 PUSH1 0x40 DUP1 MLOAD PUSH8 0x279F6DCC17DD5FC PUSH1 0x20 DUP3 ADD MSTORE PUSH1 0x20 DUP2 MSTORE PUSH2 0x1B74 JUMP JUMPDEST PUSH2 0x2D4 PUSH1 0x40 DUP1 MLOAD PUSH8 0xEE36442575A0E465 PUSH1 0x20 DUP3 ADD MSTORE PUSH1 0x20 DUP2 MSTORE PUSH2 0x1B74 JUMP JUMPDEST PUSH1 0x40 MLOAD PUSH4 0x23B872DD PUSH1 0xE0 SHL DUP2 MSTORE CALLER PUSH1 0x4 DUP3 ADD MSTORE ADDRESS PUSH1 0x24 DUP3 ADD MSTORE PUSH1 0x44 DUP2 ADD DUP6 SWAP1 MSTORE PUSH1 0x20 DUP2 PUSH1 0x64 DUP2 PUSH1 0x0 DUP11 GAS CALL DUP1 ISZERO PUSH2 0x8A2 JUMPI PUSH2 0x8AE JUMPI JUMPDEST POP PUSH2 0x329 PUSH1 0x40 DUP1 MLOAD PUSH8 0xA47FA3906C48945D PUSH1 0x20 DUP3 ADD MSTORE PUSH1 0x20 DUP2 MSTORE PUSH2 0x1B74 JUMP JUMPDEST PUSH2 0x347 PUSH1 0x40 DUP1 MLOAD PUSH8 0x192434B4303A282A PUSH1 0x20 DUP3 ADD MSTORE PUSH1 0x20 DUP2 MSTORE PUSH2 0x1B74 JUMP JUMPDEST PUSH1 0x40 MLOAD PUSH4 0x23B872DD PUSH1 0xE0 SHL DUP2 MSTORE CALLER PUSH1 0x4 DUP3 ADD MSTORE ADDRESS PUSH1 0x24 DUP3 ADD MSTORE PUSH1 0x44 DUP2 ADD DUP4 SWAP1 MSTORE SWAP3 PUSH1 0x20 DUP5 PUSH1 0x64 DUP2 PUSH1 0x0 DUP6 GAS CALL SWAP4 DUP5 ISZERO PUSH2 0x8A2 JUMPI PUSH2 0x732 SWAP5 PUSH2 0x875 JUMPI JUMPDEST POP PUSH2 0x3A2 PUSH1 0x40 DUP1 MLOAD PUSH8 0x5076290DD98E526F PUSH1 0x20 DUP3 ADD MSTORE PUSH1 0x20 DUP2 MSTORE PUSH2 0x1B74 JUMP JUMPDEST PUSH2 0x3C0 PUSH1 0x40 DUP1 MLOAD PUSH8 0xFF2A353D561C761 PUSH1 0x20 DUP3 ADD MSTORE PUSH1 0x20 DUP2 MSTORE PUSH2 0x1B74 JUMP JUMPDEST DUP6 PUSH1 0x0 MSTORE PUSH1 0x1 PUSH1 0x20 MSTORE PUSH1 0x40 DUP1 PUSH1 0x0 KECCAK256 PUSH1 0x0 SWAP1 DUP4 DUP3 MSTORE PUSH1 0x20 MSTORE KECCAK256 SWAP6 PUSH2 0x3F8 PUSH1 0x40 DUP1 MLOAD PUSH8 0xB723FF646E70897 PUSH1 0x20 DUP3 ADD MSTORE PUSH1 0x20 DUP2 MSTORE PUSH2 0x1B74 JUMP JUMPDEST PUSH2 0x416 PUSH1 0x40 DUP1 MLOAD PUSH8 0xF4B86756DA1AF3A9 PUSH1 0x20 DUP3 ADD MSTORE PUSH1 0x20 DUP2 MSTORE PUSH2 0x1B74 JUMP JUMPDEST PUSH1 0x1 PUSH1 0x2 DUP9 ADD SLOAD SWAP8 PUSH1 0x1 PUSH1 0x1 PUSH1 0x80 SHL SUB DUP10 AND SWAP6 PUSH2 0x447 PUSH1 0x40 DUP1 MLOAD PUSH8 0x51789F3A79F8738C PUSH1 0x20 DUP3 ADD MSTORE PUSH1 0x20 DUP2 MSTORE PUSH2 0x1B74 JUMP JUMPDEST PUSH2 0x465 PUSH1 0x40 DUP1 MLOAD PUSH8 0xADA87ED5B2FD2BC4 PUSH1 0x20 DUP3 ADD MSTORE PUSH1 0x20 DUP2 MSTORE PUSH2 0x1B74 JUMP JUMPDEST PUSH2 0x483 PUSH1 0x40 DUP1 MLOAD PUSH8 0xC140F012E67899D6 PUSH1 0x20 DUP3 ADD MSTORE PUSH1 0x20 DUP2 MSTORE PUSH2 0x1B74 JUMP JUMPDEST PUSH2 0x4A1 PUSH1 0x40 DUP1 MLOAD PUSH8 0x2668290C5312CCDC PUSH1 0x20 DUP3 ADD MSTORE PUSH1 0x20 DUP2 MSTORE PUSH2 0x1B74 JUMP JUMPDEST DUP7 ISZERO SWAP1 DUP8 DUP3 SWAP12 DUP4 ISZERO SWAP4 DUP5 PUSH2 0x837 JUMPI JUMPDEST DUP1 PUSH2 0x7FA JUMPI JUMPDEST ISZERO PUSH2 0x7E2 JUMPI POP POP SWAP10 JUMPDEST PUSH2 0x4DD PUSH1 0x40 DUP1 MLOAD PUSH8 0x2F3236D6EA06EE60 PUSH1 0x20 DUP3 ADD MSTORE PUSH1 0x20 DUP2 MSTORE PUSH2 0x1B74 JUMP JUMPDEST PUSH2 0x4FB PUSH1 0x40 DUP1 MLOAD PUSH8 0xABDCF221A01B4B5B PUSH1 0x20 DUP3 ADD MSTORE PUSH1 0x20 DUP2 MSTORE PUSH2 0x1B74 JUMP JUMPDEST PUSH2 0x519 PUSH1 0x40 DUP1 MLOAD PUSH8 0x2614862CF3C28A9A PUSH1 0x20 DUP3 ADD MSTORE PUSH1 0x20 DUP2 MSTORE PUSH2 0x1B74 JUMP JUMPDEST PUSH1 0x84 CALLDATALOAD DUP11 LT ISZERO DUP1 PUSH2 0x7D6 JUMPI JUMPDEST PUSH2 0x52E SWAP1 PUSH2 0x1E96 JUMP JUMPDEST PUSH2 0x54C PUSH1 0x40 DUP1 MLOAD PUSH8 0xDF3BD8CE40F50AA2 PUSH1 0x20 DUP3 ADD MSTORE PUSH1 0x20 DUP2 MSTORE PUSH2 0x1B74 JUMP JUMPDEST PUSH2 0x56A PUSH1 0x40 DUP1 MLOAD PUSH8 0xBFA2BC9092E4D89C PUSH1 0x20 DUP3 ADD MSTORE PUSH1 0x20 DUP2 MSTORE PUSH2 0x1B74 JUMP JUMPDEST SWAP1 PUSH2 0x798 JUMPI JUMPDEST DUP1 PUSH2 0x75B JUMPI JUMPDEST ISZERO PUSH2 0x736 JUMPI PUSH1 0x1 PUSH1 0x1 PUSH1 0x80 SHL SUB PUSH2 0x5B0 DUP10 SWAP8 JUMPDEST PUSH2 0x5A7 PUSH1 0x40 DUP1 MLOAD PUSH8 0x344E0700FF2FFE78 PUSH1 0x20 DUP3 ADD MSTORE PUSH1 0x20 DUP2 MSTORE PUSH2 0x1B74 JUMP JUMPDEST DUP3 DUP12 AND SWAP1 PUSH2 0x1EE1 JUMP JUMPDEST AND PUSH16 0xFFFFFFFFFFFFFFFFFFFFFFFFFFFFFFFF NOT PUSH1 0x2 DUP4 ADD SLOAD AND OR PUSH1 0x2 DUP3 ADD SSTORE PUSH2 0x5ED PUSH1 0x40 DUP1 MLOAD PUSH8 0x7B3B8E1CB2DDCCE1 PUSH1 0x20 DUP3 ADD MSTORE PUSH1 0x20 DUP2 MSTORE PUSH2 0x1B74 JUMP JUMPDEST PUSH2 0x637 PUSH2 0x60A PUSH1 0x1 PUSH1 0x1 PUSH1 0x80 SHL SUB DUP12 AND PUSH1 0x2 DUP5 ADD SLOAD PUSH1 0x80 SHR PUSH2 0x1EE1 JUMP JUMPDEST PUSH1 0x2 DUP4 ADD SWAP1 PUSH1 0x1 PUSH1 0x1 PUSH1 0x80 SHL SUB PUSH16 0xFFFFFFFFFFFFFFFFFFFFFFFFFFFFFFFF NOT DUP4 SLOAD SWAP3 PUSH1 0x80 SHL AND SWAP2 AND OR SWAP1 SSTORE JUMP JUMPDEST PUSH2 0x655 PUSH1 0x40 DUP1 MLOAD PUSH8 0x1EDCC6E4AF8BD490 PUSH1 0x20 DUP3 ADD MSTORE PUSH1 0x20 DUP2 MSTORE PUSH2 0x1B74 JUMP JUMPDEST PUSH2 0x660 DUP7 DUP3 SLOAD PUSH2 0x1C40 JUMP JUMPDEST DUP2 SSTORE PUSH2 0x680 PUSH1 0x40 DUP1 MLOAD PUSH8 0xA79E56BE70343264 PUSH1 0x20 DUP3 ADD MSTORE PUSH1 0x20 DUP2 MSTORE PUSH2 0x1B74 JUMP JUMPDEST DUP5 PUSH1 0x0 MSTORE ADD PUSH1 0x20 MSTORE PUSH1 0x40 PUSH1 0x0 KECCAK256 PUSH2 0x698 DUP6 DUP3 SLOAD PUSH2 0x1C40 JUMP JUMPDEST SWAP1 SSTORE PUSH2 0x6B8 PUSH1 0x40 DUP1 MLOAD PUSH8 0x534EF0E6EF3BE2DA PUSH1 0x20 DUP3 ADD MSTORE PUSH1 0x20 DUP2 MSTORE PUSH2 0x1B74 JUMP JUMPDEST PUSH2 0x6D6 PUSH1 0x40 DUP1 MLOAD PUSH8 0x247AE026384D72EE PUSH1 0x20 DUP3 ADD MSTORE PUSH1 0x20 DUP2 MSTORE PUSH2 0x1B74 JUMP JUMPDEST PUSH1 0x40 DUP1 MLOAD DUP8 DUP2 MSTORE PUSH1 0x20 DUP2 ADD DUP10 SWAP1 MSTORE SWAP1 DUP2 ADD DUP6 SWAP1 MSTORE PUSH32 0x43C967B388D3A4CCAD3F7AB80167852E322E5A3FDE9893F530252281B2AE8B70 SWAP1 PUSH1 0x60 SWAP1 LOG4 PUSH1 0x1 PUSH1 0x0 SSTORE PUSH1 0x40 MLOAD SWAP4 DUP5 SWAP4 DUP5 PUSH1 0x40 SWAP2 SWAP5 SWAP4 SWAP3 PUSH1 0x60 DUP3 ADD SWAP6 DUP3 MSTORE PUSH1 0x20 DUP3 ADD MSTORE ADD MSTORE JUMP JUMPDEST SUB SWAP1 RETURN JUMPDEST PUSH1 0x1 PUSH1 0x1 PUSH1 0x80 SHL SUB PUSH2 0x5B0 PUSH2 0x755 DUP9 PUSH2 0x750 DUP6 SLOAD DUP14 PUSH2 0x1C2D JUMP JUMPDEST PUSH2 0x1C4D JUMP JUMPDEST SWAP8 PUSH2 0x589 JUMP JUMPDEST POP PUSH2 0x792 PUSH1 0x40 DUP1 MLOAD PUSH32 0xBD67AA57FB87414A000000000000000000000000000000000000000000000000 PUSH1 0x20 DUP3 ADD MSTORE PUSH1 0x20 DUP2 MSTORE PUSH2 0x1B74 JUMP JUMPDEST DUP2 PUSH2 0x576 JUMP JUMPDEST POP PUSH2 0x7CF PUSH1 0x40 DUP1 MLOAD PUSH32 0xD136339ADD1E1301000000000000000000000000000000000000000000000000 PUSH1 0x20 DUP3 ADD MSTORE PUSH1 0x20 DUP2 MSTORE PUSH2 0x1B74 JUMP JUMPDEST PUSH1 0x0 PUSH2 0x570 JUMP JUMPDEST POP PUSH1 0xA4 CALLDATALOAD DUP12 LT ISZERO PUSH2 0x525 JUMP JUMPDEST PUSH2 0x7F4 SWAP3 POP PUSH2 0x750 SWAP1 PUSH1 0x80 SHR DUP13 PUSH2 0x1C2D JUMP JUMPDEST SWAP10 PUSH2 0x4BF JUMP JUMPDEST POP PUSH2 0x831 PUSH1 0x40 DUP1 MLOAD PUSH32 0x98DD592F78F3331A000000000000000000000000000000000000000000000000 PUSH1 0x20 DUP3 ADD MSTORE PUSH1 0x20 DUP2 MSTORE PUSH2 0x1B74 JUMP JUMPDEST DUP6 PUSH2 0x4B6 JUMP JUMPDEST POP PUSH2 0x86E PUSH1 0x40 DUP1 MLOAD PUSH32 0x859053753F0E12EF000000000000000000000000000000000000000000000000 PUSH1 0x20 DUP3 ADD MSTORE PUSH1 0x20 DUP2 MSTORE PUSH2 0x1B74 JUMP JUMPDEST PUSH1 0x0 PUSH2 0x4B0 JUMP JUMPDEST PUSH2 0x896 SWAP1 PUSH1 0x20 RETURNDATASIZE PUSH1 0x20 GT PUSH2 0x89B JUMPI JUMPDEST PUSH2 0x88E DUP2 DUP4 PUSH2 0x1B74 JUMP JUMPDEST DUP2 ADD SWAP1 PUSH2 0x1E7E JUMP JUMPDEST PUSH2 0x383 JUMP JUMPDEST POP RETURNDATASIZE PUSH2 0x884 JUMP JUMPDEST PUSH1 0x40 MLOAD RETURNDATASIZE PUSH1 0x0 DUP3 RETURNDATACOPY RETURNDATASIZE SWAP1 REVERT JUMPDEST PUSH2 0x8C6 SWAP1 PUSH1 0x20 RETURNDATASIZE PUSH1 0x20 GT PUSH2 0x89B JUMPI PUSH2 0x88E DUP2 DUP4 PUSH2 0x1B74 JUMP JUMPDEST PUSH2 0x30A JUMP JUMPDEST PUSH1 0x64 PUSH1 0x40 MLOAD PUSH3 0x461BCD PUSH1 0xE5 SHL DUP2 MSTORE PUSH1 0x20 PUSH1 0x4 DUP3 ADD MSTORE PUSH1 0xB PUSH1 0x24 DUP3 ADD MSTORE PUSH32 0x696E76616C69645F616D74000000000000000000000000000000000000000000 PUSH1 0x44 DUP3 ADD MSTORE REVERT JUMPDEST POP DUP2 ISZERO ISZERO PUSH2 0x275 JUMP JUMPDEST PUSH1 0x64 PUSH1 0x40 MLOAD PUSH3 0x461BCD PUSH1 0xE5 SHL DUP2 MSTORE PUSH1 0x20 PUSH1 0x4 DUP3 ADD MSTORE PUSH1 0x9 PUSH1 0x24 DUP3 ADD MSTORE PUSH32 0x6964656E746963616C0000000000000000000000000000000000000000000000 PUSH1 0x44 DUP3 ADD MSTORE REVERT JUMPDEST PUSH1 0x0 DUP1 REVERT JUMPDEST CALLVALUE PUSH2 0x95C JUMPI PUSH1 0xE0 CALLDATASIZE PUSH1 0x3 NOT ADD SLT PUSH2 0x95C JUMPI PUSH2 0x97A PUSH2 0x1B48 JUMP JUMPDEST PUSH2 0x982 PUSH2 0x1B5E JUMP JUMPDEST SWAP1 PUSH1 0x44 CALLDATALOAD PUSH1 0xA4 CALLDATALOAD SWAP2 PUSH1 0x1 PUSH1 0x1 PUSH1 0xA0 SHL SUB DUP4 AND DUP4 SUB PUSH2 0x95C JUMPI PUSH2 0x9B8 PUSH1 0x40 DUP1 MLOAD PUSH8 0xEAE36F4AB6CD2E47 PUSH1 0x20 DUP3 ADD MSTORE PUSH1 0x20 DUP2 MSTORE PUSH2 0x1B74 JUMP JUMPDEST PUSH2 0x9C0 PUSH2 0x1F2E JUMP JUMPDEST PUSH2 0x9DE PUSH1 0x40 DUP1 MLOAD PUSH8 0x93E8000034806279 PUSH1 0x20 DUP3 ADD MSTORE PUSH1 0x20 DUP2 MSTORE PUSH2 0x1B74 JUMP JUMPDEST PUSH2 0x9FC PUSH1 0x40 DUP1 MLOAD PUSH8 0xB929A804D83FEDC2 PUSH1 0x20 DUP3 ADD MSTORE PUSH1 0x20 DUP2 MSTORE PUSH2 0x1B74 JUMP JUMPDEST PUSH2 0xA1A PUSH1 0x40 DUP1 MLOAD PUSH8 0xA3EA398D7924824 PUSH1 0x20 DUP3 ADD MSTORE PUSH1 0x20 DUP2 MSTORE PUSH2 0x1B74 JUMP JUMPDEST PUSH2 0xA38 PUSH1 0x40 DUP1 MLOAD PUSH8 0x105CD13E26F6AF0E PUSH1 0x20 DUP3 ADD MSTORE PUSH1 0x20 DUP2 MSTORE PUSH2 0x1B74 JUMP JUMPDEST PUSH2 0xA56 PUSH1 0x40 DUP1 MLOAD PUSH8 0xB7849EA121EA8949 PUSH1 0x20 DUP3 ADD MSTORE PUSH1 0x20 DUP2 MSTORE PUSH2 0x1B74 JUMP JUMPDEST PUSH2 0xA64 PUSH1 0xC4 CALLDATALOAD TIMESTAMP GT ISZERO PUSH2 0x1E1F JUMP JUMPDEST PUSH2 0xA82 PUSH1 0x40 DUP1 MLOAD PUSH8 0x2C40697AFCB06829 PUSH1 0x20 DUP3 ADD MSTORE PUSH1 0x20 DUP2 MSTORE PUSH2 0x1B74 JUMP JUMPDEST PUSH2 0xAA0 PUSH1 0x40 DUP1 MLOAD PUSH8 0xC06C8758AE0D93D8 PUSH1 0x20 DUP3 ADD MSTORE PUSH1 0x20 DUP2 MSTORE PUSH2 0x1B74 JUMP JUMPDEST PUSH2 0xABE PUSH1 0x40 DUP1 MLOAD PUSH8 0xB00C5D426F411734 PUSH1 0x20 DUP3 ADD MSTORE PUSH1 0x20 DUP2 MSTORE PUSH2 0x1B74 JUMP JUMPDEST PUSH2 0xADC PUSH1 0x40 DUP1 MLOAD PUSH8 0xE830169071E4ABA1 PUSH1 0x20 DUP3 ADD MSTORE PUSH1 0x20 DUP2 MSTORE PUSH2 0x1B74 JUMP JUMPDEST DUP2 ISZERO PUSH2 0x10B8 JUMPI PUSH1 0x1 PUSH1 0x1 PUSH1 0xA0 SHL SUB SWAP1 PUSH2 0xB09 PUSH1 0x40 DUP1 MLOAD PUSH8 0xD411D82A376E53DB PUSH1 0x20 DUP3 ADD MSTORE PUSH1 0x20 DUP2 MSTORE PUSH2 0x1B74 JUMP JUMPDEST PUSH2 0xB27 PUSH1 0x40 DUP1 MLOAD PUSH8 0xF1EEBB0426B59446 PUSH1 0x20 DUP3 ADD MSTORE PUSH1 0x20 DUP2 MSTORE PUSH2 0x1B74 JUMP JUMPDEST PUSH2 0xB45 PUSH1 0x40 DUP1 MLOAD PUSH8 0xADE5442BC3A227F PUSH1 0x20 DUP3 ADD MSTORE PUSH1 0x20 DUP2 MSTORE PUSH2 0x1B74 JUMP JUMPDEST AND SWAP1 DUP2 PUSH1 0x0 MSTORE PUSH1 0x1 PUSH1 0x20 MSTORE PUSH1 0x40 DUP1 PUSH1 0x0 KECCAK256 PUSH1 0x0 SWAP1 PUSH1 0x1 PUSH1 0x1 PUSH1 0xA0 SHL SUB DUP8 AND DUP3 MSTORE PUSH1 0x20 MSTORE KECCAK256 SWAP3 PUSH2 0xB88 PUSH1 0x40 DUP1 MLOAD PUSH8 0x2835760E77FCA10D PUSH1 0x20 DUP3 ADD MSTORE PUSH1 0x20 DUP2 MSTORE PUSH2 0x1B74 JUMP JUMPDEST PUSH2 0xBA6 PUSH1 0x40 DUP1 MLOAD PUSH8 0x6F7EDBCB3509AE1F PUSH1 0x20 DUP3 ADD MSTORE PUSH1 0x20 DUP2 MSTORE PUSH2 0x1B74 JUMP JUMPDEST PUSH2 0xBC4 PUSH1 0x40 DUP1 MLOAD PUSH8 0xECE9325B614FA5C8 PUSH1 0x20 DUP3 ADD MSTORE PUSH1 0x20 DUP2 MSTORE PUSH2 0x1B74 JUMP JUMPDEST PUSH1 0x1 DUP5 ADD SWAP3 PUSH1 0x1 PUSH1 0x1 PUSH1 0xA0 SHL SUB CALLER AND PUSH1 0x0 MSTORE DUP4 PUSH1 0x20 MSTORE DUP3 PUSH1 0x40 PUSH1 0x0 KECCAK256 SLOAD LT PUSH2 0x1074 JUMPI PUSH2 0xC04 PUSH1 0x40 DUP1 MLOAD PUSH8 0x750EC41051CEBFC6 PUSH1 0x20 DUP3 ADD MSTORE PUSH1 0x20 DUP2 MSTORE PUSH2 0x1B74 JUMP JUMPDEST PUSH2 0xC22 PUSH1 0x40 DUP1 MLOAD PUSH8 0x377A3650D3FEC259 PUSH1 0x20 DUP3 ADD MSTORE PUSH1 0x20 DUP2 MSTORE PUSH2 0x1B74 JUMP JUMPDEST PUSH2 0xC40 PUSH1 0x40 DUP1 MLOAD PUSH8 0xCCCA18F3348FF82F PUSH1 0x20 DUP3 ADD MSTORE PUSH1 0x20 DUP2 MSTORE PUSH2 0x1B74 JUMP JUMPDEST PUSH1 0x2 DUP6 ADD SWAP4 DUP5 SLOAD SWAP6 PUSH2 0xE2A PUSH1 0x1 PUSH1 0x1 PUSH1 0x80 SHL SUB DUP9 AND SWAP7 PUSH2 0xC74 PUSH1 0x40 DUP1 MLOAD PUSH8 0x11B9A21A50880F4C PUSH1 0x20 DUP3 ADD MSTORE PUSH1 0x20 DUP2 MSTORE PUSH2 0x1B74 JUMP JUMPDEST PUSH2 0xC92 PUSH1 0x40 DUP1 MLOAD PUSH8 0x3C5F76B55D09C1C8 PUSH1 0x20 DUP3 ADD MSTORE PUSH1 0x20 DUP2 MSTORE PUSH2 0x1B74 JUMP JUMPDEST PUSH2 0xCB0 PUSH1 0x40 DUP1 MLOAD PUSH8 0x17C37B9711A884A9 PUSH1 0x20 DUP3 ADD MSTORE PUSH1 0x20 DUP2 MSTORE PUSH2 0x1B74 JUMP JUMPDEST PUSH1 0x1 PUSH1 0x1 PUSH1 0x80 SHL SUB PUSH2 0xDB4 PUSH2 0xCFF PUSH2 0xCC8 DUP12 DUP12 PUSH2 0x1C2D JUMP JUMPDEST PUSH2 0x750 PUSH2 0xCD7 DUP9 SLOAD DUP1 SWAP4 PUSH2 0x1C4D JUMP JUMPDEST SWAP14 PUSH2 0xCF6 PUSH1 0x40 DUP1 MLOAD PUSH8 0x9FF138248C7E4A90 PUSH1 0x20 DUP3 ADD MSTORE PUSH1 0x20 DUP2 MSTORE PUSH2 0x1B74 JUMP JUMPDEST PUSH1 0x80 SHR DUP13 PUSH2 0x1C2D JUMP JUMPDEST SWAP10 PUSH2 0xD1E PUSH1 0x40 DUP1 MLOAD PUSH8 0x89F5D55623A0BFAF PUSH1 0x20 DUP3 ADD MSTORE PUSH1 0x20 DUP2 MSTORE PUSH2 0x1B74 JUMP JUMPDEST PUSH2 0xD3C PUSH1 0x40 DUP1 MLOAD PUSH8 0xB73A58D095B5ED6D PUSH1 0x20 DUP3 ADD MSTORE PUSH1 0x20 DUP2 MSTORE PUSH2 0x1B74 JUMP JUMPDEST PUSH2 0xD5A PUSH1 0x40 DUP1 MLOAD PUSH8 0xF7F97522572A66EA PUSH1 0x20 DUP3 ADD MSTORE PUSH1 0x20 DUP2 MSTORE PUSH2 0x1B74 JUMP JUMPDEST PUSH1 0x64 CALLDATALOAD DUP13 LT ISZERO DUP1 PUSH2 0x1068 JUMPI JUMPDEST PUSH2 0xD6F SWAP1 PUSH2 0x1E96 JUMP JUMPDEST PUSH2 0xD8D PUSH1 0x40 DUP1 MLOAD PUSH8 0xFB4F4D81D787CC7A PUSH1 0x20 DUP3 ADD MSTORE PUSH1 0x20 DUP2 MSTORE PUSH2 0x1B74 JUMP JUMPDEST PUSH2 0xDAB PUSH1 0x40 DUP1 MLOAD PUSH8 0x916563991F471866 PUSH1 0x20 DUP3 ADD MSTORE PUSH1 0x20 DUP2 MSTORE PUSH2 0x1B74 JUMP JUMPDEST DUP3 DUP13 AND SWAP1 PUSH2 0x1F01 JUMP JUMPDEST AND PUSH16 0xFFFFFFFFFFFFFFFFFFFFFFFFFFFFFFFF NOT DUP3 SLOAD AND OR DUP2 SSTORE PUSH2 0xDEB PUSH1 0x40 DUP1 MLOAD PUSH8 0xE1A06FD1DCFADA32 PUSH1 0x20 DUP3 ADD MSTORE PUSH1 0x20 DUP2 MSTORE PUSH2 0x1B74 JUMP JUMPDEST PUSH2 0xE02 PUSH1 0x1 PUSH1 0x1 PUSH1 0x80 SHL SUB DUP10 AND DUP3 SLOAD PUSH1 0x80 SHR PUSH2 0x1F01 JUMP JUMPDEST PUSH1 0x1 PUSH1 0x1 PUSH1 0x80 SHL SUB PUSH16 0xFFFFFFFFFFFFFFFFFFFFFFFFFFFFFFFF NOT DUP4 SLOAD SWAP3 PUSH1 0x80 SHL AND SWAP2 AND OR SWAP1 SSTORE JUMP JUMPDEST PUSH2 0xE48 PUSH1 0x40 DUP1 MLOAD PUSH8 0xF76500020224DD69 PUSH1 0x20 DUP3 ADD MSTORE PUSH1 0x20 DUP2 MSTORE PUSH2 0x1B74 JUMP JUMPDEST PUSH2 0xE53 DUP6 DUP3 SLOAD PUSH2 0x1F21 JUMP JUMPDEST SWAP1 SSTORE PUSH2 0xE73 PUSH1 0x40 DUP1 MLOAD PUSH8 0x9CF6FB62FE4F1391 PUSH1 0x20 DUP3 ADD MSTORE PUSH1 0x20 DUP2 MSTORE PUSH2 0x1B74 JUMP JUMPDEST PUSH1 0x1 PUSH1 0x1 PUSH1 0xA0 SHL SUB CALLER AND PUSH1 0x0 MSTORE PUSH1 0x20 MSTORE PUSH1 0x40 PUSH1 0x0 KECCAK256 PUSH2 0xE93 DUP5 DUP3 SLOAD PUSH2 0x1F21 JUMP JUMPDEST SWAP1 SSTORE PUSH2 0xEB3 PUSH1 0x40 DUP1 MLOAD PUSH8 0xA5162C89B7C22997 PUSH1 0x20 DUP3 ADD MSTORE PUSH1 0x20 DUP2 MSTORE PUSH2 0x1B74 JUMP JUMPDEST PUSH2 0xED1 PUSH1 0x40 DUP1 MLOAD PUSH8 0x7B0E07E2A51835FB PUSH1 0x20 DUP3 ADD MSTORE PUSH1 0x20 DUP2 MSTORE PUSH2 0x1B74 JUMP JUMPDEST PUSH1 0x40 MLOAD PUSH4 0xA9059CBB PUSH1 0xE0 SHL DUP2 MSTORE PUSH1 0x1 PUSH1 0x1 PUSH1 0xA0 SHL SUB DUP4 AND PUSH1 0x4 DUP3 ADD MSTORE PUSH1 0x24 DUP2 ADD DUP7 SWAP1 MSTORE SWAP6 PUSH1 0x20 DUP8 PUSH1 0x44 DUP2 PUSH1 0x0 DUP7 GAS CALL SWAP7 DUP8 ISZERO PUSH2 0x8A2 JUMPI PUSH1 0x1 PUSH1 0x1 PUSH1 0xA0 SHL SUB PUSH1 0x20 SWAP3 DUP8 SWAP3 PUSH2 0xF89 SWAP11 PUSH2 0x104D JUMPI JUMPDEST POP PUSH2 0xF3A PUSH1 0x40 DUP1 MLOAD PUSH8 0x15576161349FD017 DUP8 DUP3 ADD MSTORE DUP7 DUP2 MSTORE PUSH2 0x1B74 JUMP JUMPDEST PUSH2 0xF56 PUSH1 0x40 DUP1 MLOAD PUSH8 0x6B0D41BF659F1006 DUP8 DUP3 ADD MSTORE DUP7 DUP2 MSTORE PUSH2 0x1B74 JUMP JUMPDEST AND SWAP4 PUSH1 0x40 MLOAD SWAP9 DUP10 SWAP3 DUP4 SWAP3 PUSH4 0xA9059CBB PUSH1 0xE0 SHL DUP5 MSTORE PUSH1 0x4 DUP5 ADD PUSH1 0x20 SWAP1 SWAP4 SWAP3 SWAP2 SWAP4 PUSH1 0x1 PUSH1 0x1 PUSH1 0xA0 SHL SUB PUSH1 0x40 DUP3 ADD SWAP6 AND DUP2 MSTORE ADD MSTORE JUMP JUMPDEST SUB DUP2 PUSH1 0x0 DUP7 GAS CALL SWAP6 DUP7 ISZERO PUSH2 0x8A2 JUMPI PUSH1 0x40 SWAP7 PUSH2 0x1030 JUMPI JUMPDEST POP PUSH2 0xFBD DUP7 DUP1 MLOAD PUSH8 0xDD37CC846275CCAD PUSH1 0x20 DUP3 ADD MSTORE PUSH1 0x20 DUP2 MSTORE PUSH2 0x1B74 JUMP JUMPDEST PUSH2 0xFDA DUP7 DUP1 MLOAD PUSH8 0x8C58C51C51C690A2 PUSH1 0x20 DUP3 ADD MSTORE PUSH1 0x20 DUP2 MSTORE PUSH2 0x1B74 JUMP JUMPDEST PUSH32 0xD765E08EEF31C0983ECCA03ECD166297AC485ECD5DD69E291C848F0A020333C1 DUP7 MLOAD DUP1 PUSH2 0x101C CALLER SWAP7 DUP9 DUP11 DUP5 PUSH1 0x40 SWAP2 SWAP5 SWAP4 SWAP3 PUSH1 0x60 DUP3 ADD SWAP6 DUP3 MSTORE PUSH1 0x20 DUP3 ADD MSTORE ADD MSTORE JUMP JUMPDEST SUB SWAP1 LOG4 PUSH1 0x1 PUSH1 0x0 SSTORE DUP3 MLOAD SWAP2 DUP3 MSTORE PUSH1 0x20 DUP3 ADD MSTORE RETURN JUMPDEST PUSH2 0x1048 SWAP1 PUSH1 0x20 RETURNDATASIZE PUSH1 0x20 GT PUSH2 0x89B JUMPI PUSH2 0x88E DUP2 DUP4 PUSH2 0x1B74 JUMP JUMPDEST PUSH2 0xF9F JUMP JUMPDEST PUSH2 0x1063 SWAP1 DUP6 RETURNDATASIZE DUP8 GT PUSH2 0x89B JUMPI PUSH2 0x88E DUP2 DUP4 PUSH2 0x1B74 JUMP JUMPDEST PUSH2 0xF1D JUMP JUMPDEST POP PUSH1 0x84 CALLDATALOAD DUP12 LT ISZERO PUSH2 0xD66 JUMP JUMPDEST PUSH1 0x64 PUSH1 0x40 MLOAD PUSH3 0x461BCD PUSH1 0xE5 SHL DUP2 MSTORE PUSH1 0x20 PUSH1 0x4 DUP3 ADD MSTORE PUSH1 0xA PUSH1 0x24 DUP3 ADD MSTORE PUSH32 0x696E737566665F62616C00000000000000000000000000000000000000000000 PUSH1 0x44 DUP3 ADD MSTORE REVERT JUMPDEST PUSH1 0x64 PUSH1 0x40 MLOAD PUSH3 0x461BCD PUSH1 0xE5 SHL DUP2 MSTORE PUSH1 0x20 PUSH1 0x4 DUP3 ADD MSTORE PUSH1 0x8 PUSH1 0x24 DUP3 ADD MSTORE PUSH32 0x7A65726F5F6C6971000000000000000000000000000000000000000000000000 PUSH1 0x44 DUP3 ADD MSTORE REVERT JUMPDEST CALLVALUE PUSH2 0x95C JUMPI PUSH1 0x40 CALLDATASIZE PUSH1 0x3 NOT ADD SLT PUSH2 0x95C JUMPI PUSH2 0x1115 PUSH2 0x1B48 JUMP JUMPDEST PUSH1 0x1 PUSH1 0x1 PUSH1 0xA0 SHL SUB PUSH2 0x1125 PUSH2 0x1B5E JUMP JUMPDEST SWAP2 PUSH2 0x1144 PUSH1 0x40 DUP1 MLOAD PUSH8 0x4E9DD48FA333A397 PUSH1 0x20 DUP3 ADD MSTORE PUSH1 0x20 DUP2 MSTORE PUSH2 0x1B74 JUMP JUMPDEST PUSH2 0x1162 PUSH1 0x40 DUP1 MLOAD PUSH8 0xA8F55D47E97E96F PUSH1 0x20 DUP3 ADD MSTORE PUSH1 0x20 DUP2 MSTORE PUSH2 0x1B74 JUMP JUMPDEST PUSH2 0x1180 PUSH1 0x40 DUP1 MLOAD PUSH8 0x1B550DF0F1FB3669 PUSH1 0x20 DUP3 ADD MSTORE PUSH1 0x20 DUP2 MSTORE PUSH2 0x1B74 JUMP JUMPDEST AND PUSH1 0x0 MSTORE PUSH1 0x1 PUSH1 0x20 MSTORE PUSH1 0x1 PUSH1 0x1 PUSH1 0xA0 SHL SUB PUSH1 0x40 PUSH1 0x0 KECCAK256 SWAP2 AND PUSH1 0x0 MSTORE PUSH1 0x20 MSTORE PUSH2 0x11AE PUSH1 0x2 PUSH1 0x40 PUSH1 0x0 KECCAK256 ADD PUSH2 0x1BAC JUMP JUMPDEST PUSH2 0x11CC PUSH1 0x40 DUP1 MLOAD PUSH8 0x9EC6D1C85F1192C9 PUSH1 0x20 DUP3 ADD MSTORE PUSH1 0x20 DUP2 MSTORE PUSH2 0x1B74 JUMP JUMPDEST PUSH2 0x11EA PUSH1 0x40 DUP1 MLOAD PUSH8 0x375B51FE2A6AFA68 PUSH1 0x20 DUP3 ADD MSTORE PUSH1 0x20 DUP2 MSTORE PUSH2 0x1B74 JUMP JUMPDEST PUSH2 0x1208 PUSH1 0x40 DUP1 MLOAD PUSH8 0xC3BC104516919126 PUSH1 0x20 DUP3 ADD MSTORE PUSH1 0x20 DUP2 MSTORE PUSH2 0x1B74 JUMP JUMPDEST PUSH1 0x1 PUSH1 0x1 PUSH1 0x80 SHL SUB DUP2 MLOAD AND ISZERO ISZERO DUP1 PUSH2 0x1304 JUMPI JUMPDEST ISZERO PUSH2 0x12C0 JUMPI PUSH2 0x123E PUSH1 0x40 DUP1 MLOAD PUSH8 0x7CBD13C5F9BA451F PUSH1 0x20 DUP3 ADD MSTORE PUSH1 0x20 DUP2 MSTORE PUSH2 0x1B74 JUMP JUMPDEST PUSH2 0x125C PUSH1 0x40 DUP1 MLOAD PUSH8 0x27B932524D190784 PUSH1 0x20 DUP3 ADD MSTORE PUSH1 0x20 DUP2 MSTORE PUSH2 0x1B74 JUMP JUMPDEST PUSH1 0x1 PUSH1 0x1 PUSH1 0x80 SHL SUB DUP2 MLOAD AND SWAP1 PUSH8 0xDE0B6B3A7640000 DUP3 MUL SWAP2 DUP1 DUP4 DIV PUSH8 0xDE0B6B3A7640000 EQ SWAP1 ISZERO OR ISZERO PUSH2 0x12AA JUMPI PUSH1 0x20 SWAP2 PUSH1 0x1 PUSH1 0x1 PUSH1 0x80 SHL SUB DUP4 PUSH2 0x12A2 SWAP4 ADD MLOAD AND SWAP1 PUSH2 0x1C4D JUMP JUMPDEST PUSH1 0x40 MLOAD SWAP1 DUP2 MSTORE RETURN JUMPDEST PUSH4 0x4E487B71 PUSH1 0xE0 SHL PUSH1 0x0 MSTORE PUSH1 0x11 PUSH1 0x4 MSTORE PUSH1 0x24 PUSH1 0x0 REVERT JUMPDEST PUSH1 0x64 PUSH1 0x40 MLOAD PUSH3 0x461BCD PUSH1 0xE5 SHL DUP2 MSTORE PUSH1 0x20 PUSH1 0x4 DUP3 ADD MSTORE PUSH1 0x9 PUSH1 0x24 DUP3 ADD MSTORE PUSH32 0x7A65726F5F726573760000000000000000000000000000000000000000000000 PUSH1 0x44 DUP3 ADD MSTORE REVERT JUMPDEST POP PUSH1 0x1 PUSH1 0x1 PUSH1 0x80 SHL SUB PUSH1 0x20 DUP3 ADD MLOAD AND ISZERO ISZERO PUSH2 0x121B JUMP JUMPDEST CALLVALUE PUSH2 0x95C JUMPI PUSH1 0x40 CALLDATASIZE PUSH1 0x3 NOT ADD SLT PUSH2 0x95C JUMPI PUSH2 0x1333 PUSH2 0x1B48 JUMP JUMPDEST PUSH1 0x1 PUSH1 0x1 PUSH1 0xA0 SHL SUB PUSH2 0x1343 PUSH2 0x1B5E JUMP JUMPDEST SWAP2 AND PUSH1 0x0 MSTORE PUSH1 0x1 PUSH1 0x20 MSTORE PUSH1 0x1 PUSH1 0x1 PUSH1 0xA0 SHL SUB PUSH1 0x40 PUSH1 0x0 KECCAK256 SWAP2 AND PUSH1 0x0 MSTORE PUSH1 0x20 MSTORE PUSH1 0x60 PUSH1 0x40 PUSH1 0x0 KECCAK256 PUSH1 0x1 PUSH1 0x1 PUSH1 0x80 SHL SUB PUSH1 0x20 PUSH2 0x1381 PUSH1 0x2 DUP5 SLOAD SWAP5 ADD PUSH2 0x1BAC JUMP JUMPDEST PUSH1 0x40 MLOAD SWAP4 DUP5 MSTORE DUP3 DUP2 MLOAD AND DUP3 DUP6 ADD MSTORE ADD MLOAD AND PUSH1 0x40 DUP3 ADD MSTORE RETURN JUMPDEST CALLVALUE PUSH2 0x95C JUMPI PUSH1 0xA0 CALLDATASIZE PUSH1 0x3 NOT ADD SLT PUSH2 0x95C JUMPI PUSH1 0x44 CALLDATALOAD PUSH1 0x4 CALLDATALOAD PUSH8 0xFFFFFFFFFFFFFFFF DUP3 GT PUSH2 0x95C JUMPI CALLDATASIZE PUSH1 0x23 DUP4 ADD SLT ISZERO PUSH2 0x95C JUMPI DUP2 PUSH1 0x4 ADD CALLDATALOAD SWAP1 PUSH8 0xFFFFFFFFFFFFFFFF DUP3 GT PUSH2 0x95C JUMPI CALLDATASIZE PUSH1 0x24 DUP4 PUSH1 0x5 SHL DUP6 ADD ADD GT PUSH2 0x95C JUMPI PUSH1 0x64 CALLDATALOAD SWAP3 PUSH1 0x1 PUSH1 0x1 PUSH1 0xA0 SHL SUB DUP5 AND DUP5 SUB PUSH2 0x95C JUMPI PUSH2 0x1420 PUSH1 0x40 DUP1 MLOAD PUSH8 0x8E3C19FDA5C76D78 PUSH1 0x20 DUP3 ADD MSTORE PUSH1 0x20 DUP2 MSTORE PUSH2 0x1B74 JUMP JUMPDEST PUSH2 0x1428 PUSH2 0x1F2E JUMP JUMPDEST PUSH2 0x1446 PUSH1 0x40 DUP1 MLOAD PUSH8 0x1693201F0B93E7DF PUSH1 0x20 DUP3 ADD MSTORE PUSH1 0x20 DUP2 MSTORE PUSH2 0x1B74 JUMP JUMPDEST PUSH2 0x1464 PUSH1 0x40 DUP1 MLOAD PUSH8 0x64B796F9CD13DCED PUSH1 0x20 DUP3 ADD MSTORE PUSH1 0x20 DUP2 MSTORE PUSH2 0x1B74 JUMP JUMPDEST PUSH2 0x1482 PUSH1 0x40 DUP1 MLOAD PUSH8 0xD51FA784833B6A7C PUSH1 0x20 DUP3 ADD MSTORE PUSH1 0x20 DUP2 MSTORE PUSH2 0x1B74 JUMP JUMPDEST PUSH2 0x14A0 PUSH1 0x40 DUP1 MLOAD PUSH8 0xBF777C0F8E57CA01 PUSH1 0x20 DUP3 ADD MSTORE PUSH1 0x20 DUP2 MSTORE PUSH2 0x1B74 JUMP JUMPDEST PUSH2 0x14BE PUSH1 0x40 DUP1 MLOAD PUSH8 0x311A23FD959AEB4D PUSH1 0x20 DUP3 ADD MSTORE PUSH1 0x20 DUP2 MSTORE PUSH2 0x1B74 JUMP JUMPDEST PUSH2 0x14CC PUSH1 0x84 CALLDATALOAD TIMESTAMP GT ISZERO PUSH2 0x1E1F JUMP JUMPDEST PUSH2 0x14EA PUSH1 0x40 DUP1 MLOAD PUSH8 0x1030281FDB4D92B7 PUSH1 0x20 DUP3 ADD MSTORE PUSH1 0x20 DUP2 MSTORE PUSH2 0x1B74 JUMP JUMPDEST PUSH2 0x1508 PUSH1 0x40 DUP1 MLOAD PUSH8 0x52A19AA7996D6BDF PUSH1 0x20 DUP3 ADD MSTORE PUSH1 0x20 DUP2 MSTORE PUSH2 0x1B74 JUMP JUMPDEST PUSH2 0x1526 PUSH1 0x40 DUP1 MLOAD PUSH8 0xF00DC0B605FEBCC8 PUSH1 0x20 DUP3 ADD MSTORE PUSH1 0x20 DUP2 MSTORE PUSH2 0x1B74 JUMP JUMPDEST PUSH2 0x1544 PUSH1 0x40 DUP1 MLOAD PUSH8 0x79230CC442C27854 PUSH1 0x20 DUP3 ADD MSTORE PUSH1 0x20 DUP2 MSTORE PUSH2 0x1B74 JUMP JUMPDEST PUSH1 0x2 DUP4 SUB PUSH2 0x1AE0 JUMPI PUSH2 0x156A PUSH1 0x40 DUP1 MLOAD PUSH8 0x95DB51AD79747099 PUSH1 0x20 DUP3 ADD MSTORE PUSH1 0x20 DUP2 MSTORE PUSH2 0x1B74 JUMP JUMPDEST PUSH2 0x1588 PUSH1 0x40 DUP1 MLOAD PUSH8 0x6263F6DA351E7F20 PUSH1 0x20 DUP3 ADD MSTORE PUSH1 0x20 DUP2 MSTORE PUSH2 0x1B74 JUMP JUMPDEST PUSH2 0x15A6 PUSH1 0x40 DUP1 MLOAD PUSH8 0xCB8BD4B79814BC49 PUSH1 0x20 DUP3 ADD MSTORE PUSH1 0x20 DUP2 MSTORE PUSH2 0x1B74 JUMP JUMPDEST PUSH2 0x15C4 PUSH1 0x40 DUP1 MLOAD PUSH8 0x3434009662866F4B PUSH1 0x20 DUP3 ADD MSTORE PUSH1 0x20 DUP2 MSTORE PUSH2 0x1B74 JUMP JUMPDEST PUSH2 0x15CF DUP3 ISZERO ISZERO PUSH2 0x1BE2 JUMP JUMPDEST PUSH2 0x15ED PUSH1 0x40 DUP1 MLOAD PUSH8 0x88219D4357B94A35 PUSH1 0x20 DUP3 ADD MSTORE PUSH1 0x20 DUP2 MSTORE PUSH2 0x1B74 JUMP JUMPDEST PUSH2 0x160B PUSH1 0x40 DUP1 MLOAD PUSH8 0x4617DE4CE0B79A3F PUSH1 0x20 DUP3 ADD MSTORE PUSH1 0x20 DUP2 MSTORE PUSH2 0x1B74 JUMP JUMPDEST PUSH2 0x1629 PUSH1 0x40 DUP1 MLOAD PUSH8 0xCAAB59F1C6E24307 PUSH1 0x20 DUP3 ADD MSTORE PUSH1 0x20 DUP2 MSTORE PUSH2 0x1B74 JUMP JUMPDEST DUP3 ISZERO PUSH2 0x1A92 JUMPI PUSH2 0x163B PUSH1 0x24 DUP3 ADD PUSH2 0x1E6A JUMP JUMPDEST SWAP3 PUSH2 0x165A PUSH1 0x40 DUP1 MLOAD PUSH8 0x2D4AEEB636FAF5F8 PUSH1 0x20 DUP3 ADD MSTORE PUSH1 0x20 DUP2 MSTORE PUSH2 0x1B74 JUMP JUMPDEST PUSH2 0x1678 PUSH1 0x40 DUP1 MLOAD PUSH8 0x8C90FEC96BF16366 PUSH1 0x20 DUP3 ADD MSTORE PUSH1 0x20 DUP2 MSTORE PUSH2 0x1B74 JUMP JUMPDEST PUSH1 0x1 LT ISZERO PUSH2 0x1A92 JUMPI PUSH2 0x1694 PUSH1 0x44 PUSH1 0x1 PUSH1 0x1 PUSH1 0xA0 SHL SUB SWAP3 ADD PUSH2 0x1E6A JUMP JUMPDEST SWAP3 PUSH2 0x16B3 PUSH1 0x40 DUP1 MLOAD PUSH8 0xCA6EAB8C8C6DF147 PUSH1 0x20 DUP3 ADD MSTORE PUSH1 0x20 DUP2 MSTORE PUSH2 0x1B74 JUMP JUMPDEST PUSH2 0x16D1 PUSH1 0x40 DUP1 MLOAD PUSH8 0xB95291F5532962C1 PUSH1 0x20 DUP3 ADD MSTORE PUSH1 0x20 DUP2 MSTORE PUSH2 0x1B74 JUMP JUMPDEST AND SWAP3 DUP4 PUSH1 0x0 MSTORE PUSH1 0x1 PUSH1 0x20 MSTORE PUSH1 0x40 PUSH1 0x0 KECCAK256 PUSH1 0x1 PUSH1 0x1 PUSH1 0xA0 SHL SUB DUP5 AND PUSH1 0x0 MSTORE PUSH1 0x20 MSTORE PUSH1 0x40 PUSH1 0x0 KECCAK256 SWAP3 PUSH2 0x1715 PUSH1 0x40 DUP1 MLOAD PUSH8 0xD54600BA499D0AD7 PUSH1 0x20 DUP3 ADD MSTORE PUSH1 0x20 DUP2 MSTORE PUSH2 0x1B74 JUMP JUMPDEST PUSH2 0x1733 PUSH1 0x40 DUP1 MLOAD PUSH8 0xA12411E9E4564F67 PUSH1 0x20 DUP3 ADD MSTORE PUSH1 0x20 DUP2 MSTORE PUSH2 0x1B74 JUMP JUMPDEST PUSH1 0x40 MLOAD PUSH4 0x23B872DD PUSH1 0xE0 SHL DUP2 MSTORE CALLER PUSH1 0x4 DUP3 ADD MSTORE ADDRESS PUSH1 0x24 DUP3 ADD MSTORE PUSH1 0x44 DUP2 ADD DUP5 SWAP1 MSTORE SWAP4 PUSH1 0x20 DUP6 PUSH1 0x64 DUP2 PUSH1 0x0 DUP11 GAS CALL SWAP2 DUP3 ISZERO PUSH2 0x8A2 JUMPI PUSH1 0x1 PUSH1 0x1 PUSH1 0xA0 SHL SUB PUSH1 0x2 PUSH1 0x20 SWAP4 PUSH2 0x1880 SWAP9 PUSH2 0x1937 SWAP7 PUSH2 0x1AC5 JUMPI JUMPDEST POP PUSH2 0x179D PUSH1 0x40 DUP1 MLOAD PUSH8 0x4807015AC0C6D70A DUP9 DUP3 ADD MSTORE DUP8 DUP2 MSTORE PUSH2 0x1B74 JUMP JUMPDEST PUSH2 0x17B9 PUSH1 0x40 DUP1 MLOAD PUSH8 0x10D3D5705E7B4D18 DUP9 DUP3 ADD MSTORE DUP8 DUP2 MSTORE PUSH2 0x1B74 JUMP JUMPDEST ADD SWAP2 PUSH2 0x18CC DUP4 SLOAD SWAP4 PUSH1 0x1 PUSH1 0x1 PUSH1 0x80 SHL SUB PUSH2 0x17DA DUP2 DUP8 AND SWAP7 PUSH1 0x80 SHR DUP8 DUP13 PUSH2 0x1C6D JUMP JUMPDEST SWAP11 DUP12 SWAP7 PUSH2 0x17F9 PUSH1 0x40 DUP1 MLOAD PUSH8 0x5888B8064B1D15E0 DUP13 DUP3 ADD MSTORE DUP12 DUP2 MSTORE PUSH2 0x1B74 JUMP JUMPDEST PUSH2 0x1815 PUSH1 0x40 DUP1 MLOAD PUSH8 0xF576B63B5552636E DUP13 DUP3 ADD MSTORE DUP12 DUP2 MSTORE PUSH2 0x1B74 JUMP JUMPDEST PUSH2 0x1831 PUSH1 0x40 DUP1 MLOAD PUSH8 0xE4D1B061E7984F2F DUP13 DUP3 ADD MSTORE DUP12 DUP2 MSTORE PUSH2 0x1B74 JUMP JUMPDEST PUSH2 0x183F PUSH1 0x24 CALLDATALOAD DUP10 LT ISZERO PUSH2 0x1E96 JUMP JUMPDEST PUSH2 0x185B PUSH1 0x40 DUP1 MLOAD PUSH8 0x8C723BF671248875 DUP13 DUP3 ADD MSTORE DUP12 DUP2 MSTORE PUSH2 0x1B74 JUMP JUMPDEST PUSH2 0x1877 PUSH1 0x40 DUP1 MLOAD PUSH8 0xB69433D5D0A3EE25 DUP13 DUP3 ADD MSTORE DUP12 DUP2 MSTORE PUSH2 0x1B74 JUMP JUMPDEST DUP3 DUP13 AND SWAP1 PUSH2 0x1EE1 JUMP JUMPDEST AND PUSH16 0xFFFFFFFFFFFFFFFFFFFFFFFFFFFFFFFF NOT DUP3 SLOAD AND OR DUP2 SSTORE PUSH2 0x18B5 PUSH1 0x40 DUP1 MLOAD PUSH8 0x27195B78CB6199C1 DUP10 DUP3 ADD MSTORE DUP9 DUP2 MSTORE PUSH2 0x1B74 JUMP JUMPDEST PUSH2 0xE02 PUSH1 0x1 PUSH1 0x1 PUSH1 0x80 SHL SUB DUP7 AND DUP3 SLOAD PUSH1 0x80 SHR PUSH2 0x1F01 JUMP JUMPDEST PUSH2 0x18E8 PUSH1 0x40 DUP1 MLOAD PUSH8 0x9603E90096C706A4 DUP8 DUP3 ADD MSTORE DUP7 DUP2 MSTORE PUSH2 0x1B74 JUMP JUMPDEST PUSH2 0x1904 PUSH1 0x40 DUP1 MLOAD PUSH8 0x99974626953099B0 DUP8 DUP3 ADD MSTORE DUP7 DUP2 MSTORE PUSH2 0x1B74 JUMP JUMPDEST AND SWAP4 PUSH1 0x40 MLOAD SWAP4 DUP5 SWAP3 DUP4 SWAP3 PUSH4 0xA9059CBB PUSH1 0xE0 SHL DUP5 MSTORE PUSH1 0x4 DUP5 ADD PUSH1 0x20 SWAP1 SWAP4 SWAP3 SWAP2 SWAP4 PUSH1 0x1 PUSH1 0x1 PUSH1 0xA0 SHL SUB PUSH1 0x40 DUP3 ADD SWAP6 AND DUP2 MSTORE ADD MSTORE JUMP JUMPDEST SUB DUP2 PUSH1 0x0 DUP7 GAS CALL DUP1 ISZERO PUSH2 0x8A2 JUMPI PUSH2 0x1AA8 JUMPI JUMPDEST POP PUSH2 0x1968 PUSH1 0x40 DUP1 MLOAD PUSH8 0x2A14A6DAA340FA56 PUSH1 0x20 DUP3 ADD MSTORE PUSH1 0x20 DUP2 MSTORE PUSH2 0x1B74 JUMP JUMPDEST PUSH1 0x40 MLOAD SWAP4 PUSH2 0x1977 PUSH1 0x60 DUP7 PUSH2 0x1B74 JUMP JUMPDEST PUSH1 0x2 DUP6 MSTORE PUSH1 0x20 DUP6 ADD SWAP4 PUSH1 0x40 CALLDATASIZE DUP7 CALLDATACOPY PUSH2 0x19A3 PUSH1 0x40 DUP1 MLOAD PUSH8 0x178B6831D6B87AF7 PUSH1 0x20 DUP3 ADD MSTORE PUSH1 0x20 DUP2 MSTORE PUSH2 0x1B74 JUMP JUMPDEST DUP6 MLOAD ISZERO PUSH2 0x1A92 JUMPI DUP4 DUP6 MSTORE PUSH2 0x19CB PUSH1 0x40 DUP1 MLOAD PUSH8 0x8C949AD74467C93F PUSH1 0x20 DUP3 ADD MSTORE PUSH1 0x20 DUP2 MSTORE PUSH2 0x1B74 JUMP JUMPDEST DUP6 MLOAD PUSH1 0x1 LT ISZERO PUSH2 0x1A92 JUMPI DUP1 PUSH1 0x40 DUP8 SWAP7 SWAP8 ADD MSTORE PUSH2 0x19FB PUSH1 0x40 DUP1 MLOAD PUSH8 0xC8D293EA701C6CBF PUSH1 0x20 DUP3 ADD MSTORE PUSH1 0x20 DUP2 MSTORE PUSH2 0x1B74 JUMP JUMPDEST PUSH2 0x1A19 PUSH1 0x40 DUP1 MLOAD PUSH8 0x7FD9C0064763F058 PUSH1 0x20 DUP3 ADD MSTORE PUSH1 0x20 DUP2 MSTORE PUSH2 0x1B74 JUMP JUMPDEST PUSH1 0x40 MLOAD SWAP4 DUP5 MSTORE PUSH1 0x20 DUP5 ADD MSTORE PUSH32 0xAD56699D0F375866EB895ED27203058A36A713382AADED78EB6B67DA266D4332 PUSH1 0x40 CALLER SWAP5 LOG4 PUSH1 0x1 PUSH1 0x0 SSTORE PUSH1 0x40 MLOAD SWAP2 DUP3 SWAP2 PUSH1 0x20 DUP4 ADD SWAP1 PUSH1 0x20 DUP5 MSTORE MLOAD DUP1 SWAP2 MSTORE PUSH1 0x40 DUP4 ADD SWAP2 SWAP1 PUSH1 0x0 JUMPDEST DUP2 DUP2 LT PUSH2 0x1A79 JUMPI POP POP POP SUB SWAP1 RETURN JUMPDEST DUP3 MLOAD DUP5 MSTORE DUP6 SWAP5 POP PUSH1 0x20 SWAP4 DUP5 ADD SWAP4 SWAP1 SWAP3 ADD SWAP2 PUSH1 0x1 ADD PUSH2 0x1A6B JUMP JUMPDEST PUSH4 0x4E487B71 PUSH1 0xE0 SHL PUSH1 0x0 MSTORE PUSH1 0x32 PUSH1 0x4 MSTORE PUSH1 0x24 PUSH1 0x0 REVERT JUMPDEST PUSH2 0x1AC0 SWAP1 PUSH1 0x20 RETURNDATASIZE PUSH1 0x20 GT PUSH2 0x89B JUMPI PUSH2 0x88E DUP2 DUP4 PUSH2 0x1B74 JUMP JUMPDEST PUSH2 0x1949 JUMP JUMPDEST PUSH2 0x1ADB SWAP1 DUP7 RETURNDATASIZE DUP9 GT PUSH2 0x89B JUMPI PUSH2 0x88E DUP2 DUP4 PUSH2 0x1B74 JUMP JUMPDEST PUSH2 0x1780 JUMP JUMPDEST PUSH1 0x64 PUSH1 0x40 MLOAD PUSH3 0x461BCD PUSH1 0xE5 SHL DUP2 MSTORE PUSH1 0x20 PUSH1 0x4 DUP3 ADD MSTORE PUSH1 0xC PUSH1 0x24 DUP3 ADD MSTORE PUSH32 0x696E76616C69645F706174680000000000000000000000000000000000000000 PUSH1 0x44 DUP3 ADD MSTORE REVERT JUMPDEST CALLVALUE PUSH2 0x95C JUMPI PUSH1 0x60 CALLDATASIZE PUSH1 0x3 NOT ADD SLT PUSH2 0x95C JUMPI PUSH1 0x20 PUSH2 0x12A2 PUSH1 0x44 CALLDATALOAD PUSH1 0x24 CALLDATALOAD PUSH1 0x4 CALLDATALOAD PUSH2 0x1C6D JUMP JUMPDEST PUSH1 0x4 CALLDATALOAD SWAP1 PUSH1 0x1 PUSH1 0x1 PUSH1 0xA0 SHL SUB DUP3 AND DUP3 SUB PUSH2 0x95C JUMPI JUMP JUMPDEST PUSH1 0x24 CALLDATALOAD SWAP1 PUSH1 0x1 PUSH1 0x1 PUSH1 0xA0 SHL SUB DUP3 AND DUP3 SUB PUSH2 0x95C JUMPI JUMP JUMPDEST SWAP1 PUSH1 0x1F DUP1 NOT SWAP2 ADD AND DUP2 ADD SWAP1 DUP2 LT PUSH8 0xFFFFFFFFFFFFFFFF DUP3 GT OR PUSH2 0x1B96 JUMPI PUSH1 0x40 MSTORE JUMP JUMPDEST PUSH4 0x4E487B71 PUSH1 0xE0 SHL PUSH1 0x0 MSTORE PUSH1 0x41 PUSH1 0x4 MSTORE PUSH1 0x24 PUSH1 0x0 REVERT JUMPDEST SWAP1 PUSH1 0x40 MLOAD PUSH1 0x40 DUP2 ADD DUP2 DUP2 LT PUSH8 0xFFFFFFFFFFFFFFFF DUP3 GT OR PUSH2 0x1B96 JUMPI PUSH1 0x40 MSTORE SWAP2 SLOAD PUSH1 0x1 PUSH1 0x1 PUSH1 0x80 SHL SUB DUP2 AND DUP4 MSTORE PUSH1 0x80 SHR PUSH1 0x20 DUP4 ADD MSTORE JUMP JUMPDEST ISZERO PUSH2 0x1BE9 JUMPI JUMP JUMPDEST PUSH1 0x64 PUSH1 0x40 MLOAD PUSH3 0x461BCD PUSH1 0xE5 SHL DUP2 MSTORE PUSH1 0x20 PUSH1 0x4 DUP3 ADD MSTORE PUSH1 0xA PUSH1 0x24 DUP3 ADD MSTORE PUSH32 0x7A65726F5F696E70757400000000000000000000000000000000000000000000 PUSH1 0x44 DUP3 ADD MSTORE REVERT JUMPDEST DUP2 DUP2 MUL SWAP3 SWAP2 DUP2 ISZERO SWAP2 DUP5 DIV EQ OR ISZERO PUSH2 0x12AA JUMPI JUMP JUMPDEST SWAP2 SWAP1 DUP3 ADD DUP1 SWAP3 GT PUSH2 0x12AA JUMPI JUMP JUMPDEST DUP2 ISZERO PUSH2 0x1C57 JUMPI DIV SWAP1 JUMP JUMPDEST PUSH4 0x4E487B71 PUSH1 0xE0 SHL PUSH1 0x0 MSTORE PUSH1 0x12 PUSH1 0x4 MSTORE PUSH1 0x24 PUSH1 0x0 REVERT JUMPDEST SWAP2 PUSH2 0x1C8C PUSH1 0x40 DUP1 MLOAD PUSH8 0x3F1643A17E972209 PUSH1 0x20 DUP3 ADD MSTORE PUSH1 0x20 DUP2 MSTORE PUSH2 0x1B74 JUMP JUMPDEST PUSH2 0x1CAA PUSH1 0x40 DUP1 MLOAD PUSH8 0x1FAD8B62BAC15B7F PUSH1 0x20 DUP3 ADD MSTORE PUSH1 0x20 DUP2 MSTORE PUSH2 0x1B74 JUMP JUMPDEST PUSH2 0x1CC8 PUSH1 0x40 DUP1 MLOAD PUSH8 0xEFB66768CC34F5F7 PUSH1 0x20 DUP3 ADD MSTORE PUSH1 0x20 DUP2 MSTORE PUSH2 0x1B74 JUMP JUMPDEST PUSH2 0x1CE6 PUSH1 0x40 DUP1 MLOAD PUSH8 0xA5804C8CEFE9CD96 PUSH1 0x20 DUP3 ADD MSTORE PUSH1 0x20 DUP2 MSTORE PUSH2 0x1B74 JUMP JUMPDEST PUSH2 0x1CF1 DUP4 ISZERO ISZERO PUSH2 0x1BE2 JUMP JUMPDEST PUSH2 0x1D0F PUSH1 0x40 DUP1 MLOAD PUSH8 0xB903D7D141483927 PUSH1 0x20 DUP3 ADD MSTORE PUSH1 0x20 DUP2 MSTORE PUSH2 0x1B74 JUMP JUMPDEST PUSH2 0x1D2C PUSH1 0x40 DUP1 MLOAD PUSH7 0x5D082B0DAB3473 PUSH1 0x20 DUP3 ADD MSTORE PUSH1 0x20 DUP2 MSTORE PUSH2 0x1B74 JUMP JUMPDEST PUSH2 0x1D4A PUSH1 0x40 DUP1 MLOAD PUSH8 0x4BFE47EAD1AC1E4C PUSH1 0x20 DUP3 ADD MSTORE PUSH1 0x20 DUP2 MSTORE PUSH2 0x1B74 JUMP JUMPDEST PUSH2 0x1D68 PUSH1 0x40 DUP1 MLOAD PUSH8 0x39B283281A91D2C4 PUSH1 0x20 DUP3 ADD MSTORE PUSH1 0x20 DUP2 MSTORE PUSH2 0x1B74 JUMP JUMPDEST DUP2 ISZERO ISZERO DUP1 PUSH2 0x1E16 JUMPI JUMPDEST ISZERO PUSH2 0x1DD2 JUMPI PUSH2 0x1DCF SWAP3 PUSH2 0x1DC3 PUSH2 0x1DC9 SWAP3 PUSH2 0x1D9F PUSH1 0x40 DUP1 MLOAD PUSH8 0x801B7095F9935698 PUSH1 0x20 DUP3 ADD MSTORE PUSH1 0x20 DUP2 MSTORE PUSH2 0x1B74 JUMP JUMPDEST PUSH2 0x1DBD PUSH1 0x40 DUP1 MLOAD PUSH8 0x3DE013647AF12F6A PUSH1 0x20 DUP3 ADD MSTORE PUSH1 0x20 DUP2 MSTORE PUSH2 0x1B74 JUMP JUMPDEST DUP3 PUSH2 0x1C2D JUMP JUMPDEST SWAP3 PUSH2 0x1C40 JUMP JUMPDEST SWAP1 PUSH2 0x1C4D JUMP JUMPDEST SWAP1 JUMP JUMPDEST PUSH1 0x64 PUSH1 0x40 MLOAD PUSH3 0x461BCD PUSH1 0xE5 SHL DUP2 MSTORE PUSH1 0x20 PUSH1 0x4 DUP3 ADD MSTORE PUSH1 0x8 PUSH1 0x24 DUP3 ADD MSTORE PUSH32 0x6261645F72657376000000000000000000000000000000000000000000000000 PUSH1 0x44 DUP3 ADD MSTORE REVERT JUMPDEST POP DUP1 ISZERO ISZERO PUSH2 0x1D71 JUMP JUMPDEST ISZERO PUSH2 0x1E26 JUMPI JUMP JUMPDEST PUSH1 0x64 PUSH1 0x40 MLOAD PUSH3 0x461BCD PUSH1 0xE5 SHL DUP2 MSTORE PUSH1 0x20 PUSH1 0x4 DUP3 ADD MSTORE PUSH1 0x7 PUSH1 0x24 DUP3 ADD MSTORE PUSH32 0x6578706972656400000000000000000000000000000000000000000000000000 PUSH1 0x44 DUP3 ADD MSTORE REVERT JUMPDEST CALLDATALOAD PUSH1 0x1 PUSH1 0x1 PUSH1 0xA0 SHL SUB DUP2 AND DUP2 SUB PUSH2 0x95C JUMPI SWAP1 JUMP JUMPDEST SWAP1 DUP2 PUSH1 0x20 SWAP2 SUB SLT PUSH2 0x95C JUMPI MLOAD DUP1 ISZERO ISZERO DUP2 SUB PUSH2 0x95C JUMPI SWAP1 JUMP JUMPDEST ISZERO PUSH2 0x1E9D JUMPI JUMP JUMPDEST PUSH1 0x64 PUSH1 0x40 MLOAD PUSH3 0x461BCD PUSH1 0xE5 SHL DUP2 MSTORE PUSH1 0x20 PUSH1 0x4 DUP3 ADD MSTORE PUSH1 0x8 PUSH1 0x24 DUP3 ADD MSTORE PUSH32 0x736C697070616765000000000000000000000000000000000000000000000000 PUSH1 0x44 DUP3 ADD MSTORE REVERT JUMPDEST SWAP1 PUSH1 0x1 PUSH1 0x1 PUSH1 0x80 SHL SUB DUP1 SWAP2 AND SWAP2 AND ADD SWAP1 PUSH1 0x1 PUSH1 0x1 PUSH1 0x80 SHL SUB DUP3 GT PUSH2 0x12AA JUMPI JUMP JUMPDEST SWAP1 PUSH1 0x1 PUSH1 0x1 PUSH1 0x80 SHL SUB DUP1 SWAP2 AND SWAP2 AND SUB SWAP1 PUSH1 0x1 PUSH1 0x1 PUSH1 0x80 SHL SUB DUP3 GT PUSH2 0x12AA JUMPI JUMP JUMPDEST SWAP2 SWAP1 DUP3 SUB SWAP2 DUP3 GT PUSH2 0x12AA JUMPI JUMP JUMPDEST PUSH1 0x2 PUSH1 0x0 SLOAD EQ PUSH2 0x1F3F JUMPI PUSH1 0x2 PUSH1 0x0 SSTORE JUMP JUMPDEST PUSH32 0x3EE5AEB500000000000000000000000000000000000000000000000000000000 PUSH1 0x0 MSTORE PUSH1 0x4 PUSH1 0x0 REVERT INVALID LOG2 PUSH5 0x6970667358 0x22 SLT KECCAK256 0x4D PUSH11 0xC2EC13503CEEDB9609591C 0x26 MLOAD SELFBALANCE 0xAD 0xAE MSTORE 0xB8 DUP6 DUP10 PUSH13 0x5B8472CA00F2C1101464736F6C PUSH4 0x4300081C STOP CALLER "},"methodIdentifiers":{"addLiquidity(address,address,uint256,uint256,uint256,uint256,address,uint256)":"e8e33700","getAmountOut(uint256,uint256,uint256)":"054d50d4","getPrice(address,address)":"ac41865a","pairs(address,address)":"69454b86","removeLiquidity(address,address,uint256,uint256,uint256,address,uint256)":"baa2abde","swapExactTokensForTokens(uint256,uint256,address[],address,uint256)":"38ed1739"}}}}}